{
  "_format": "hh-sol-artifact-1",
  "contractName": "CrossMinitiaRouter",
  "sourceName": "contracts/CrossMinitiaRouter.sol",
  "abi": [
    {
      "inputs": [
        {
          "internalType": "address",
          "name": "_mainVault",
          "type": "address"
        },
        {
          "internalType": "address",
          "name": "_depositToken",
          "type": "address"
        }
      ],
      "stateMutability": "nonpayable",
      "type": "constructor"
    },
    {
      "inputs": [
        {
          "internalType": "address",
          "name": "owner",
          "type": "address"
        }
      ],
      "name": "OwnableInvalidOwner",
      "type": "error"
    },
    {
      "inputs": [
        {
          "internalType": "address",
          "name": "account",
          "type": "address"
        }
      ],
      "name": "OwnableUnauthorizedAccount",
      "type": "error"
    },
    {
      "inputs": [
        {
          "internalType": "address",
          "name": "token",
          "type": "address"
        }
      ],
      "name": "SafeERC20FailedOperation",
      "type": "error"
    },
    {
      "anonymous": false,
      "inputs": [
        {
          "indexed": false,
          "internalType": "uint256",
          "name": "totalYield",
          "type": "uint256"
        }
      ],
      "name": "AllHarvested",
      "type": "event"
    },
    {
      "anonymous": false,
      "inputs": [
        {
          "indexed": false,
          "internalType": "uint256",
          "name": "totalAmount",
          "type": "uint256"
        }
      ],
      "name": "CapitalRouted",
      "type": "event"
    },
    {
      "anonymous": false,
      "inputs": [
        {
          "indexed": false,
          "internalType": "string",
          "name": "name",
          "type": "string"
        },
        {
          "indexed": false,
          "internalType": "address",
          "name": "strategy",
          "type": "address"
        },
        {
          "indexed": false,
          "internalType": "uint256",
          "name": "chainId",
          "type": "uint256"
        },
        {
          "indexed": false,
          "internalType": "uint256",
          "name": "initialAllocation",
          "type": "uint256"
        }
      ],
      "name": "MinitiaVaultAdded",
      "type": "event"
    },
    {
      "anonymous": false,
      "inputs": [
        {
          "indexed": true,
          "internalType": "address",
          "name": "previousOwner",
          "type": "address"
        },
        {
          "indexed": true,
          "internalType": "address",
          "name": "newOwner",
          "type": "address"
        }
      ],
      "name": "OwnershipTransferred",
      "type": "event"
    },
    {
      "anonymous": false,
      "inputs": [
        {
          "indexed": false,
          "internalType": "uint256[]",
          "name": "newAllocations",
          "type": "uint256[]"
        }
      ],
      "name": "Rebalanced",
      "type": "event"
    },
    {
      "inputs": [
        {
          "internalType": "string",
          "name": "name",
          "type": "string"
        },
        {
          "internalType": "address",
          "name": "strategy",
          "type": "address"
        },
        {
          "internalType": "uint256",
          "name": "chainId",
          "type": "uint256"
        },
        {
          "internalType": "uint256",
          "name": "initialAllocation",
          "type": "uint256"
        }
      ],
      "name": "addMinitiaVault",
      "outputs": [],
      "stateMutability": "nonpayable",
      "type": "function"
    },
    {
      "inputs": [],
      "name": "depositToken",
      "outputs": [
        {
          "internalType": "contract IERC20",
          "name": "",
          "type": "address"
        }
      ],
      "stateMutability": "view",
      "type": "function"
    },
    {
      "inputs": [],
      "name": "getTotalCrossMinitiaValue",
      "outputs": [
        {
          "internalType": "uint256",
          "name": "",
          "type": "uint256"
        }
      ],
      "stateMutability": "view",
      "type": "function"
    },
    {
      "inputs": [],
      "name": "harvestAll",
      "outputs": [
        {
          "internalType": "uint256",
          "name": "",
          "type": "uint256"
        }
      ],
      "stateMutability": "nonpayable",
      "type": "function"
    },
    {
      "inputs": [],
      "name": "mainVault",
      "outputs": [
        {
          "internalType": "address",
          "name": "",
          "type": "address"
        }
      ],
      "stateMutability": "view",
      "type": "function"
    },
    {
      "inputs": [
        {
          "internalType": "uint256",
          "name": "",
          "type": "uint256"
        }
      ],
      "name": "minitiaVaults",
      "outputs": [
        {
          "internalType": "string",
          "name": "name",
          "type": "string"
        },
        {
          "internalType": "address",
          "name": "strategy",
          "type": "address"
        },
        {
          "internalType": "uint256",
          "name": "chainId",
          "type": "uint256"
        },
        {
          "internalType": "uint256",
          "name": "allocation",
          "type": "uint256"
        },
        {
          "internalType": "uint256",
          "name": "totalDeposited",
          "type": "uint256"
        },
        {
          "internalType": "bool",
          "name": "active",
          "type": "bool"
        }
      ],
      "stateMutability": "view",
      "type": "function"
    },
    {
      "inputs": [],
      "name": "owner",
      "outputs": [
        {
          "internalType": "address",
          "name": "",
          "type": "address"
        }
      ],
      "stateMutability": "view",
      "type": "function"
    },
    {
      "inputs": [
        {
          "internalType": "uint256[]",
          "name": "newAllocations",
          "type": "uint256[]"
        }
      ],
      "name": "rebalance",
      "outputs": [],
      "stateMutability": "nonpayable",
      "type": "function"
    },
    {
      "inputs": [],
      "name": "renounceOwnership",
      "outputs": [],
      "stateMutability": "nonpayable",
      "type": "function"
    },
    {
      "inputs": [
        {
          "internalType": "uint256",
          "name": "totalAmount",
          "type": "uint256"
        }
      ],
      "name": "routeCapital",
      "outputs": [],
      "stateMutability": "nonpayable",
      "type": "function"
    },
    {
      "inputs": [
        {
          "internalType": "address",
          "name": "newOwner",
          "type": "address"
        }
      ],
      "name": "transferOwnership",
      "outputs": [],
      "stateMutability": "nonpayable",
      "type": "function"
    }
  ],
  "bytecode": "0x60c060405234801561001057600080fd5b50604051620013cb380380620013cb833981016040819052610031916100e4565b338061005757604051631e4fbdf760e01b81526000600482015260240160405180910390fd5b61006081610078565b506001600160a01b039182166080521660a052610117565b600080546001600160a01b038381166001600160a01b0319831681178455604051919092169283917f8be0079c531659141344cd1fd0a4f28419497f9722a3daafe3b4186f6b6457e09190a35050565b80516001600160a01b03811681146100df57600080fd5b919050565b600080604083850312156100f757600080fd5b610100836100c8565b915061010e602084016100c8565b90509250929050565b60805160a05161125d6200016e6000396000818161018e015281816105e1015281816106d101526108000152600081816101670152818161047d015281816106030152818161066b01526106f3015261125d6000f3fe608060405234801561001057600080fd5b50600436106100a95760003560e01c80638ed955b9116100715780638ed955b91461013457806395bf76051461013c578063a32099d11461014f578063b081ca7e14610162578063c89039c514610189578063f2fde38b146101b057600080fd5b8063288a4114146100ae5780633d39e99b146100dc578063715018a6146100f2578063780d5710146100fc5780638da5cb5b1461010f575b600080fd5b6100c16100bc366004610d84565b6101c3565b6040516100d396959493929190610de3565b60405180910390f35b6100e46102a5565b6040519081526020016100d3565b6100fa6102fe565b005b6100fa61010a366004610e2a565b610312565b6000546001600160a01b03165b6040516001600160a01b0390911681526020016100d3565b6100e4610470565b6100fa61014a366004610d84565b610660565b6100fa61015d366004610ed1565b610930565b61011c7f000000000000000000000000000000000000000000000000000000000000000081565b61011c7f000000000000000000000000000000000000000000000000000000000000000081565b6100fa6101be366004610fa2565b610a54565b600181815481106101d357600080fd5b90600052602060002090600602016000915090508060000180546101f690610fc4565b80601f016020809104026020016040519081016040528092919081815260200182805461022290610fc4565b801561026f5780601f106102445761010080835404028352916020019161026f565b820191906000526020600020905b81548152906001019060200180831161025257829003601f168201915b505050600184015460028501546003860154600487015460059097015495966001600160a01b0390931695919450925060ff1686565b600080805b6001548110156102f857600181815481106102c7576102c7610ff8565b906000526020600020906006020160040154826102e49190611024565b9150806102f08161103d565b9150506102aa565b50919050565b610306610a92565b6103106000610abf565b565b600154811461035a5760405162461bcd60e51b815260206004820152600f60248201526e098cadccee8d040dad2e6dac2e8c6d608b1b60448201526064015b60405180910390fd5b6000805b828110156103df5783838281811061037857610378610ff8565b905060200201356001828154811061039257610392610ff8565b9060005260206000209060060201600301819055508383828181106103b9576103b9610ff8565b90506020020135826103cb9190611024565b9150806103d78161103d565b91505061035e565b506127108111156104325760405162461bcd60e51b815260206004820152601860248201527f496e76616c696420746f74616c20616c6c6f636174696f6e00000000000000006044820152606401610351565b7ffcb8bc541177a79b59ab44a95da10cf67d66810b97fa948bc85f05b8f256f09a8383604051610463929190611056565b60405180910390a1505050565b6000336001600160a01b037f000000000000000000000000000000000000000000000000000000000000000016146104d65760405162461bcd60e51b8152602060048201526009602482015268139bdd081d985d5b1d60ba1b6044820152606401610351565b6000805b6001548110156105cd57600181815481106104f7576104f7610ff8565b600091825260209091206005600690920201015460ff16156105bb576001818154811061052657610526610ff8565b906000526020600020906006020160010160009054906101000a90046001600160a01b03166001600160a01b0316634641257d6040518163ffffffff1660e01b81526004016020604051808303816000875af115801561058a573d6000803e3d6000fd5b505050506040513d601f19601f820116820180604052508101906105ae919061108f565b6105b89083611024565b91505b806105c58161103d565b9150506104da565b508015610628576106286001600160a01b037f0000000000000000000000000000000000000000000000000000000000000000167f000000000000000000000000000000000000000000000000000000000000000083610b0f565b6040518181527f79ba7257695d6d3dec128eec8986a1028aff2d75bc098fc28458b81a4e52927e9060200160405180910390a1919050565b336001600160a01b037f000000000000000000000000000000000000000000000000000000000000000016146106c45760405162461bcd60e51b8152602060048201526009602482015268139bdd081d985d5b1d60ba1b6044820152606401610351565b6107196001600160a01b037f0000000000000000000000000000000000000000000000000000000000000000167f00000000000000000000000000000000000000000000000000000000000000003084610b49565b60005b6001548110156108f9576001818154811061073957610739610ff8565b600091825260209091206005600690920201015460ff168015610780575060006001828154811061076c5761076c610ff8565b906000526020600020906006020160030154115b156108e75760006127106001838154811061079d5761079d610ff8565b906000526020600020906006020160030154846107ba91906110a8565b6107c491906110bf565b905080156108e557610829600183815481106107e2576107e2610ff8565b60009182526020909120600690910201600101546001600160a01b037f00000000000000000000000000000000000000000000000000000000000000008116911683610b85565b6001828154811061083c5761083c610ff8565b600091825260209091206006909102016001015460405163b6b55f2560e01b8152600481018390526001600160a01b039091169063b6b55f2590602401600060405180830381600087803b15801561089357600080fd5b505af11580156108a7573d6000803e3d6000fd5b5050505080600183815481106108bf576108bf610ff8565b906000526020600020906006020160040160008282546108df9190611024565b90915550505b505b806108f18161103d565b91505061071c565b506040518181527f5977239b813375aa0c1f1ed46ce59225b4b643e030d3b9dd3115c8827d40969d9060200160405180910390a150565b610938610a92565b6040805160c0810182528581526001600160a01b038516602082015290810183905260608101829052600060808201819052600160a08301819052805480820182559152815160069091027fb10e2d527612073b26eecdfd717e6a320cf44b4afac2b0732d9fcbe2b7fa0cf6019081906109b2908261112f565b5060208201516001820180546001600160a01b0319166001600160a01b039092169190911790556040808301516002830155606083015160038301556080830151600483015560a0909201516005909101805460ff1916911515919091179055517f0ab95386dec75be1987407c99fd8585d79aae89215647ece177872d15986800990610a469086908690869086906111ef565b60405180910390a150505050565b610a5c610a92565b6001600160a01b038116610a8657604051631e4fbdf760e01b815260006004820152602401610351565b610a8f81610abf565b50565b6000546001600160a01b031633146103105760405163118cdaa760e01b8152336004820152602401610351565b600080546001600160a01b038381166001600160a01b0319831681178455604051919092169283917f8be0079c531659141344cd1fd0a4f28419497f9722a3daafe3b4186f6b6457e09190a35050565b610b1c8383836001610c0f565b610b4457604051635274afe760e01b81526001600160a01b0384166004820152602401610351565b505050565b610b57848484846001610c75565b610b7f57604051635274afe760e01b81526001600160a01b0385166004820152602401610351565b50505050565b604051636eb1769f60e11b81523060048201526001600160a01b0383811660248301526000919085169063dd62ed3e90604401602060405180830381865afa158015610bd5573d6000803e3d6000fd5b505050506040513d601f19601f82011682018060405250810190610bf9919061108f565b9050610b7f8484610c0a8585611024565b610ce7565b60405163a9059cbb60e01b60008181526001600160a01b038616600452602485905291602083604481808b5af192506001600051148316610c69578383151615610c5c573d6000823e3d81fd5b6000873b113d1516831692505b60405250949350505050565b6040516323b872dd60e01b60008181526001600160a01b038781166004528616602452604485905291602083606481808c5af192506001600051148316610cd5578383151615610cc8573d6000823e3d81fd5b6000883b113d1516831692505b60405250600060605295945050505050565b610cf48383836000610d37565b610b4457610d06838360006001610d37565b610d2e57604051635274afe760e01b81526001600160a01b0384166004820152602401610351565b610b1c83838360015b60405163095ea7b360e01b60008181526001600160a01b038616600452602485905291602083604481808b5af192506001600051148316610c69578383151615610c5c573d6000823e3d81fd5b600060208284031215610d9657600080fd5b5035919050565b6000815180845260005b81811015610dc357602081850181015186830182015201610da7565b506000602082860101526020601f19601f83011685010191505092915050565b60c081526000610df660c0830189610d9d565b6001600160a01b0397909716602083015250604081019490945260608401929092526080830152151560a090910152919050565b60008060208385031215610e3d57600080fd5b823567ffffffffffffffff80821115610e5557600080fd5b818501915085601f830112610e6957600080fd5b813581811115610e7857600080fd5b8660208260051b8501011115610e8d57600080fd5b60209290920196919550909350505050565b634e487b7160e01b600052604160045260246000fd5b80356001600160a01b0381168114610ecc57600080fd5b919050565b60008060008060808587031215610ee757600080fd5b843567ffffffffffffffff80821115610eff57600080fd5b818701915087601f830112610f1357600080fd5b813581811115610f2557610f25610e9f565b604051601f8201601f19908116603f01168101908382118183101715610f4d57610f4d610e9f565b816040528281528a6020848701011115610f6657600080fd5b826020860160208301376000602084830101528098505050505050610f8d60208601610eb5565b93969395505050506040820135916060013590565b600060208284031215610fb457600080fd5b610fbd82610eb5565b9392505050565b600181811c90821680610fd857607f821691505b6020821081036102f857634e487b7160e01b600052602260045260246000fd5b634e487b7160e01b600052603260045260246000fd5b634e487b7160e01b600052601160045260246000fd5b808201808211156110375761103761100e565b92915050565b60006001820161104f5761104f61100e565b5060010190565b6020808252810182905260006001600160fb1b0383111561107657600080fd5b8260051b80856040850137919091016040019392505050565b6000602082840312156110a157600080fd5b5051919050565b80820281158282048414176110375761103761100e565b6000826110dc57634e487b7160e01b600052601260045260246000fd5b500490565b601f821115610b4457600081815260208120601f850160051c810160208610156111085750805b601f850160051c820191505b8181101561112757828155600101611114565b505050505050565b815167ffffffffffffffff81111561114957611149610e9f565b61115d816111578454610fc4565b846110e1565b602080601f831160018114611192576000841561117a5750858301515b600019600386901b1c1916600185901b178555611127565b600085815260208120601f198616915b828110156111c1578886015182559484019460019091019084016111a2565b50858210156111df5787850151600019600388901b60f8161c191681555b5050505050600190811b01905550565b6080815260006112026080830187610d9d565b6001600160a01b0395909516602083015250604081019290925260609091015291905056fea264697066735822122081c2479e9e19139c1f0d4f8fb0cd1fa97f010255f158ac97d5d41610e46a212264736f6c63430008140033",
  "linkReferences": {},
  "deployedLinkReferences": {}
}