{
  "_format": "hh-sol-artifact-1",
  "contractName": "WeaveRewards",
  "sourceName": "contracts/WeaveRewards.sol",
  "abi": [
    {
      "inputs": [
        {
          "internalType": "address",
          "name": "_usdc",
          "type": "address"
        },
        {
          "internalType": "address",
          "name": "_veWeave",
          "type": "address"
        }
      ],
      "stateMutability": "nonpayable",
      "type": "constructor"
    },
    {
      "inputs": [
        {
          "internalType": "address",
          "name": "owner",
          "type": "address"
        }
      ],
      "name": "OwnableInvalidOwner",
      "type": "error"
    },
    {
      "inputs": [
        {
          "internalType": "address",
          "name": "account",
          "type": "address"
        }
      ],
      "name": "OwnableUnauthorizedAccount",
      "type": "error"
    },
    {
      "inputs": [],
      "name": "ReentrancyGuardReentrantCall",
      "type": "error"
    },
    {
      "inputs": [
        {
          "internalType": "address",
          "name": "token",
          "type": "address"
        }
      ],
      "name": "SafeERC20FailedOperation",
      "type": "error"
    },
    {
      "anonymous": false,
      "inputs": [
        {
          "indexed": true,
          "internalType": "address",
          "name": "previousOwner",
          "type": "address"
        },
        {
          "indexed": true,
          "internalType": "address",
          "name": "newOwner",
          "type": "address"
        }
      ],
      "name": "OwnershipTransferred",
      "type": "event"
    },
    {
      "anonymous": false,
      "inputs": [
        {
          "indexed": true,
          "internalType": "address",
          "name": "user",
          "type": "address"
        },
        {
          "indexed": false,
          "internalType": "uint256",
          "name": "amount",
          "type": "uint256"
        }
      ],
      "name": "RewardsClaimed",
      "type": "event"
    },
    {
      "anonymous": false,
      "inputs": [
        {
          "indexed": false,
          "internalType": "uint256",
          "name": "amount",
          "type": "uint256"
        }
      ],
      "name": "RewardsDistributed",
      "type": "event"
    },
    {
      "inputs": [],
      "name": "claimRewards",
      "outputs": [],
      "stateMutability": "nonpayable",
      "type": "function"
    },
    {
      "inputs": [
        {
          "internalType": "uint256",
          "name": "usdcAmount",
          "type": "uint256"
        }
      ],
      "name": "distributeRewards",
      "outputs": [],
      "stateMutability": "nonpayable",
      "type": "function"
    },
    {
      "inputs": [],
      "name": "owner",
      "outputs": [
        {
          "internalType": "address",
          "name": "",
          "type": "address"
        }
      ],
      "stateMutability": "view",
      "type": "function"
    },
    {
      "inputs": [
        {
          "internalType": "address",
          "name": "user",
          "type": "address"
        }
      ],
      "name": "pendingRewards",
      "outputs": [
        {
          "internalType": "uint256",
          "name": "",
          "type": "uint256"
        }
      ],
      "stateMutability": "view",
      "type": "function"
    },
    {
      "inputs": [],
      "name": "renounceOwnership",
      "outputs": [],
      "stateMutability": "nonpayable",
      "type": "function"
    },
    {
      "inputs": [
        {
          "internalType": "address",
          "name": "",
          "type": "address"
        }
      ],
      "name": "rewardMask",
      "outputs": [
        {
          "internalType": "uint256",
          "name": "",
          "type": "uint256"
        }
      ],
      "stateMutability": "view",
      "type": "function"
    },
    {
      "inputs": [],
      "name": "rewardsPerVeWeave",
      "outputs": [
        {
          "internalType": "uint256",
          "name": "",
          "type": "uint256"
        }
      ],
      "stateMutability": "view",
      "type": "function"
    },
    {
      "inputs": [
        {
          "internalType": "address",
          "name": "",
          "type": "address"
        }
      ],
      "name": "totalClaimed",
      "outputs": [
        {
          "internalType": "uint256",
          "name": "",
          "type": "uint256"
        }
      ],
      "stateMutability": "view",
      "type": "function"
    },
    {
      "inputs": [],
      "name": "totalDistributed",
      "outputs": [
        {
          "internalType": "uint256",
          "name": "",
          "type": "uint256"
        }
      ],
      "stateMutability": "view",
      "type": "function"
    },
    {
      "inputs": [
        {
          "internalType": "address",
          "name": "newOwner",
          "type": "address"
        }
      ],
      "name": "transferOwnership",
      "outputs": [],
      "stateMutability": "nonpayable",
      "type": "function"
    },
    {
      "inputs": [],
      "name": "usdc",
      "outputs": [
        {
          "internalType": "contract IERC20",
          "name": "",
          "type": "address"
        }
      ],
      "stateMutability": "view",
      "type": "function"
    },
    {
      "inputs": [],
      "name": "veWeave",
      "outputs": [
        {
          "internalType": "contract IVeWeave",
          "name": "",
          "type": "address"
        }
      ],
      "stateMutability": "view",
      "type": "function"
    }
  ],
  "bytecode": "0x60c060405234801561001057600080fd5b50604051610b65380380610b6583398101604081905261002f91610106565b338061005557604051631e4fbdf760e01b81526000600482015260240160405180910390fd5b61005e8161009a565b5060017f9b779b17422d0df92223018b32b4d1fa46e071723d6817e2486d003becc55f00556001600160a01b039182166080521660a052610139565b600080546001600160a01b038381166001600160a01b0319831681178455604051919092169283917f8be0079c531659141344cd1fd0a4f28419497f9722a3daafe3b4186f6b6457e09190a35050565b80516001600160a01b038116811461010157600080fd5b919050565b6000806040838503121561011957600080fd5b610122836100ea565b9150610130602084016100ea565b90509250929050565b60805160a0516109e56101806000396000818160d9015281816102030152818161037501526104c801526000818161013501528181610434015261059c01526109e56000f3fe608060405234801561001057600080fd5b50600436106100b35760003560e01c8063715018a611610071578063715018a61461016a5780638da5cb5b14610172578063db594ff414610183578063ef5d9ae8146101a3578063efca2eed146101c3578063f2fde38b146101cc57600080fd5b80625f4554146100b857806313901600146100d457806331d7a26214610113578063372500ab146101265780633e413bee1461013057806359974e3814610157575b600080fd5b6100c160015481565b6040519081526020015b60405180910390f35b6100fb7f000000000000000000000000000000000000000000000000000000000000000081565b6040516001600160a01b0390911681526020016100cb565b6100c16101213660046108d2565b6101df565b61012e6102ea565b005b6100fb7f000000000000000000000000000000000000000000000000000000000000000081565b61012e610165366004610902565b6104bc565b61012e610647565b6000546001600160a01b03166100fb565b6100c16101913660046108d2565b60026020526000908152604090205481565b6100c16101b13660046108d2565b60036020526000908152604090205481565b6100c160045481565b61012e6101da3660046108d2565b610659565b604051635da6a21b60e11b81526001600160a01b03828116600483015260009182917f0000000000000000000000000000000000000000000000000000000000000000169063bb4d443690602401602060405180830381865afa15801561024a573d6000803e3d6000fd5b505050506040513d601f19601f8201168201806040525081019061026e919061091b565b90506000670de0b6b3a764000060015483610289919061094a565b6102939190610967565b6001600160a01b03851660009081526002602052604090205490915081116102bf575060009392505050565b6001600160a01b0384166000908152600260205260409020546102e29082610989565b949350505050565b6102f2610697565b60006102fd336101df565b90506000811161034a5760405162461bcd60e51b81526020600482015260136024820152724e6f207265776172647320746f20636c61696d60681b60448201526064015b60405180910390fd5b600154604051635da6a21b60e11b8152336004820152670de0b6b3a764000091906001600160a01b037f0000000000000000000000000000000000000000000000000000000000000000169063bb4d443690602401602060405180830381865afa1580156103bc573d6000803e3d6000fd5b505050506040513d601f19601f820116820180604052508101906103e0919061091b565b6103ea919061094a565b6103f49190610967565b3360009081526002602090815260408083209390935560039052908120805483929061042190849061099c565b9091555061045b90506001600160a01b037f00000000000000000000000000000000000000000000000000000000000000001633836106c5565b60405181815233907ffc30cddea38e2bf4d6ea7d3f9ed3b6ad7f176419f4963bd81318067a4aee73fe9060200160405180910390a2506104ba60017f9b779b17422d0df92223018b32b4d1fa46e071723d6817e2486d003becc55f0055565b565b6104c46106ff565b60007f00000000000000000000000000000000000000000000000000000000000000006001600160a01b03166388b180456040518163ffffffff1660e01b8152600401602060405180830381865afa158015610524573d6000803e3d6000fd5b505050506040513d601f19601f82011682018060405250810190610548919061091b565b90506000811161058f5760405162461bcd60e51b81526020600482015260126024820152714e6f207665574541564520686f6c6465727360701b6044820152606401610341565b6105c46001600160a01b037f00000000000000000000000000000000000000000000000000000000000000001633308561072c565b806105d783670de0b6b3a764000061094a565b6105e19190610967565b600160008282546105f2919061099c565b92505081905550816004600082825461060b919061099c565b90915550506040518281527f6d1c76d614228b523baa4dcd9539e2c713b54ff4ab3ff2d1627e7f6cd32be4429060200160405180910390a15050565b61064f6106ff565b6104ba6000610768565b6106616106ff565b6001600160a01b03811661068b57604051631e4fbdf760e01b815260006004820152602401610341565b61069481610768565b50565b61069f6107b8565b60027f9b779b17422d0df92223018b32b4d1fa46e071723d6817e2486d003becc55f0055565b6106d283838360016107fa565b6106fa57604051635274afe760e01b81526001600160a01b0384166004820152602401610341565b505050565b6000546001600160a01b031633146104ba5760405163118cdaa760e01b8152336004820152602401610341565b61073a848484846001610860565b61076257604051635274afe760e01b81526001600160a01b0385166004820152602401610341565b50505050565b600080546001600160a01b038381166001600160a01b0319831681178455604051919092169283917f8be0079c531659141344cd1fd0a4f28419497f9722a3daafe3b4186f6b6457e09190a35050565b7f9b779b17422d0df92223018b32b4d1fa46e071723d6817e2486d003becc55f00546002036104ba57604051633ee5aeb560e01b815260040160405180910390fd5b60405163a9059cbb60e01b60008181526001600160a01b038616600452602485905291602083604481808b5af192506001600051148316610854578383151615610847573d6000823e3d81fd5b6000873b113d1516831692505b60405250949350505050565b6040516323b872dd60e01b60008181526001600160a01b038781166004528616602452604485905291602083606481808c5af1925060016000511483166108c05783831516156108b3573d6000823e3d81fd5b6000883b113d1516831692505b60405250600060605295945050505050565b6000602082840312156108e457600080fd5b81356001600160a01b03811681146108fb57600080fd5b9392505050565b60006020828403121561091457600080fd5b5035919050565b60006020828403121561092d57600080fd5b5051919050565b634e487b7160e01b600052601160045260246000fd5b808202811582820484141761096157610961610934565b92915050565b60008261098457634e487b7160e01b600052601260045260246000fd5b500490565b8181038181111561096157610961610934565b808201808211156109615761096161093456fea2646970667358221220fc952af6573f28c9ff9ccba82f93614e1f960a10d72457fba7d192d9630dac9464736f6c63430008140033",
  "linkReferences": {},
  "deployedLinkReferences": {}
}