{
  "_format": "hh-sol-artifact-1",
  "contractName": "TucanaStrategy",
  "sourceName": "contracts/strategies/TucanaStrategy.sol",
  "abi": [
    {
      "inputs": [
        {
          "internalType": "address",
          "name": "_depositToken",
          "type": "address"
        },
        {
          "internalType": "address",
          "name": "_tucanaVault",
          "type": "address"
        },
        {
          "internalType": "address",
          "name": "_weaveVault",
          "type": "address"
        }
      ],
      "stateMutability": "nonpayable",
      "type": "constructor"
    },
    {
      "inputs": [
        {
          "internalType": "address",
          "name": "owner",
          "type": "address"
        }
      ],
      "name": "OwnableInvalidOwner",
      "type": "error"
    },
    {
      "inputs": [
        {
          "internalType": "address",
          "name": "account",
          "type": "address"
        }
      ],
      "name": "OwnableUnauthorizedAccount",
      "type": "error"
    },
    {
      "inputs": [
        {
          "internalType": "address",
          "name": "token",
          "type": "address"
        }
      ],
      "name": "SafeERC20FailedOperation",
      "type": "error"
    },
    {
      "anonymous": false,
      "inputs": [
        {
          "indexed": true,
          "internalType": "address",
          "name": "previousOwner",
          "type": "address"
        },
        {
          "indexed": true,
          "internalType": "address",
          "name": "newOwner",
          "type": "address"
        }
      ],
      "name": "OwnershipTransferred",
      "type": "event"
    },
    {
      "anonymous": false,
      "inputs": [
        {
          "indexed": false,
          "internalType": "uint256",
          "name": "amount",
          "type": "uint256"
        }
      ],
      "name": "StrategyDeposited",
      "type": "event"
    },
    {
      "anonymous": false,
      "inputs": [
        {
          "indexed": false,
          "internalType": "uint256",
          "name": "amount",
          "type": "uint256"
        }
      ],
      "name": "StrategyHarvested",
      "type": "event"
    },
    {
      "anonymous": false,
      "inputs": [
        {
          "indexed": false,
          "internalType": "uint256",
          "name": "amount",
          "type": "uint256"
        }
      ],
      "name": "StrategyWithdrawn",
      "type": "event"
    },
    {
      "inputs": [
        {
          "internalType": "uint256",
          "name": "amount",
          "type": "uint256"
        }
      ],
      "name": "deposit",
      "outputs": [],
      "stateMutability": "nonpayable",
      "type": "function"
    },
    {
      "inputs": [],
      "name": "depositToken",
      "outputs": [
        {
          "internalType": "contract IERC20",
          "name": "",
          "type": "address"
        }
      ],
      "stateMutability": "view",
      "type": "function"
    },
    {
      "inputs": [],
      "name": "getPendingYield",
      "outputs": [
        {
          "internalType": "uint256",
          "name": "",
          "type": "uint256"
        }
      ],
      "stateMutability": "view",
      "type": "function"
    },
    {
      "inputs": [],
      "name": "harvest",
      "outputs": [
        {
          "internalType": "uint256",
          "name": "",
          "type": "uint256"
        }
      ],
      "stateMutability": "nonpayable",
      "type": "function"
    },
    {
      "inputs": [],
      "name": "owner",
      "outputs": [
        {
          "internalType": "address",
          "name": "",
          "type": "address"
        }
      ],
      "stateMutability": "view",
      "type": "function"
    },
    {
      "inputs": [],
      "name": "renounceOwnership",
      "outputs": [],
      "stateMutability": "nonpayable",
      "type": "function"
    },
    {
      "inputs": [
        {
          "internalType": "address",
          "name": "_weaveVault",
          "type": "address"
        }
      ],
      "name": "setWeaveVault",
      "outputs": [],
      "stateMutability": "nonpayable",
      "type": "function"
    },
    {
      "inputs": [
        {
          "internalType": "address",
          "name": "newOwner",
          "type": "address"
        }
      ],
      "name": "transferOwnership",
      "outputs": [],
      "stateMutability": "nonpayable",
      "type": "function"
    },
    {
      "inputs": [],
      "name": "tucanaVault",
      "outputs": [
        {
          "internalType": "contract ITucana",
          "name": "",
          "type": "address"
        }
      ],
      "stateMutability": "view",
      "type": "function"
    },
    {
      "inputs": [],
      "name": "weaveVault",
      "outputs": [
        {
          "internalType": "address",
          "name": "",
          "type": "address"
        }
      ],
      "stateMutability": "view",
      "type": "function"
    },
    {
      "inputs": [
        {
          "internalType": "uint256",
          "name": "amount",
          "type": "uint256"
        }
      ],
      "name": "withdraw",
      "outputs": [],
      "stateMutability": "nonpayable",
      "type": "function"
    }
  ],
  "bytecode": "0x60c060405234801561001057600080fd5b50604051610af2380380610af283398101604081905261002f916100f9565b338061005557604051631e4fbdf760e01b81526000600482015260240160405180910390fd5b61005e8161008d565b506001600160a01b0392831660805290821660a052600180546001600160a01b0319169190921617905561013c565b600080546001600160a01b038381166001600160a01b0319831681178455604051919092169283917f8be0079c531659141344cd1fd0a4f28419497f9722a3daafe3b4186f6b6457e09190a35050565b80516001600160a01b03811681146100f457600080fd5b919050565b60008060006060848603121561010e57600080fd5b610117846100dd565b9250610125602085016100dd565b9150610133604085016100dd565b90509250925092565b60805160a05161095961019960003960008181610165015281816101c5015281816102860152818161038c015281816104f5015261053001526000818161013e015281816102fa0152818161042701526104d301526109596000f3fe608060405234801561001057600080fd5b50600436106100a95760003560e01c8063a3af62d311610071578063a3af62d314610113578063b6b55f2514610126578063c89039c514610139578063ed127c4a14610160578063f2fde38b14610187578063f7e62ae01461019a57600080fd5b80631f2413ed146100ae5780632e1a7d4d146100c95780634641257d146100de578063715018a6146100e65780638da5cb5b146100ee575b600080fd5b6100b66101ad565b6040519081526020015b60405180910390f35b6100dc6100d7366004610877565b61023d565b005b6100b661035b565b6100dc610488565b6000546001600160a01b03165b6040516001600160a01b0390911681526020016100c0565b6001546100fb906001600160a01b031681565b6100dc610134366004610877565b61049c565b6100fb7f000000000000000000000000000000000000000000000000000000000000000081565b6100fb7f000000000000000000000000000000000000000000000000000000000000000081565b6100dc610195366004610890565b6105c5565b6100dc6101a8366004610890565b610603565b6040516325d2a3f360e01b81523060048201526000907f00000000000000000000000000000000000000000000000000000000000000006001600160a01b0316906325d2a3f390602401602060405180830381865afa158015610214573d6000803e3d6000fd5b505050506040513d601f19601f8201168201806040525081019061023891906108c0565b905090565b6001546001600160a01b031633146102705760405162461bcd60e51b8152600401610267906108d9565b60405180910390fd5b604051639c8f9f2360e01b8152600481018290527f00000000000000000000000000000000000000000000000000000000000000006001600160a01b031690639c8f9f2390602401600060405180830381600087803b1580156102d257600080fd5b505af11580156102e6573d6000803e3d6000fd5b505060015461032492506001600160a01b037f000000000000000000000000000000000000000000000000000000000000000081169250168361062d565b6040518181527f35c4c11317fd96ffa30da51e0a4b85219c4b0f56c1507c3afefe79de0c47ef54906020015b60405180910390a150565b6001546000906001600160a01b031633146103885760405162461bcd60e51b8152600401610267906108d9565b60007f00000000000000000000000000000000000000000000000000000000000000006001600160a01b0316632ef942576040518163ffffffff1660e01b81526004016020604051808303816000875af11580156103ea573d6000803e3d6000fd5b505050506040513d601f19601f8201168201806040525081019061040e91906108c0565b9050801561045057600154610450906001600160a01b037f0000000000000000000000000000000000000000000000000000000000000000811691168361062d565b6040518181527f9c6960ca980a9521fad62fa5dd8538952b668c7f826b57272b3240f5a22605b69060200160405180910390a1919050565b610490610667565b61049a6000610694565b565b6001546001600160a01b031633146104c65760405162461bcd60e51b8152600401610267906108d9565b61051a6001600160a01b037f0000000000000000000000000000000000000000000000000000000000000000167f0000000000000000000000000000000000000000000000000000000000000000836106e4565b6040516328e32c8560e11b8152600481018290527f00000000000000000000000000000000000000000000000000000000000000006001600160a01b0316906351c6590a90602401600060405180830381600087803b15801561057c57600080fd5b505af1158015610590573d6000803e3d6000fd5b505050507f767a00809f9cc45839785933eecaa39b1c134dd5a99507ad60f2c2545c6316448160405161035091815260200190565b6105cd610667565b6001600160a01b0381166105f757604051631e4fbdf760e01b815260006004820152602401610267565b61060081610694565b50565b61060b610667565b600180546001600160a01b0319166001600160a01b0392909216919091179055565b61063a8383836001610774565b61066257604051635274afe760e01b81526001600160a01b0384166004820152602401610267565b505050565b6000546001600160a01b0316331461049a5760405163118cdaa760e01b8152336004820152602401610267565b600080546001600160a01b038381166001600160a01b0319831681178455604051919092169283917f8be0079c531659141344cd1fd0a4f28419497f9722a3daafe3b4186f6b6457e09190a35050565b604051636eb1769f60e11b81523060048201526001600160a01b0383811660248301526000919085169063dd62ed3e90604401602060405180830381865afa158015610734573d6000803e3d6000fd5b505050506040513d601f19601f8201168201806040525081019061075891906108c0565b905061076e848461076985856108fc565b6107da565b50505050565b60405163a9059cbb60e01b60008181526001600160a01b038616600452602485905291602083604481808b5af1925060016000511483166107ce5783831516156107c1573d6000823e3d81fd5b6000873b113d1516831692505b60405250949350505050565b6107e7838383600061082a565b610662576107f983836000600161082a565b61082157604051635274afe760e01b81526001600160a01b0384166004820152602401610267565b61063a83838360015b60405163095ea7b360e01b60008181526001600160a01b038616600452602485905291602083604481808b5af1925060016000511483166107ce5783831516156107c1573d6000823e3d81fd5b60006020828403121561088957600080fd5b5035919050565b6000602082840312156108a257600080fd5b81356001600160a01b03811681146108b957600080fd5b9392505050565b6000602082840312156108d257600080fd5b5051919050565b602080825260099082015268139bdd081d985d5b1d60ba1b604082015260600190565b8082018082111561091d57634e487b7160e01b600052601160045260246000fd5b9291505056fea26469706673582212200de66f2e768ec1058ec10903e6081a449e30a96dc506a4ac059cf7b6198fdcdd64736f6c63430008140033",
  "linkReferences": {},
  "deployedLinkReferences": {}
}