{
  "_format": "hh-sol-artifact-1",
  "contractName": "VeWeave",
  "sourceName": "contracts/VeWeave.sol",
  "abi": [
    {
      "inputs": [
        {
          "internalType": "address",
          "name": "_weaveToken",
          "type": "address"
        }
      ],
      "stateMutability": "nonpayable",
      "type": "constructor"
    },
    {
      "inputs": [],
      "name": "ReentrancyGuardReentrantCall",
      "type": "error"
    },
    {
      "inputs": [
        {
          "internalType": "address",
          "name": "token",
          "type": "address"
        }
      ],
      "name": "SafeERC20FailedOperation",
      "type": "error"
    },
    {
      "anonymous": false,
      "inputs": [
        {
          "indexed": true,
          "internalType": "address",
          "name": "user",
          "type": "address"
        },
        {
          "indexed": false,
          "internalType": "uint256",
          "name": "newDuration",
          "type": "uint256"
        }
      ],
      "name": "LockExtended",
      "type": "event"
    },
    {
      "anonymous": false,
      "inputs": [
        {
          "indexed": true,
          "internalType": "address",
          "name": "user",
          "type": "address"
        },
        {
          "indexed": false,
          "internalType": "uint256",
          "name": "amount",
          "type": "uint256"
        },
        {
          "indexed": false,
          "internalType": "uint256",
          "name": "duration",
          "type": "uint256"
        },
        {
          "indexed": false,
          "internalType": "uint256",
          "name": "veBalance",
          "type": "uint256"
        }
      ],
      "name": "Locked",
      "type": "event"
    },
    {
      "anonymous": false,
      "inputs": [
        {
          "indexed": true,
          "internalType": "address",
          "name": "user",
          "type": "address"
        },
        {
          "indexed": false,
          "internalType": "uint256",
          "name": "amount",
          "type": "uint256"
        }
      ],
      "name": "Unlocked",
      "type": "event"
    },
    {
      "inputs": [
        {
          "internalType": "uint256",
          "name": "",
          "type": "uint256"
        }
      ],
      "name": "durations",
      "outputs": [
        {
          "internalType": "uint256",
          "name": "",
          "type": "uint256"
        }
      ],
      "stateMutability": "view",
      "type": "function"
    },
    {
      "inputs": [],
      "name": "getTotalVotingPower",
      "outputs": [
        {
          "internalType": "uint256",
          "name": "",
          "type": "uint256"
        }
      ],
      "stateMutability": "view",
      "type": "function"
    },
    {
      "inputs": [
        {
          "internalType": "address",
          "name": "user",
          "type": "address"
        }
      ],
      "name": "getUserLock",
      "outputs": [
        {
          "components": [
            {
              "internalType": "uint256",
              "name": "amount",
              "type": "uint256"
            },
            {
              "internalType": "uint256",
              "name": "lockEnd",
              "type": "uint256"
            },
            {
              "internalType": "uint256",
              "name": "veBalance",
              "type": "uint256"
            }
          ],
          "internalType": "struct VeWeave.LockPosition",
          "name": "",
          "type": "tuple"
        }
      ],
      "stateMutability": "view",
      "type": "function"
    },
    {
      "inputs": [
        {
          "internalType": "address",
          "name": "user",
          "type": "address"
        }
      ],
      "name": "getVotingPower",
      "outputs": [
        {
          "internalType": "uint256",
          "name": "",
          "type": "uint256"
        }
      ],
      "stateMutability": "view",
      "type": "function"
    },
    {
      "inputs": [
        {
          "internalType": "uint256",
          "name": "amount",
          "type": "uint256"
        },
        {
          "internalType": "uint256",
          "name": "durationIndex",
          "type": "uint256"
        }
      ],
      "name": "lock",
      "outputs": [],
      "stateMutability": "nonpayable",
      "type": "function"
    },
    {
      "inputs": [
        {
          "internalType": "address",
          "name": "",
          "type": "address"
        }
      ],
      "name": "locks",
      "outputs": [
        {
          "internalType": "uint256",
          "name": "amount",
          "type": "uint256"
        },
        {
          "internalType": "uint256",
          "name": "lockEnd",
          "type": "uint256"
        },
        {
          "internalType": "uint256",
          "name": "veBalance",
          "type": "uint256"
        }
      ],
      "stateMutability": "view",
      "type": "function"
    },
    {
      "inputs": [
        {
          "internalType": "uint256",
          "name": "",
          "type": "uint256"
        }
      ],
      "name": "multipliers",
      "outputs": [
        {
          "internalType": "uint256",
          "name": "",
          "type": "uint256"
        }
      ],
      "stateMutability": "view",
      "type": "function"
    },
    {
      "inputs": [],
      "name": "totalVeSupply",
      "outputs": [
        {
          "internalType": "uint256",
          "name": "",
          "type": "uint256"
        }
      ],
      "stateMutability": "view",
      "type": "function"
    },
    {
      "inputs": [
        {
          "internalType": "address",
          "name": "",
          "type": "address"
        },
        {
          "internalType": "uint256",
          "name": "",
          "type": "uint256"
        }
      ],
      "name": "transfer",
      "outputs": [
        {
          "internalType": "bool",
          "name": "",
          "type": "bool"
        }
      ],
      "stateMutability": "pure",
      "type": "function"
    },
    {
      "inputs": [
        {
          "internalType": "address",
          "name": "",
          "type": "address"
        },
        {
          "internalType": "address",
          "name": "",
          "type": "address"
        },
        {
          "internalType": "uint256",
          "name": "",
          "type": "uint256"
        }
      ],
      "name": "transferFrom",
      "outputs": [
        {
          "internalType": "bool",
          "name": "",
          "type": "bool"
        }
      ],
      "stateMutability": "pure",
      "type": "function"
    },
    {
      "inputs": [],
      "name": "unlock",
      "outputs": [],
      "stateMutability": "nonpayable",
      "type": "function"
    },
    {
      "inputs": [],
      "name": "weaveToken",
      "outputs": [
        {
          "internalType": "contract IERC20",
          "name": "",
          "type": "address"
        }
      ],
      "stateMutability": "view",
      "type": "function"
    }
  ],
  "bytecode": "0x6101406040526276a70060a090815262ed4e0060c0526301e1338060e0526303c2670061010052630784ce006101205261003d9060029060056100da565b506040805160a081018252601981526032602082015260649181019190915260c860608201526101906080820152610079906007906005610120565b5034801561008657600080fd5b50604051610bf7380380610bf78339810160408190526100a591610169565b60017f9b779b17422d0df92223018b32b4d1fa46e071723d6817e2486d003becc55f00556001600160a01b0316608052610199565b8260058101928215610110579160200282015b82811115610110578251829063ffffffff169055916020019190600101906100ed565b5061011c929150610154565b5090565b8260058101928215610110579160200282015b82811115610110578251829061ffff16905591602001919060010190610133565b5b8082111561011c5760008155600101610155565b60006020828403121561017b57600080fd5b81516001600160a01b038116811461019257600080fd5b9392505050565b608051610a356101c2600039600081816101420152818161036401526105e50152610a356000f3fe608060405234801561001057600080fd5b50600436106100b45760003560e01c806388b180451161007157806388b18045146101c5578063a69df4b5146101ce578063a9059cbb146101d6578063ac7fc263146101e4578063bb4d4436146101f7578063bc20a7af1461020a57600080fd5b806311acc1a7146100b95780631338736f146100d05780632140fb40146100e557806323b872dd1461011a578063257310671461013d5780635de9a1371461017c575b600080fd5b6000545b6040519081526020015b60405180910390f35b6100e36100de36600461086f565b61021d565b005b6100f86100f33660046108ad565b610455565b60408051825181526020808401519082015291810151908201526060016100c7565b61012d6101283660046108cf565b6104ba565b60405190151581526020016100c7565b6101647f000000000000000000000000000000000000000000000000000000000000000081565b6040516001600160a01b0390911681526020016100c7565b6101aa61018a3660046108ad565b600160208190526000918252604090912080549181015460029091015483565b604080519384526020840192909252908201526060016100c7565b6100bd60005481565b6100e3610505565b61012d61012836600461090b565b6100bd6101f2366004610935565b610665565b6100bd6102053660046108ad565b61067c565b6100bd610218366004610935565b6106c5565b6102256106d5565b6000821161026f5760405162461bcd60e51b81526020600482015260126024820152710416d6f756e74206d757374206265203e20360741b60448201526064015b60405180910390fd5b600581106102b85760405162461bcd60e51b8152602060048201526016602482015275092dcecc2d8d2c840c8eae4c2e8d2dedc40d2dcc8caf60531b6044820152606401610266565b336000908152600160205260409020541561030b5760405162461bcd60e51b81526020600482015260136024820152724c6f636b20616c72656164792065786973747360681b6044820152606401610266565b6000600282600581106103205761032061094e565b015490506000600783600581106103395761033961094e565b015490506000606461034b838761097a565b6103559190610997565b905061038c6001600160a01b037f0000000000000000000000000000000000000000000000000000000000000000163330886106f1565b604051806060016040528086815260200184426103a991906109b9565b81526020908101839052336000908152600180835260408083208551815593850151918401919091559290920151600290910155805482919081906103ef9084906109b9565b9091555050604080518681526020810185905290810182905233907f44cebfefa4561bee5b61d675ccfd8dc9969fff9cc15e7a4eccccd62af94f9c119060600160405180910390a250505061045160016000805160206109e083398151915255565b5050565b61047960405180606001604052806000815260200160008152602001600081525090565b506001600160a01b03166000908152600160208181526040928390208351606081018552815481529281015491830191909152600201549181019190915290565b60405162461bcd60e51b815260206004820152601960248201527f766557454156453a206e6f6e2d7472616e7366657261626c65000000000000006044820152600090606401610266565b61050d6106d5565b336000908152600160205260409020805461055a5760405162461bcd60e51b815260206004820152600d60248201526c139bc81b1bd8dac8199bdd5b99609a1b6044820152606401610266565b80600101544210156105a15760405162461bcd60e51b815260206004820152601060248201526f131bd8dac81b9bdd08195e1c1a5c995960821b6044820152606401610266565b805460028201546000805482919081906105bc9084906109cc565b9091555050336000818152600160208190526040822082815590810182905560020155610614907f00000000000000000000000000000000000000000000000000000000000000006001600160a01b0316908461072d565b60405182815233907f0f0bc5b519ddefdd8e5f9e6423433aa2b869738de2ae34d58ebc796fc749fa0d9060200160405180910390a250505061066360016000805160206109e083398151915255565b565b6007816005811061067557600080fd5b0154905081565b6001600160a01b03811660009081526001602081905260408220015442106106a657506000919050565b506001600160a01b031660009081526001602052604090206002015490565b6002816005811061067557600080fd5b6106dd610767565b60026000805160206109e083398151915255565b6106ff848484846001610797565b61072757604051635274afe760e01b81526001600160a01b0385166004820152602401610266565b50505050565b61073a8383836001610809565b61076257604051635274afe760e01b81526001600160a01b0384166004820152602401610266565b505050565b6000805160206109e08339815191525460020361066357604051633ee5aeb560e01b815260040160405180910390fd5b6040516323b872dd60e01b60008181526001600160a01b038781166004528616602452604485905291602083606481808c5af1925060016000511483166107f75783831516156107ea573d6000823e3d81fd5b6000883b113d1516831692505b60405250600060605295945050505050565b60405163a9059cbb60e01b60008181526001600160a01b038616600452602485905291602083604481808b5af192506001600051148316610863578383151615610856573d6000823e3d81fd5b6000873b113d1516831692505b60405250949350505050565b6000806040838503121561088257600080fd5b50508035926020909101359150565b80356001600160a01b03811681146108a857600080fd5b919050565b6000602082840312156108bf57600080fd5b6108c882610891565b9392505050565b6000806000606084860312156108e457600080fd5b6108ed84610891565b92506108fb60208501610891565b9150604084013590509250925092565b6000806040838503121561091e57600080fd5b61092783610891565b946020939093013593505050565b60006020828403121561094757600080fd5b5035919050565b634e487b7160e01b600052603260045260246000fd5b634e487b7160e01b600052601160045260246000fd5b808202811582820484141761099157610991610964565b92915050565b6000826109b457634e487b7160e01b600052601260045260246000fd5b500490565b8082018082111561099157610991610964565b818103818111156109915761099161096456fe9b779b17422d0df92223018b32b4d1fa46e071723d6817e2486d003becc55f00a26469706673582212203fc1a474bf2512c58f8d774f351c1a39599060ef3fd7039efadaa3ebfca7cc5e64736f6c63430008140033",
  "linkReferences": {},
  "deployedLinkReferences": {}
}