{
  "_format": "hh-sol-artifact-1",
  "contractName": "WeaveGauge",
  "sourceName": "contracts/WeaveGauge.sol",
  "abi": [
    {
      "inputs": [
        {
          "internalType": "address",
          "name": "_veWeave",
          "type": "address"
        }
      ],
      "stateMutability": "nonpayable",
      "type": "constructor"
    },
    {
      "inputs": [
        {
          "internalType": "address",
          "name": "owner",
          "type": "address"
        }
      ],
      "name": "OwnableInvalidOwner",
      "type": "error"
    },
    {
      "inputs": [
        {
          "internalType": "address",
          "name": "account",
          "type": "address"
        }
      ],
      "name": "OwnableUnauthorizedAccount",
      "type": "error"
    },
    {
      "anonymous": false,
      "inputs": [
        {
          "indexed": false,
          "internalType": "string",
          "name": "name",
          "type": "string"
        },
        {
          "indexed": false,
          "internalType": "address",
          "name": "strategy",
          "type": "address"
        }
      ],
      "name": "GaugeAdded",
      "type": "event"
    },
    {
      "anonymous": false,
      "inputs": [
        {
          "indexed": true,
          "internalType": "address",
          "name": "previousOwner",
          "type": "address"
        },
        {
          "indexed": true,
          "internalType": "address",
          "name": "newOwner",
          "type": "address"
        }
      ],
      "name": "OwnershipTransferred",
      "type": "event"
    },
    {
      "anonymous": false,
      "inputs": [
        {
          "indexed": true,
          "internalType": "address",
          "name": "user",
          "type": "address"
        },
        {
          "indexed": false,
          "internalType": "uint256",
          "name": "gaugeId",
          "type": "uint256"
        },
        {
          "indexed": false,
          "internalType": "uint256",
          "name": "amount",
          "type": "uint256"
        }
      ],
      "name": "Voted",
      "type": "event"
    },
    {
      "inputs": [],
      "name": "EPOCH_DURATION",
      "outputs": [
        {
          "internalType": "uint256",
          "name": "",
          "type": "uint256"
        }
      ],
      "stateMutability": "view",
      "type": "function"
    },
    {
      "inputs": [
        {
          "internalType": "string",
          "name": "name",
          "type": "string"
        },
        {
          "internalType": "address",
          "name": "strategy",
          "type": "address"
        }
      ],
      "name": "addGauge",
      "outputs": [],
      "stateMutability": "nonpayable",
      "type": "function"
    },
    {
      "inputs": [],
      "name": "epochEnd",
      "outputs": [
        {
          "internalType": "uint256",
          "name": "",
          "type": "uint256"
        }
      ],
      "stateMutability": "view",
      "type": "function"
    },
    {
      "inputs": [
        {
          "internalType": "uint256",
          "name": "",
          "type": "uint256"
        }
      ],
      "name": "gauges",
      "outputs": [
        {
          "internalType": "string",
          "name": "name",
          "type": "string"
        },
        {
          "internalType": "address",
          "name": "strategy",
          "type": "address"
        },
        {
          "internalType": "uint256",
          "name": "totalVotes",
          "type": "uint256"
        }
      ],
      "stateMutability": "view",
      "type": "function"
    },
    {
      "inputs": [
        {
          "internalType": "uint256",
          "name": "id",
          "type": "uint256"
        }
      ],
      "name": "getGauge",
      "outputs": [
        {
          "components": [
            {
              "internalType": "string",
              "name": "name",
              "type": "string"
            },
            {
              "internalType": "address",
              "name": "strategy",
              "type": "address"
            },
            {
              "internalType": "uint256",
              "name": "totalVotes",
              "type": "uint256"
            }
          ],
          "internalType": "struct WeaveGauge.Gauge",
          "name": "",
          "type": "tuple"
        }
      ],
      "stateMutability": "view",
      "type": "function"
    },
    {
      "inputs": [],
      "name": "getGaugeCount",
      "outputs": [
        {
          "internalType": "uint256",
          "name": "",
          "type": "uint256"
        }
      ],
      "stateMutability": "view",
      "type": "function"
    },
    {
      "inputs": [],
      "name": "owner",
      "outputs": [
        {
          "internalType": "address",
          "name": "",
          "type": "address"
        }
      ],
      "stateMutability": "view",
      "type": "function"
    },
    {
      "inputs": [],
      "name": "renounceOwnership",
      "outputs": [],
      "stateMutability": "nonpayable",
      "type": "function"
    },
    {
      "inputs": [
        {
          "internalType": "address",
          "name": "newOwner",
          "type": "address"
        }
      ],
      "name": "transferOwnership",
      "outputs": [],
      "stateMutability": "nonpayable",
      "type": "function"
    },
    {
      "inputs": [
        {
          "internalType": "address",
          "name": "",
          "type": "address"
        }
      ],
      "name": "userTotalVotes",
      "outputs": [
        {
          "internalType": "uint256",
          "name": "",
          "type": "uint256"
        }
      ],
      "stateMutability": "view",
      "type": "function"
    },
    {
      "inputs": [
        {
          "internalType": "address",
          "name": "",
          "type": "address"
        },
        {
          "internalType": "uint256",
          "name": "",
          "type": "uint256"
        }
      ],
      "name": "userVotes",
      "outputs": [
        {
          "internalType": "uint256",
          "name": "",
          "type": "uint256"
        }
      ],
      "stateMutability": "view",
      "type": "function"
    },
    {
      "inputs": [],
      "name": "veWeave",
      "outputs": [
        {
          "internalType": "contract IVeWeave",
          "name": "",
          "type": "address"
        }
      ],
      "stateMutability": "view",
      "type": "function"
    },
    {
      "inputs": [
        {
          "internalType": "uint256",
          "name": "gaugeId",
          "type": "uint256"
        },
        {
          "internalType": "uint256",
          "name": "weightBasisPoints",
          "type": "uint256"
        }
      ],
      "name": "vote",
      "outputs": [],
      "stateMutability": "nonpayable",
      "type": "function"
    }
  ],
  "bytecode": "0x60a060405234801561001057600080fd5b50604051610df4380380610df483398101604081905261002f916100d2565b338061005557604051631e4fbdf760e01b81526000600482015260240160405180910390fd5b61005e81610082565b506001600160a01b03811660805261007962093a8042610102565b60025550610129565b600080546001600160a01b038381166001600160a01b0319831681178455604051919092169283917f8be0079c531659141344cd1fd0a4f28419497f9722a3daafe3b4186f6b6457e09190a35050565b6000602082840312156100e457600080fd5b81516001600160a01b03811681146100fb57600080fd5b9392505050565b8082018082111561012357634e487b7160e01b600052601160045260246000fd5b92915050565b608051610caa61014a6000396000818160d901526105a30152610caa6000f3fe608060405234801561001057600080fd5b50600436106100cf5760003560e01c80638da5cb5b1161008c578063afaa701f11610066578063afaa701f146101ba578063b0539187146101da578063b384abef146101fc578063f2fde38b1461020f57600080fd5b80638da5cb5b146101975780639c28df3e146101a8578063a70b9f0c146101b057600080fd5b806313901600146100d457806321bd7d4a146101185780633ad6e55f146101465780634bb6b58f1461015b578063715018a6146101645780638b3511f71461016c575b600080fd5b6100fb7f000000000000000000000000000000000000000000000000000000000000000081565b6040516001600160a01b0390911681526020015b60405180910390f35b61013861012636600461083d565b60046020526000908152604090205481565b60405190815260200161010f565b610159610154366004610875565b610222565b005b61013860025481565b6101596102fe565b61013861017a366004610937565b600360209081526000928352604080842090915290825290205481565b6000546001600160a01b03166100fb565b600154610138565b61013862093a8081565b6101cd6101c8366004610961565b610312565b60405161010f91906109c0565b6101ed6101e8366004610961565b610421565b60405161010f93929190610a07565b61015961020a366004610a35565b6104ed565b61015961021d36600461083d565b610766565b61022a6107a4565b604080516060810182528381526001600160a01b038316602082015260009181018290526001805480820182559252805190916003027fb10e2d527612073b26eecdfd717e6a320cf44b4afac2b0732d9fcbe2b7fa0cf60190819061028f9082610ae0565b5060208201516001820180546001600160a01b0319166001600160a01b03909216919091179055604091820151600290910155517fff8a1712c5a3930d7a7b8498fe250767248f034a131ba432b02cb0d4ccb604f8906102f29084908490610ba0565b60405180910390a15050565b6103066107a4565b61031060006107d1565b565b61033f60405180606001604052806060815260200160006001600160a01b03168152602001600081525090565b6001828154811061035257610352610bca565b906000526020600020906003020160405180606001604052908160008201805461037b90610a57565b80601f01602080910402602001604051908101604052809291908181526020018280546103a790610a57565b80156103f45780601f106103c9576101008083540402835291602001916103f4565b820191906000526020600020905b8154815290600101906020018083116103d757829003601f168201915b505050918352505060018201546001600160a01b0316602082015260029091015460409091015292915050565b6001818154811061043157600080fd5b906000526020600020906003020160009150905080600001805461045490610a57565b80601f016020809104026020016040519081016040528092919081815260200182805461048090610a57565b80156104cd5780601f106104a2576101008083540402835291602001916104cd565b820191906000526020600020905b8154815290600101906020018083116104b057829003601f168201915b50505050600183015460029093015491926001600160a01b031691905083565b60015482106105335760405162461bcd60e51b815260206004820152600d60248201526c496e76616c696420676175676560981b60448201526064015b60405180910390fd5b6127108111156105705760405162461bcd60e51b81526020600482015260086024820152674d6178203130302560c01b604482015260640161052a565b60025442111561058b5761058762093a8042610bf6565b6002555b604051635da6a21b60e11b81523360048201526000907f00000000000000000000000000000000000000000000000000000000000000006001600160a01b03169063bb4d443690602401602060405180830381865afa1580156105f2573d6000803e3d6000fd5b505050506040513d601f19601f820116820180604052508101906106169190610c0f565b90506000811161065a5760405162461bcd60e51b815260206004820152600f60248201526e2737903b37ba34b733903837bbb2b960891b604482015260640161052a565b60006127106106698484610c28565b6106739190610c3f565b336000908152600360209081526040808320888452909152902054600180549293509091869081106106a7576106a7610bca565b906000526020600020906003020160020160008282546106c79190610c61565b90915550503360009081526003602090815260408083208784529091529020819055600180548291908690811061070057610700610bca565b906000526020600020906003020160020160008282546107209190610bf6565b9091555050604080518581526020810183905233917fea66f58e474bc09f580000e81f31b334d171db387d0c6098ba47bd897741679b910160405180910390a250505050565b61076e6107a4565b6001600160a01b03811661079857604051631e4fbdf760e01b81526000600482015260240161052a565b6107a1816107d1565b50565b6000546001600160a01b031633146103105760405163118cdaa760e01b815233600482015260240161052a565b600080546001600160a01b038381166001600160a01b0319831681178455604051919092169283917f8be0079c531659141344cd1fd0a4f28419497f9722a3daafe3b4186f6b6457e09190a35050565b80356001600160a01b038116811461083857600080fd5b919050565b60006020828403121561084f57600080fd5b61085882610821565b9392505050565b634e487b7160e01b600052604160045260246000fd5b6000806040838503121561088857600080fd5b823567ffffffffffffffff808211156108a057600080fd5b818501915085601f8301126108b457600080fd5b8135818111156108c6576108c661085f565b604051601f8201601f19908116603f011681019083821181831017156108ee576108ee61085f565b8160405282815288602084870101111561090757600080fd5b82602086016020830137600060208483010152809650505050505061092e60208401610821565b90509250929050565b6000806040838503121561094a57600080fd5b61095383610821565b946020939093013593505050565b60006020828403121561097357600080fd5b5035919050565b6000815180845260005b818110156109a057602081850181015186830182015201610984565b506000602082860101526020601f19601f83011685010191505092915050565b6020815260008251606060208401526109dc608084018261097a565b60208501516001600160a01b0316604085810191909152909401516060909301929092525090919050565b606081526000610a1a606083018661097a565b6001600160a01b039490941660208301525060400152919050565b60008060408385031215610a4857600080fd5b50508035926020909101359150565b600181811c90821680610a6b57607f821691505b602082108103610a8b57634e487b7160e01b600052602260045260246000fd5b50919050565b601f821115610adb57600081815260208120601f850160051c81016020861015610ab85750805b601f850160051c820191505b81811015610ad757828155600101610ac4565b5050505b505050565b815167ffffffffffffffff811115610afa57610afa61085f565b610b0e81610b088454610a57565b84610a91565b602080601f831160018114610b435760008415610b2b5750858301515b600019600386901b1c1916600185901b178555610ad7565b600085815260208120601f198616915b82811015610b7257888601518255948401946001909101908401610b53565b5085821015610b905787850151600019600388901b60f8161c191681555b5050505050600190811b01905550565b604081526000610bb3604083018561097a565b905060018060a01b03831660208301529392505050565b634e487b7160e01b600052603260045260246000fd5b634e487b7160e01b600052601160045260246000fd5b80820180821115610c0957610c09610be0565b92915050565b600060208284031215610c2157600080fd5b5051919050565b8082028115828204841417610c0957610c09610be0565b600082610c5c57634e487b7160e01b600052601260045260246000fd5b500490565b81810381811115610c0957610c09610be056fea2646970667358221220f99605de2a09dfdc3271f56c266c02e7319f879088b3342301f9bb23f739eca064736f6c63430008140033",
  "linkReferences": {},
  "deployedLinkReferences": {}
}