{"contracts/strategies/TucanaStrategy.sol":{"TucanaStrategy":{"abi":[{"inputs":[{"internalType":"address","name":"_depositToken","type":"address"},{"internalType":"address","name":"_tucanaVault","type":"address"},{"internalType":"address","name":"_weaveVault","type":"address"}],"stateMutability":"nonpayable","type":"constructor"},{"inputs":[{"internalType":"address","name":"owner","type":"address"}],"name":"OwnableInvalidOwner","type":"error"},{"inputs":[{"internalType":"address","name":"account","type":"address"}],"name":"OwnableUnauthorizedAccount","type":"error"},{"inputs":[{"internalType":"address","name":"token","type":"address"}],"name":"SafeERC20FailedOperation","type":"error"},{"anonymous":false,"inputs":[{"indexed":true,"internalType":"address","name":"previousOwner","type":"address"},{"indexed":true,"internalType":"address","name":"newOwner","type":"address"}],"name":"OwnershipTransferred","type":"event"},{"anonymous":false,"inputs":[{"indexed":false,"internalType":"uint256","name":"amount","type":"uint256"}],"name":"StrategyDeposited","type":"event"},{"anonymous":false,"inputs":[{"indexed":false,"internalType":"uint256","name":"amount","type":"uint256"}],"name":"StrategyHarvested","type":"event"},{"anonymous":false,"inputs":[{"indexed":false,"internalType":"uint256","name":"amount","type":"uint256"}],"name":"StrategyWithdrawn","type":"event"},{"inputs":[{"internalType":"uint256","name":"amount","type":"uint256"}],"name":"deposit","outputs":[],"stateMutability":"nonpayable","type":"function"},{"inputs":[],"name":"depositToken","outputs":[{"internalType":"contract IERC20","name":"","type":"address"}],"stateMutability":"view","type":"function"},{"inputs":[],"name":"getPendingYield","outputs":[{"internalType":"uint256","name":"","type":"uint256"}],"stateMutability":"view","type":"function"},{"inputs":[],"name":"harvest","outputs":[{"internalType":"uint256","name":"","type":"uint256"}],"stateMutability":"nonpayable","type":"function"},{"inputs":[],"name":"owner","outputs":[{"internalType":"address","name":"","type":"address"}],"stateMutability":"view","type":"function"},{"inputs":[],"name":"renounceOwnership","outputs":[],"stateMutability":"nonpayable","type":"function"},{"inputs":[{"internalType":"address","name":"_weaveVault","type":"address"}],"name":"setWeaveVault","outputs":[],"stateMutability":"nonpayable","type":"function"},{"inputs":[{"internalType":"address","name":"newOwner","type":"address"}],"name":"transferOwnership","outputs":[],"stateMutability":"nonpayable","type":"function"},{"inputs":[],"name":"tucanaVault","outputs":[{"internalType":"contract ITucana","name":"","type":"address"}],"stateMutability":"view","type":"function"},{"inputs":[],"name":"weaveVault","outputs":[{"internalType":"address","name":"","type":"address"}],"stateMutability":"view","type":"function"},{"inputs":[{"internalType":"uint256","name":"amount","type":"uint256"}],"name":"withdraw","outputs":[],"stateMutability":"nonpayable","type":"function"}],"evm":{"bytecode":{"linkReferences":{},"object":"60c060405234801561001057600080fd5b50604051610af2380380610af283398101604081905261002f916100f9565b338061005557604051631e4fbdf760e01b81526000600482015260240160405180910390fd5b61005e8161008d565b506001600160a01b0392831660805290821660a052600180546001600160a01b0319169190921617905561013c565b600080546001600160a01b038381166001600160a01b0319831681178455604051919092169283917f8be0079c531659141344cd1fd0a4f28419497f9722a3daafe3b4186f6b6457e09190a35050565b80516001600160a01b03811681146100f457600080fd5b919050565b60008060006060848603121561010e57600080fd5b610117846100dd565b9250610125602085016100dd565b9150610133604085016100dd565b90509250925092565b60805160a05161095961019960003960008181610165015281816101c5015281816102860152818161038c015281816104f5015261053001526000818161013e015281816102fa0152818161042701526104d301526109596000f3fe608060405234801561001057600080fd5b50600436106100a95760003560e01c8063a3af62d311610071578063a3af62d314610113578063b6b55f2514610126578063c89039c514610139578063ed127c4a14610160578063f2fde38b14610187578063f7e62ae01461019a57600080fd5b80631f2413ed146100ae5780632e1a7d4d146100c95780634641257d146100de578063715018a6146100e65780638da5cb5b146100ee575b600080fd5b6100b66101ad565b6040519081526020015b60405180910390f35b6100dc6100d7366004610877565b61023d565b005b6100b661035b565b6100dc610488565b6000546001600160a01b03165b6040516001600160a01b0390911681526020016100c0565b6001546100fb906001600160a01b031681565b6100dc610134366004610877565b61049c565b6100fb7f000000000000000000000000000000000000000000000000000000000000000081565b6100fb7f000000000000000000000000000000000000000000000000000000000000000081565b6100dc610195366004610890565b6105c5565b6100dc6101a8366004610890565b610603565b6040516325d2a3f360e01b81523060048201526000907f00000000000000000000000000000000000000000000000000000000000000006001600160a01b0316906325d2a3f390602401602060405180830381865afa158015610214573d6000803e3d6000fd5b505050506040513d601f19601f8201168201806040525081019061023891906108c0565b905090565b6001546001600160a01b031633146102705760405162461bcd60e51b8152600401610267906108d9565b60405180910390fd5b604051639c8f9f2360e01b8152600481018290527f00000000000000000000000000000000000000000000000000000000000000006001600160a01b031690639c8f9f2390602401600060405180830381600087803b1580156102d257600080fd5b505af11580156102e6573d6000803e3d6000fd5b505060015461032492506001600160a01b037f000000000000000000000000000000000000000000000000000000000000000081169250168361062d565b6040518181527f35c4c11317fd96ffa30da51e0a4b85219c4b0f56c1507c3afefe79de0c47ef54906020015b60405180910390a150565b6001546000906001600160a01b031633146103885760405162461bcd60e51b8152600401610267906108d9565b60007f00000000000000000000000000000000000000000000000000000000000000006001600160a01b0316632ef942576040518163ffffffff1660e01b81526004016020604051808303816000875af11580156103ea573d6000803e3d6000fd5b505050506040513d601f19601f8201168201806040525081019061040e91906108c0565b9050801561045057600154610450906001600160a01b037f0000000000000000000000000000000000000000000000000000000000000000811691168361062d565b6040518181527f9c6960ca980a9521fad62fa5dd8538952b668c7f826b57272b3240f5a22605b69060200160405180910390a1919050565b610490610667565b61049a6000610694565b565b6001546001600160a01b031633146104c65760405162461bcd60e51b8152600401610267906108d9565b61051a6001600160a01b037f0000000000000000000000000000000000000000000000000000000000000000167f0000000000000000000000000000000000000000000000000000000000000000836106e4565b6040516328e32c8560e11b8152600481018290527f00000000000000000000000000000000000000000000000000000000000000006001600160a01b0316906351c6590a90602401600060405180830381600087803b15801561057c57600080fd5b505af1158015610590573d6000803e3d6000fd5b505050507f767a00809f9cc45839785933eecaa39b1c134dd5a99507ad60f2c2545c6316448160405161035091815260200190565b6105cd610667565b6001600160a01b0381166105f757604051631e4fbdf760e01b815260006004820152602401610267565b61060081610694565b50565b61060b610667565b600180546001600160a01b0319166001600160a01b0392909216919091179055565b61063a8383836001610774565b61066257604051635274afe760e01b81526001600160a01b0384166004820152602401610267565b505050565b6000546001600160a01b0316331461049a5760405163118cdaa760e01b8152336004820152602401610267565b600080546001600160a01b038381166001600160a01b0319831681178455604051919092169283917f8be0079c531659141344cd1fd0a4f28419497f9722a3daafe3b4186f6b6457e09190a35050565b604051636eb1769f60e11b81523060048201526001600160a01b0383811660248301526000919085169063dd62ed3e90604401602060405180830381865afa158015610734573d6000803e3d6000fd5b505050506040513d601f19601f8201168201806040525081019061075891906108c0565b905061076e848461076985856108fc565b6107da565b50505050565b60405163a9059cbb60e01b60008181526001600160a01b038616600452602485905291602083604481808b5af1925060016000511483166107ce5783831516156107c1573d6000823e3d81fd5b6000873b113d1516831692505b60405250949350505050565b6107e7838383600061082a565b610662576107f983836000600161082a565b61082157604051635274afe760e01b81526001600160a01b0384166004820152602401610267565b61063a83838360015b60405163095ea7b360e01b60008181526001600160a01b038616600452602485905291602083604481808b5af1925060016000511483166107ce5783831516156107c1573d6000823e3d81fd5b60006020828403121561088957600080fd5b5035919050565b6000602082840312156108a257600080fd5b81356001600160a01b03811681146108b957600080fd5b9392505050565b6000602082840312156108d257600080fd5b5051919050565b602080825260099082015268139bdd081d985d5b1d60ba1b604082015260600190565b8082018082111561091d57634e487b7160e01b600052601160045260246000fd5b9291505056fea26469706673582212200de66f2e768ec1058ec10903e6081a449e30a96dc506a4ac059cf7b6198fdcdd64736f6c63430008140033","opcodes":"PUSH1 0xC0 PUSH1 0x40 MSTORE CALLVALUE DUP1 ISZERO PUSH2 0x10 JUMPI PUSH1 0x0 DUP1 REVERT JUMPDEST POP PUSH1 0x40 MLOAD PUSH2 0xAF2 CODESIZE SUB DUP1 PUSH2 0xAF2 DUP4 CODECOPY DUP2 ADD PUSH1 0x40 DUP2 SWAP1 MSTORE PUSH2 0x2F SWAP2 PUSH2 0xF9 JUMP JUMPDEST CALLER DUP1 PUSH2 0x55 JUMPI PUSH1 0x40 MLOAD PUSH4 0x1E4FBDF7 PUSH1 0xE0 SHL DUP2 MSTORE PUSH1 0x0 PUSH1 0x4 DUP3 ADD MSTORE PUSH1 0x24 ADD PUSH1 0x40 MLOAD DUP1 SWAP2 SUB SWAP1 REVERT JUMPDEST PUSH2 0x5E DUP2 PUSH2 0x8D JUMP JUMPDEST POP PUSH1 0x1 PUSH1 0x1 PUSH1 0xA0 SHL SUB SWAP3 DUP4 AND PUSH1 0x80 MSTORE SWAP1 DUP3 AND PUSH1 0xA0 MSTORE PUSH1 0x1 DUP1 SLOAD PUSH1 0x1 PUSH1 0x1 PUSH1 0xA0 SHL SUB NOT AND SWAP2 SWAP1 SWAP3 AND OR SWAP1 SSTORE PUSH2 0x13C JUMP JUMPDEST PUSH1 0x0 DUP1 SLOAD PUSH1 0x1 PUSH1 0x1 PUSH1 0xA0 SHL SUB DUP4 DUP2 AND PUSH1 0x1 PUSH1 0x1 PUSH1 0xA0 SHL SUB NOT DUP4 AND DUP2 OR DUP5 SSTORE PUSH1 0x40 MLOAD SWAP2 SWAP1 SWAP3 AND SWAP3 DUP4 SWAP2 PUSH32 0x8BE0079C531659141344CD1FD0A4F28419497F9722A3DAAFE3B4186F6B6457E0 SWAP2 SWAP1 LOG3 POP POP JUMP JUMPDEST DUP1 MLOAD PUSH1 0x1 PUSH1 0x1 PUSH1 0xA0 SHL SUB DUP2 AND DUP2 EQ PUSH2 0xF4 JUMPI PUSH1 0x0 DUP1 REVERT JUMPDEST SWAP2 SWAP1 POP JUMP JUMPDEST PUSH1 0x0 DUP1 PUSH1 0x0 PUSH1 0x60 DUP5 DUP7 SUB SLT ISZERO PUSH2 0x10E JUMPI PUSH1 0x0 DUP1 REVERT JUMPDEST PUSH2 0x117 DUP5 PUSH2 0xDD JUMP JUMPDEST SWAP3 POP PUSH2 0x125 PUSH1 0x20 DUP6 ADD PUSH2 0xDD JUMP JUMPDEST SWAP2 POP PUSH2 0x133 PUSH1 0x40 DUP6 ADD PUSH2 0xDD JUMP JUMPDEST SWAP1 POP SWAP3 POP SWAP3 POP SWAP3 JUMP JUMPDEST PUSH1 0x80 MLOAD PUSH1 0xA0 MLOAD PUSH2 0x959 PUSH2 0x199 PUSH1 0x0 CODECOPY PUSH1 0x0 DUP2 DUP2 PUSH2 0x165 ADD MSTORE DUP2 DUP2 PUSH2 0x1C5 ADD MSTORE DUP2 DUP2 PUSH2 0x286 ADD MSTORE DUP2 DUP2 PUSH2 0x38C ADD MSTORE DUP2 DUP2 PUSH2 0x4F5 ADD MSTORE PUSH2 0x530 ADD MSTORE PUSH1 0x0 DUP2 DUP2 PUSH2 0x13E ADD MSTORE DUP2 DUP2 PUSH2 0x2FA ADD MSTORE DUP2 DUP2 PUSH2 0x427 ADD MSTORE PUSH2 0x4D3 ADD MSTORE PUSH2 0x959 PUSH1 0x0 RETURN INVALID PUSH1 0x80 PUSH1 0x40 MSTORE CALLVALUE DUP1 ISZERO PUSH2 0x10 JUMPI PUSH1 0x0 DUP1 REVERT JUMPDEST POP PUSH1 0x4 CALLDATASIZE LT PUSH2 0xA9 JUMPI PUSH1 0x0 CALLDATALOAD PUSH1 0xE0 SHR DUP1 PUSH4 0xA3AF62D3 GT PUSH2 0x71 JUMPI DUP1 PUSH4 0xA3AF62D3 EQ PUSH2 0x113 JUMPI DUP1 PUSH4 0xB6B55F25 EQ PUSH2 0x126 JUMPI DUP1 PUSH4 0xC89039C5 EQ PUSH2 0x139 JUMPI DUP1 PUSH4 0xED127C4A EQ PUSH2 0x160 JUMPI DUP1 PUSH4 0xF2FDE38B EQ PUSH2 0x187 JUMPI DUP1 PUSH4 0xF7E62AE0 EQ PUSH2 0x19A JUMPI PUSH1 0x0 DUP1 REVERT JUMPDEST DUP1 PUSH4 0x1F2413ED EQ PUSH2 0xAE JUMPI DUP1 PUSH4 0x2E1A7D4D EQ PUSH2 0xC9 JUMPI DUP1 PUSH4 0x4641257D EQ PUSH2 0xDE JUMPI DUP1 PUSH4 0x715018A6 EQ PUSH2 0xE6 JUMPI DUP1 PUSH4 0x8DA5CB5B EQ PUSH2 0xEE JUMPI JUMPDEST PUSH1 0x0 DUP1 REVERT JUMPDEST PUSH2 0xB6 PUSH2 0x1AD JUMP JUMPDEST PUSH1 0x40 MLOAD SWAP1 DUP2 MSTORE PUSH1 0x20 ADD JUMPDEST PUSH1 0x40 MLOAD DUP1 SWAP2 SUB SWAP1 RETURN JUMPDEST PUSH2 0xDC PUSH2 0xD7 CALLDATASIZE PUSH1 0x4 PUSH2 0x877 JUMP JUMPDEST PUSH2 0x23D JUMP JUMPDEST STOP JUMPDEST PUSH2 0xB6 PUSH2 0x35B JUMP JUMPDEST PUSH2 0xDC PUSH2 0x488 JUMP JUMPDEST PUSH1 0x0 SLOAD PUSH1 0x1 PUSH1 0x1 PUSH1 0xA0 SHL SUB AND JUMPDEST PUSH1 0x40 MLOAD PUSH1 0x1 PUSH1 0x1 PUSH1 0xA0 SHL SUB SWAP1 SWAP2 AND DUP2 MSTORE PUSH1 0x20 ADD PUSH2 0xC0 JUMP JUMPDEST PUSH1 0x1 SLOAD PUSH2 0xFB SWAP1 PUSH1 0x1 PUSH1 0x1 PUSH1 0xA0 SHL SUB AND DUP2 JUMP JUMPDEST PUSH2 0xDC PUSH2 0x134 CALLDATASIZE PUSH1 0x4 PUSH2 0x877 JUMP JUMPDEST PUSH2 0x49C JUMP JUMPDEST PUSH2 0xFB PUSH32 0x0 DUP2 JUMP JUMPDEST PUSH2 0xFB PUSH32 0x0 DUP2 JUMP JUMPDEST PUSH2 0xDC PUSH2 0x195 CALLDATASIZE PUSH1 0x4 PUSH2 0x890 JUMP JUMPDEST PUSH2 0x5C5 JUMP JUMPDEST PUSH2 0xDC PUSH2 0x1A8 CALLDATASIZE PUSH1 0x4 PUSH2 0x890 JUMP JUMPDEST PUSH2 0x603 JUMP JUMPDEST PUSH1 0x40 MLOAD PUSH4 0x25D2A3F3 PUSH1 0xE0 SHL DUP2 MSTORE ADDRESS PUSH1 0x4 DUP3 ADD MSTORE PUSH1 0x0 SWAP1 PUSH32 0x0 PUSH1 0x1 PUSH1 0x1 PUSH1 0xA0 SHL SUB AND SWAP1 PUSH4 0x25D2A3F3 SWAP1 PUSH1 0x24 ADD PUSH1 0x20 PUSH1 0x40 MLOAD DUP1 DUP4 SUB DUP2 DUP7 GAS STATICCALL ISZERO DUP1 ISZERO PUSH2 0x214 JUMPI RETURNDATASIZE PUSH1 0x0 DUP1 RETURNDATACOPY RETURNDATASIZE PUSH1 0x0 REVERT JUMPDEST POP POP POP POP PUSH1 0x40 MLOAD RETURNDATASIZE PUSH1 0x1F NOT PUSH1 0x1F DUP3 ADD AND DUP3 ADD DUP1 PUSH1 0x40 MSTORE POP DUP2 ADD SWAP1 PUSH2 0x238 SWAP2 SWAP1 PUSH2 0x8C0 JUMP JUMPDEST SWAP1 POP SWAP1 JUMP JUMPDEST PUSH1 0x1 SLOAD PUSH1 0x1 PUSH1 0x1 PUSH1 0xA0 SHL SUB AND CALLER EQ PUSH2 0x270 JUMPI PUSH1 0x40 MLOAD PUSH3 0x461BCD PUSH1 0xE5 SHL DUP2 MSTORE PUSH1 0x4 ADD PUSH2 0x267 SWAP1 PUSH2 0x8D9 JUMP JUMPDEST PUSH1 0x40 MLOAD DUP1 SWAP2 SUB SWAP1 REVERT JUMPDEST PUSH1 0x40 MLOAD PUSH4 0x9C8F9F23 PUSH1 0xE0 SHL DUP2 MSTORE PUSH1 0x4 DUP2 ADD DUP3 SWAP1 MSTORE PUSH32 0x0 PUSH1 0x1 PUSH1 0x1 PUSH1 0xA0 SHL SUB AND SWAP1 PUSH4 0x9C8F9F23 SWAP1 PUSH1 0x24 ADD PUSH1 0x0 PUSH1 0x40 MLOAD DUP1 DUP4 SUB DUP2 PUSH1 0x0 DUP8 DUP1 EXTCODESIZE ISZERO DUP1 ISZERO PUSH2 0x2D2 JUMPI PUSH1 0x0 DUP1 REVERT JUMPDEST POP GAS CALL ISZERO DUP1 ISZERO PUSH2 0x2E6 JUMPI RETURNDATASIZE PUSH1 0x0 DUP1 RETURNDATACOPY RETURNDATASIZE PUSH1 0x0 REVERT JUMPDEST POP POP PUSH1 0x1 SLOAD PUSH2 0x324 SWAP3 POP PUSH1 0x1 PUSH1 0x1 PUSH1 0xA0 SHL SUB PUSH32 0x0 DUP2 AND SWAP3 POP AND DUP4 PUSH2 0x62D JUMP JUMPDEST PUSH1 0x40 MLOAD DUP2 DUP2 MSTORE PUSH32 0x35C4C11317FD96FFA30DA51E0A4B85219C4B0F56C1507C3AFEFE79DE0C47EF54 SWAP1 PUSH1 0x20 ADD JUMPDEST PUSH1 0x40 MLOAD DUP1 SWAP2 SUB SWAP1 LOG1 POP JUMP JUMPDEST PUSH1 0x1 SLOAD PUSH1 0x0 SWAP1 PUSH1 0x1 PUSH1 0x1 PUSH1 0xA0 SHL SUB AND CALLER EQ PUSH2 0x388 JUMPI PUSH1 0x40 MLOAD PUSH3 0x461BCD PUSH1 0xE5 SHL DUP2 MSTORE PUSH1 0x4 ADD PUSH2 0x267 SWAP1 PUSH2 0x8D9 JUMP JUMPDEST PUSH1 0x0 PUSH32 0x0 PUSH1 0x1 PUSH1 0x1 PUSH1 0xA0 SHL SUB AND PUSH4 0x2EF94257 PUSH1 0x40 MLOAD DUP2 PUSH4 0xFFFFFFFF AND PUSH1 0xE0 SHL DUP2 MSTORE PUSH1 0x4 ADD PUSH1 0x20 PUSH1 0x40 MLOAD DUP1 DUP4 SUB DUP2 PUSH1 0x0 DUP8 GAS CALL ISZERO DUP1 ISZERO PUSH2 0x3EA JUMPI RETURNDATASIZE PUSH1 0x0 DUP1 RETURNDATACOPY RETURNDATASIZE PUSH1 0x0 REVERT JUMPDEST POP POP POP POP PUSH1 0x40 MLOAD RETURNDATASIZE PUSH1 0x1F NOT PUSH1 0x1F DUP3 ADD AND DUP3 ADD DUP1 PUSH1 0x40 MSTORE POP DUP2 ADD SWAP1 PUSH2 0x40E SWAP2 SWAP1 PUSH2 0x8C0 JUMP JUMPDEST SWAP1 POP DUP1 ISZERO PUSH2 0x450 JUMPI PUSH1 0x1 SLOAD PUSH2 0x450 SWAP1 PUSH1 0x1 PUSH1 0x1 PUSH1 0xA0 SHL SUB PUSH32 0x0 DUP2 AND SWAP2 AND DUP4 PUSH2 0x62D JUMP JUMPDEST PUSH1 0x40 MLOAD DUP2 DUP2 MSTORE PUSH32 0x9C6960CA980A9521FAD62FA5DD8538952B668C7F826B57272B3240F5A22605B6 SWAP1 PUSH1 0x20 ADD PUSH1 0x40 MLOAD DUP1 SWAP2 SUB SWAP1 LOG1 SWAP2 SWAP1 POP JUMP JUMPDEST PUSH2 0x490 PUSH2 0x667 JUMP JUMPDEST PUSH2 0x49A PUSH1 0x0 PUSH2 0x694 JUMP JUMPDEST JUMP JUMPDEST PUSH1 0x1 SLOAD PUSH1 0x1 PUSH1 0x1 PUSH1 0xA0 SHL SUB AND CALLER EQ PUSH2 0x4C6 JUMPI PUSH1 0x40 MLOAD PUSH3 0x461BCD PUSH1 0xE5 SHL DUP2 MSTORE PUSH1 0x4 ADD PUSH2 0x267 SWAP1 PUSH2 0x8D9 JUMP JUMPDEST PUSH2 0x51A PUSH1 0x1 PUSH1 0x1 PUSH1 0xA0 SHL SUB PUSH32 0x0 AND PUSH32 0x0 DUP4 PUSH2 0x6E4 JUMP JUMPDEST PUSH1 0x40 MLOAD PUSH4 0x28E32C85 PUSH1 0xE1 SHL DUP2 MSTORE PUSH1 0x4 DUP2 ADD DUP3 SWAP1 MSTORE PUSH32 0x0 PUSH1 0x1 PUSH1 0x1 PUSH1 0xA0 SHL SUB AND SWAP1 PUSH4 0x51C6590A SWAP1 PUSH1 0x24 ADD PUSH1 0x0 PUSH1 0x40 MLOAD DUP1 DUP4 SUB DUP2 PUSH1 0x0 DUP8 DUP1 EXTCODESIZE ISZERO DUP1 ISZERO PUSH2 0x57C JUMPI PUSH1 0x0 DUP1 REVERT JUMPDEST POP GAS CALL ISZERO DUP1 ISZERO PUSH2 0x590 JUMPI RETURNDATASIZE PUSH1 0x0 DUP1 RETURNDATACOPY RETURNDATASIZE PUSH1 0x0 REVERT JUMPDEST POP POP POP POP PUSH32 0x767A00809F9CC45839785933EECAA39B1C134DD5A99507AD60F2C2545C631644 DUP2 PUSH1 0x40 MLOAD PUSH2 0x350 SWAP2 DUP2 MSTORE PUSH1 0x20 ADD SWAP1 JUMP JUMPDEST PUSH2 0x5CD PUSH2 0x667 JUMP JUMPDEST PUSH1 0x1 PUSH1 0x1 PUSH1 0xA0 SHL SUB DUP2 AND PUSH2 0x5F7 JUMPI PUSH1 0x40 MLOAD PUSH4 0x1E4FBDF7 PUSH1 0xE0 SHL DUP2 MSTORE PUSH1 0x0 PUSH1 0x4 DUP3 ADD MSTORE PUSH1 0x24 ADD PUSH2 0x267 JUMP JUMPDEST PUSH2 0x600 DUP2 PUSH2 0x694 JUMP JUMPDEST POP JUMP JUMPDEST PUSH2 0x60B PUSH2 0x667 JUMP JUMPDEST PUSH1 0x1 DUP1 SLOAD PUSH1 0x1 PUSH1 0x1 PUSH1 0xA0 SHL SUB NOT AND PUSH1 0x1 PUSH1 0x1 PUSH1 0xA0 SHL SUB SWAP3 SWAP1 SWAP3 AND SWAP2 SWAP1 SWAP2 OR SWAP1 SSTORE JUMP JUMPDEST PUSH2 0x63A DUP4 DUP4 DUP4 PUSH1 0x1 PUSH2 0x774 JUMP JUMPDEST PUSH2 0x662 JUMPI PUSH1 0x40 MLOAD PUSH4 0x5274AFE7 PUSH1 0xE0 SHL DUP2 MSTORE PUSH1 0x1 PUSH1 0x1 PUSH1 0xA0 SHL SUB DUP5 AND PUSH1 0x4 DUP3 ADD MSTORE PUSH1 0x24 ADD PUSH2 0x267 JUMP JUMPDEST POP POP POP JUMP JUMPDEST PUSH1 0x0 SLOAD PUSH1 0x1 PUSH1 0x1 PUSH1 0xA0 SHL SUB AND CALLER EQ PUSH2 0x49A JUMPI PUSH1 0x40 MLOAD PUSH4 0x118CDAA7 PUSH1 0xE0 SHL DUP2 MSTORE CALLER PUSH1 0x4 DUP3 ADD MSTORE PUSH1 0x24 ADD PUSH2 0x267 JUMP JUMPDEST PUSH1 0x0 DUP1 SLOAD PUSH1 0x1 PUSH1 0x1 PUSH1 0xA0 SHL SUB DUP4 DUP2 AND PUSH1 0x1 PUSH1 0x1 PUSH1 0xA0 SHL SUB NOT DUP4 AND DUP2 OR DUP5 SSTORE PUSH1 0x40 MLOAD SWAP2 SWAP1 SWAP3 AND SWAP3 DUP4 SWAP2 PUSH32 0x8BE0079C531659141344CD1FD0A4F28419497F9722A3DAAFE3B4186F6B6457E0 SWAP2 SWAP1 LOG3 POP POP JUMP JUMPDEST PUSH1 0x40 MLOAD PUSH4 0x6EB1769F PUSH1 0xE1 SHL DUP2 MSTORE ADDRESS PUSH1 0x4 DUP3 ADD MSTORE PUSH1 0x1 PUSH1 0x1 PUSH1 0xA0 SHL SUB DUP4 DUP2 AND PUSH1 0x24 DUP4 ADD MSTORE PUSH1 0x0 SWAP2 SWAP1 DUP6 AND SWAP1 PUSH4 0xDD62ED3E SWAP1 PUSH1 0x44 ADD PUSH1 0x20 PUSH1 0x40 MLOAD DUP1 DUP4 SUB DUP2 DUP7 GAS STATICCALL ISZERO DUP1 ISZERO PUSH2 0x734 JUMPI RETURNDATASIZE PUSH1 0x0 DUP1 RETURNDATACOPY RETURNDATASIZE PUSH1 0x0 REVERT JUMPDEST POP POP POP POP PUSH1 0x40 MLOAD RETURNDATASIZE PUSH1 0x1F NOT PUSH1 0x1F DUP3 ADD AND DUP3 ADD DUP1 PUSH1 0x40 MSTORE POP DUP2 ADD SWAP1 PUSH2 0x758 SWAP2 SWAP1 PUSH2 0x8C0 JUMP JUMPDEST SWAP1 POP PUSH2 0x76E DUP5 DUP5 PUSH2 0x769 DUP6 DUP6 PUSH2 0x8FC JUMP JUMPDEST PUSH2 0x7DA JUMP JUMPDEST POP POP POP POP JUMP JUMPDEST PUSH1 0x40 MLOAD PUSH4 0xA9059CBB PUSH1 0xE0 SHL PUSH1 0x0 DUP2 DUP2 MSTORE PUSH1 0x1 PUSH1 0x1 PUSH1 0xA0 SHL SUB DUP7 AND PUSH1 0x4 MSTORE PUSH1 0x24 DUP6 SWAP1 MSTORE SWAP2 PUSH1 0x20 DUP4 PUSH1 0x44 DUP2 DUP1 DUP12 GAS CALL SWAP3 POP PUSH1 0x1 PUSH1 0x0 MLOAD EQ DUP4 AND PUSH2 0x7CE JUMPI DUP4 DUP4 ISZERO AND ISZERO PUSH2 0x7C1 JUMPI RETURNDATASIZE PUSH1 0x0 DUP3 RETURNDATACOPY RETURNDATASIZE DUP2 REVERT JUMPDEST PUSH1 0x0 DUP8 EXTCODESIZE GT RETURNDATASIZE ISZERO AND DUP4 AND SWAP3 POP JUMPDEST PUSH1 0x40 MSTORE POP SWAP5 SWAP4 POP POP POP POP JUMP JUMPDEST PUSH2 0x7E7 DUP4 DUP4 DUP4 PUSH1 0x0 PUSH2 0x82A JUMP JUMPDEST PUSH2 0x662 JUMPI PUSH2 0x7F9 DUP4 DUP4 PUSH1 0x0 PUSH1 0x1 PUSH2 0x82A JUMP JUMPDEST PUSH2 0x821 JUMPI PUSH1 0x40 MLOAD PUSH4 0x5274AFE7 PUSH1 0xE0 SHL DUP2 MSTORE PUSH1 0x1 PUSH1 0x1 PUSH1 0xA0 SHL SUB DUP5 AND PUSH1 0x4 DUP3 ADD MSTORE PUSH1 0x24 ADD PUSH2 0x267 JUMP JUMPDEST PUSH2 0x63A DUP4 DUP4 DUP4 PUSH1 0x1 JUMPDEST PUSH1 0x40 MLOAD PUSH4 0x95EA7B3 PUSH1 0xE0 SHL PUSH1 0x0 DUP2 DUP2 MSTORE PUSH1 0x1 PUSH1 0x1 PUSH1 0xA0 SHL SUB DUP7 AND PUSH1 0x4 MSTORE PUSH1 0x24 DUP6 SWAP1 MSTORE SWAP2 PUSH1 0x20 DUP4 PUSH1 0x44 DUP2 DUP1 DUP12 GAS CALL SWAP3 POP PUSH1 0x1 PUSH1 0x0 MLOAD EQ DUP4 AND PUSH2 0x7CE JUMPI DUP4 DUP4 ISZERO AND ISZERO PUSH2 0x7C1 JUMPI RETURNDATASIZE PUSH1 0x0 DUP3 RETURNDATACOPY RETURNDATASIZE DUP2 REVERT JUMPDEST PUSH1 0x0 PUSH1 0x20 DUP3 DUP5 SUB SLT ISZERO PUSH2 0x889 JUMPI PUSH1 0x0 DUP1 REVERT JUMPDEST POP CALLDATALOAD SWAP2 SWAP1 POP JUMP JUMPDEST PUSH1 0x0 PUSH1 0x20 DUP3 DUP5 SUB SLT ISZERO PUSH2 0x8A2 JUMPI PUSH1 0x0 DUP1 REVERT JUMPDEST DUP2 CALLDATALOAD PUSH1 0x1 PUSH1 0x1 PUSH1 0xA0 SHL SUB DUP2 AND DUP2 EQ PUSH2 0x8B9 JUMPI PUSH1 0x0 DUP1 REVERT JUMPDEST SWAP4 SWAP3 POP POP POP JUMP JUMPDEST PUSH1 0x0 PUSH1 0x20 DUP3 DUP5 SUB SLT ISZERO PUSH2 0x8D2 JUMPI PUSH1 0x0 DUP1 REVERT JUMPDEST POP MLOAD SWAP2 SWAP1 POP JUMP JUMPDEST PUSH1 0x20 DUP1 DUP3 MSTORE PUSH1 0x9 SWAP1 DUP3 ADD MSTORE PUSH9 0x139BDD081D985D5B1D PUSH1 0xBA SHL PUSH1 0x40 DUP3 ADD MSTORE PUSH1 0x60 ADD SWAP1 JUMP JUMPDEST DUP1 DUP3 ADD DUP1 DUP3 GT ISZERO PUSH2 0x91D JUMPI PUSH4 0x4E487B71 PUSH1 0xE0 SHL PUSH1 0x0 MSTORE PUSH1 0x11 PUSH1 0x4 MSTORE PUSH1 0x24 PUSH1 0x0 REVERT JUMPDEST SWAP3 SWAP2 POP POP JUMP INVALID LOG2 PUSH5 0x6970667358 0x22 SLT KECCAK256 0xD 0xE6 PUSH16 0x2E768EC1058EC10903E6081A449E30A9 PUSH14 0xC506A4AC059CF7B6198FDCDD6473 PUSH16 0x6C634300081400330000000000000000 "},"methodIdentifiers":{"deposit(uint256)":"b6b55f25","depositToken()":"c89039c5","getPendingYield()":"1f2413ed","harvest()":"4641257d","owner()":"8da5cb5b","renounceOwnership()":"715018a6","setWeaveVault(address)":"f7e62ae0","transferOwnership(address)":"f2fde38b","tucanaVault()":"ed127c4a","weaveVault()":"a3af62d3","withdraw(uint256)":"2e1a7d4d"}}}}}