{"contracts/WeaveRewards.sol":{"WeaveRewards":{"abi":[{"inputs":[{"internalType":"address","name":"_usdc","type":"address"},{"internalType":"address","name":"_veWeave","type":"address"}],"stateMutability":"nonpayable","type":"constructor"},{"inputs":[{"internalType":"address","name":"owner","type":"address"}],"name":"OwnableInvalidOwner","type":"error"},{"inputs":[{"internalType":"address","name":"account","type":"address"}],"name":"OwnableUnauthorizedAccount","type":"error"},{"inputs":[],"name":"ReentrancyGuardReentrantCall","type":"error"},{"inputs":[{"internalType":"address","name":"token","type":"address"}],"name":"SafeERC20FailedOperation","type":"error"},{"anonymous":false,"inputs":[{"indexed":true,"internalType":"address","name":"previousOwner","type":"address"},{"indexed":true,"internalType":"address","name":"newOwner","type":"address"}],"name":"OwnershipTransferred","type":"event"},{"anonymous":false,"inputs":[{"indexed":true,"internalType":"address","name":"user","type":"address"},{"indexed":false,"internalType":"uint256","name":"amount","type":"uint256"}],"name":"RewardsClaimed","type":"event"},{"anonymous":false,"inputs":[{"indexed":false,"internalType":"uint256","name":"amount","type":"uint256"}],"name":"RewardsDistributed","type":"event"},{"inputs":[],"name":"claimRewards","outputs":[],"stateMutability":"nonpayable","type":"function"},{"inputs":[{"internalType":"uint256","name":"usdcAmount","type":"uint256"}],"name":"distributeRewards","outputs":[],"stateMutability":"nonpayable","type":"function"},{"inputs":[],"name":"owner","outputs":[{"internalType":"address","name":"","type":"address"}],"stateMutability":"view","type":"function"},{"inputs":[{"internalType":"address","name":"user","type":"address"}],"name":"pendingRewards","outputs":[{"internalType":"uint256","name":"","type":"uint256"}],"stateMutability":"view","type":"function"},{"inputs":[],"name":"renounceOwnership","outputs":[],"stateMutability":"nonpayable","type":"function"},{"inputs":[{"internalType":"address","name":"","type":"address"}],"name":"rewardMask","outputs":[{"internalType":"uint256","name":"","type":"uint256"}],"stateMutability":"view","type":"function"},{"inputs":[],"name":"rewardsPerVeWeave","outputs":[{"internalType":"uint256","name":"","type":"uint256"}],"stateMutability":"view","type":"function"},{"inputs":[{"internalType":"address","name":"","type":"address"}],"name":"totalClaimed","outputs":[{"internalType":"uint256","name":"","type":"uint256"}],"stateMutability":"view","type":"function"},{"inputs":[],"name":"totalDistributed","outputs":[{"internalType":"uint256","name":"","type":"uint256"}],"stateMutability":"view","type":"function"},{"inputs":[{"internalType":"address","name":"newOwner","type":"address"}],"name":"transferOwnership","outputs":[],"stateMutability":"nonpayable","type":"function"},{"inputs":[],"name":"usdc","outputs":[{"internalType":"contract IERC20","name":"","type":"address"}],"stateMutability":"view","type":"function"},{"inputs":[],"name":"veWeave","outputs":[{"internalType":"contract IVeWeave","name":"","type":"address"}],"stateMutability":"view","type":"function"}],"evm":{"bytecode":{"linkReferences":{},"object":"60c060405234801561001057600080fd5b50604051610b65380380610b6583398101604081905261002f91610106565b338061005557604051631e4fbdf760e01b81526000600482015260240160405180910390fd5b61005e8161009a565b5060017f9b779b17422d0df92223018b32b4d1fa46e071723d6817e2486d003becc55f00556001600160a01b039182166080521660a052610139565b600080546001600160a01b038381166001600160a01b0319831681178455604051919092169283917f8be0079c531659141344cd1fd0a4f28419497f9722a3daafe3b4186f6b6457e09190a35050565b80516001600160a01b038116811461010157600080fd5b919050565b6000806040838503121561011957600080fd5b610122836100ea565b9150610130602084016100ea565b90509250929050565b60805160a0516109e56101806000396000818160d9015281816102030152818161037501526104c801526000818161013501528181610434015261059c01526109e56000f3fe608060405234801561001057600080fd5b50600436106100b35760003560e01c8063715018a611610071578063715018a61461016a5780638da5cb5b14610172578063db594ff414610183578063ef5d9ae8146101a3578063efca2eed146101c3578063f2fde38b146101cc57600080fd5b80625f4554146100b857806313901600146100d457806331d7a26214610113578063372500ab146101265780633e413bee1461013057806359974e3814610157575b600080fd5b6100c160015481565b6040519081526020015b60405180910390f35b6100fb7f000000000000000000000000000000000000000000000000000000000000000081565b6040516001600160a01b0390911681526020016100cb565b6100c16101213660046108d2565b6101df565b61012e6102ea565b005b6100fb7f000000000000000000000000000000000000000000000000000000000000000081565b61012e610165366004610902565b6104bc565b61012e610647565b6000546001600160a01b03166100fb565b6100c16101913660046108d2565b60026020526000908152604090205481565b6100c16101b13660046108d2565b60036020526000908152604090205481565b6100c160045481565b61012e6101da3660046108d2565b610659565b604051635da6a21b60e11b81526001600160a01b03828116600483015260009182917f0000000000000000000000000000000000000000000000000000000000000000169063bb4d443690602401602060405180830381865afa15801561024a573d6000803e3d6000fd5b505050506040513d601f19601f8201168201806040525081019061026e919061091b565b90506000670de0b6b3a764000060015483610289919061094a565b6102939190610967565b6001600160a01b03851660009081526002602052604090205490915081116102bf575060009392505050565b6001600160a01b0384166000908152600260205260409020546102e29082610989565b949350505050565b6102f2610697565b60006102fd336101df565b90506000811161034a5760405162461bcd60e51b81526020600482015260136024820152724e6f207265776172647320746f20636c61696d60681b60448201526064015b60405180910390fd5b600154604051635da6a21b60e11b8152336004820152670de0b6b3a764000091906001600160a01b037f0000000000000000000000000000000000000000000000000000000000000000169063bb4d443690602401602060405180830381865afa1580156103bc573d6000803e3d6000fd5b505050506040513d601f19601f820116820180604052508101906103e0919061091b565b6103ea919061094a565b6103f49190610967565b3360009081526002602090815260408083209390935560039052908120805483929061042190849061099c565b9091555061045b90506001600160a01b037f00000000000000000000000000000000000000000000000000000000000000001633836106c5565b60405181815233907ffc30cddea38e2bf4d6ea7d3f9ed3b6ad7f176419f4963bd81318067a4aee73fe9060200160405180910390a2506104ba60017f9b779b17422d0df92223018b32b4d1fa46e071723d6817e2486d003becc55f0055565b565b6104c46106ff565b60007f00000000000000000000000000000000000000000000000000000000000000006001600160a01b03166388b180456040518163ffffffff1660e01b8152600401602060405180830381865afa158015610524573d6000803e3d6000fd5b505050506040513d601f19601f82011682018060405250810190610548919061091b565b90506000811161058f5760405162461bcd60e51b81526020600482015260126024820152714e6f207665574541564520686f6c6465727360701b6044820152606401610341565b6105c46001600160a01b037f00000000000000000000000000000000000000000000000000000000000000001633308561072c565b806105d783670de0b6b3a764000061094a565b6105e19190610967565b600160008282546105f2919061099c565b92505081905550816004600082825461060b919061099c565b90915550506040518281527f6d1c76d614228b523baa4dcd9539e2c713b54ff4ab3ff2d1627e7f6cd32be4429060200160405180910390a15050565b61064f6106ff565b6104ba6000610768565b6106616106ff565b6001600160a01b03811661068b57604051631e4fbdf760e01b815260006004820152602401610341565b61069481610768565b50565b61069f6107b8565b60027f9b779b17422d0df92223018b32b4d1fa46e071723d6817e2486d003becc55f0055565b6106d283838360016107fa565b6106fa57604051635274afe760e01b81526001600160a01b0384166004820152602401610341565b505050565b6000546001600160a01b031633146104ba5760405163118cdaa760e01b8152336004820152602401610341565b61073a848484846001610860565b61076257604051635274afe760e01b81526001600160a01b0385166004820152602401610341565b50505050565b600080546001600160a01b038381166001600160a01b0319831681178455604051919092169283917f8be0079c531659141344cd1fd0a4f28419497f9722a3daafe3b4186f6b6457e09190a35050565b7f9b779b17422d0df92223018b32b4d1fa46e071723d6817e2486d003becc55f00546002036104ba57604051633ee5aeb560e01b815260040160405180910390fd5b60405163a9059cbb60e01b60008181526001600160a01b038616600452602485905291602083604481808b5af192506001600051148316610854578383151615610847573d6000823e3d81fd5b6000873b113d1516831692505b60405250949350505050565b6040516323b872dd60e01b60008181526001600160a01b038781166004528616602452604485905291602083606481808c5af1925060016000511483166108c05783831516156108b3573d6000823e3d81fd5b6000883b113d1516831692505b60405250600060605295945050505050565b6000602082840312156108e457600080fd5b81356001600160a01b03811681146108fb57600080fd5b9392505050565b60006020828403121561091457600080fd5b5035919050565b60006020828403121561092d57600080fd5b5051919050565b634e487b7160e01b600052601160045260246000fd5b808202811582820484141761096157610961610934565b92915050565b60008261098457634e487b7160e01b600052601260045260246000fd5b500490565b8181038181111561096157610961610934565b808201808211156109615761096161093456fea2646970667358221220fc952af6573f28c9ff9ccba82f93614e1f960a10d72457fba7d192d9630dac9464736f6c63430008140033","opcodes":"PUSH1 0xC0 PUSH1 0x40 MSTORE CALLVALUE DUP1 ISZERO PUSH2 0x10 JUMPI PUSH1 0x0 DUP1 REVERT JUMPDEST POP PUSH1 0x40 MLOAD PUSH2 0xB65 CODESIZE SUB DUP1 PUSH2 0xB65 DUP4 CODECOPY DUP2 ADD PUSH1 0x40 DUP2 SWAP1 MSTORE PUSH2 0x2F SWAP2 PUSH2 0x106 JUMP JUMPDEST CALLER DUP1 PUSH2 0x55 JUMPI PUSH1 0x40 MLOAD PUSH4 0x1E4FBDF7 PUSH1 0xE0 SHL DUP2 MSTORE PUSH1 0x0 PUSH1 0x4 DUP3 ADD MSTORE PUSH1 0x24 ADD PUSH1 0x40 MLOAD DUP1 SWAP2 SUB SWAP1 REVERT JUMPDEST PUSH2 0x5E DUP2 PUSH2 0x9A JUMP JUMPDEST POP PUSH1 0x1 PUSH32 0x9B779B17422D0DF92223018B32B4D1FA46E071723D6817E2486D003BECC55F00 SSTORE PUSH1 0x1 PUSH1 0x1 PUSH1 0xA0 SHL SUB SWAP2 DUP3 AND PUSH1 0x80 MSTORE AND PUSH1 0xA0 MSTORE PUSH2 0x139 JUMP JUMPDEST PUSH1 0x0 DUP1 SLOAD PUSH1 0x1 PUSH1 0x1 PUSH1 0xA0 SHL SUB DUP4 DUP2 AND PUSH1 0x1 PUSH1 0x1 PUSH1 0xA0 SHL SUB NOT DUP4 AND DUP2 OR DUP5 SSTORE PUSH1 0x40 MLOAD SWAP2 SWAP1 SWAP3 AND SWAP3 DUP4 SWAP2 PUSH32 0x8BE0079C531659141344CD1FD0A4F28419497F9722A3DAAFE3B4186F6B6457E0 SWAP2 SWAP1 LOG3 POP POP JUMP JUMPDEST DUP1 MLOAD PUSH1 0x1 PUSH1 0x1 PUSH1 0xA0 SHL SUB DUP2 AND DUP2 EQ PUSH2 0x101 JUMPI PUSH1 0x0 DUP1 REVERT JUMPDEST SWAP2 SWAP1 POP JUMP JUMPDEST PUSH1 0x0 DUP1 PUSH1 0x40 DUP4 DUP6 SUB SLT ISZERO PUSH2 0x119 JUMPI PUSH1 0x0 DUP1 REVERT JUMPDEST PUSH2 0x122 DUP4 PUSH2 0xEA JUMP JUMPDEST SWAP2 POP PUSH2 0x130 PUSH1 0x20 DUP5 ADD PUSH2 0xEA JUMP JUMPDEST SWAP1 POP SWAP3 POP SWAP3 SWAP1 POP JUMP JUMPDEST PUSH1 0x80 MLOAD PUSH1 0xA0 MLOAD PUSH2 0x9E5 PUSH2 0x180 PUSH1 0x0 CODECOPY PUSH1 0x0 DUP2 DUP2 PUSH1 0xD9 ADD MSTORE DUP2 DUP2 PUSH2 0x203 ADD MSTORE DUP2 DUP2 PUSH2 0x375 ADD MSTORE PUSH2 0x4C8 ADD MSTORE PUSH1 0x0 DUP2 DUP2 PUSH2 0x135 ADD MSTORE DUP2 DUP2 PUSH2 0x434 ADD MSTORE PUSH2 0x59C ADD MSTORE PUSH2 0x9E5 PUSH1 0x0 RETURN INVALID PUSH1 0x80 PUSH1 0x40 MSTORE CALLVALUE DUP1 ISZERO PUSH2 0x10 JUMPI PUSH1 0x0 DUP1 REVERT JUMPDEST POP PUSH1 0x4 CALLDATASIZE LT PUSH2 0xB3 JUMPI PUSH1 0x0 CALLDATALOAD PUSH1 0xE0 SHR DUP1 PUSH4 0x715018A6 GT PUSH2 0x71 JUMPI DUP1 PUSH4 0x715018A6 EQ PUSH2 0x16A JUMPI DUP1 PUSH4 0x8DA5CB5B EQ PUSH2 0x172 JUMPI DUP1 PUSH4 0xDB594FF4 EQ PUSH2 0x183 JUMPI DUP1 PUSH4 0xEF5D9AE8 EQ PUSH2 0x1A3 JUMPI DUP1 PUSH4 0xEFCA2EED EQ PUSH2 0x1C3 JUMPI DUP1 PUSH4 0xF2FDE38B EQ PUSH2 0x1CC JUMPI PUSH1 0x0 DUP1 REVERT JUMPDEST DUP1 PUSH3 0x5F4554 EQ PUSH2 0xB8 JUMPI DUP1 PUSH4 0x13901600 EQ PUSH2 0xD4 JUMPI DUP1 PUSH4 0x31D7A262 EQ PUSH2 0x113 JUMPI DUP1 PUSH4 0x372500AB EQ PUSH2 0x126 JUMPI DUP1 PUSH4 0x3E413BEE EQ PUSH2 0x130 JUMPI DUP1 PUSH4 0x59974E38 EQ PUSH2 0x157 JUMPI JUMPDEST PUSH1 0x0 DUP1 REVERT JUMPDEST PUSH2 0xC1 PUSH1 0x1 SLOAD DUP2 JUMP JUMPDEST PUSH1 0x40 MLOAD SWAP1 DUP2 MSTORE PUSH1 0x20 ADD JUMPDEST PUSH1 0x40 MLOAD DUP1 SWAP2 SUB SWAP1 RETURN JUMPDEST PUSH2 0xFB PUSH32 0x0 DUP2 JUMP JUMPDEST PUSH1 0x40 MLOAD PUSH1 0x1 PUSH1 0x1 PUSH1 0xA0 SHL SUB SWAP1 SWAP2 AND DUP2 MSTORE PUSH1 0x20 ADD PUSH2 0xCB JUMP JUMPDEST PUSH2 0xC1 PUSH2 0x121 CALLDATASIZE PUSH1 0x4 PUSH2 0x8D2 JUMP JUMPDEST PUSH2 0x1DF JUMP JUMPDEST PUSH2 0x12E PUSH2 0x2EA JUMP JUMPDEST STOP JUMPDEST PUSH2 0xFB PUSH32 0x0 DUP2 JUMP JUMPDEST PUSH2 0x12E PUSH2 0x165 CALLDATASIZE PUSH1 0x4 PUSH2 0x902 JUMP JUMPDEST PUSH2 0x4BC JUMP JUMPDEST PUSH2 0x12E PUSH2 0x647 JUMP JUMPDEST PUSH1 0x0 SLOAD PUSH1 0x1 PUSH1 0x1 PUSH1 0xA0 SHL SUB AND PUSH2 0xFB JUMP JUMPDEST PUSH2 0xC1 PUSH2 0x191 CALLDATASIZE PUSH1 0x4 PUSH2 0x8D2 JUMP JUMPDEST PUSH1 0x2 PUSH1 0x20 MSTORE PUSH1 0x0 SWAP1 DUP2 MSTORE PUSH1 0x40 SWAP1 KECCAK256 SLOAD DUP2 JUMP JUMPDEST PUSH2 0xC1 PUSH2 0x1B1 CALLDATASIZE PUSH1 0x4 PUSH2 0x8D2 JUMP JUMPDEST PUSH1 0x3 PUSH1 0x20 MSTORE PUSH1 0x0 SWAP1 DUP2 MSTORE PUSH1 0x40 SWAP1 KECCAK256 SLOAD DUP2 JUMP JUMPDEST PUSH2 0xC1 PUSH1 0x4 SLOAD DUP2 JUMP JUMPDEST PUSH2 0x12E PUSH2 0x1DA CALLDATASIZE PUSH1 0x4 PUSH2 0x8D2 JUMP JUMPDEST PUSH2 0x659 JUMP JUMPDEST PUSH1 0x40 MLOAD PUSH4 0x5DA6A21B PUSH1 0xE1 SHL DUP2 MSTORE PUSH1 0x1 PUSH1 0x1 PUSH1 0xA0 SHL SUB DUP3 DUP2 AND PUSH1 0x4 DUP4 ADD MSTORE PUSH1 0x0 SWAP2 DUP3 SWAP2 PUSH32 0x0 AND SWAP1 PUSH4 0xBB4D4436 SWAP1 PUSH1 0x24 ADD PUSH1 0x20 PUSH1 0x40 MLOAD DUP1 DUP4 SUB DUP2 DUP7 GAS STATICCALL ISZERO DUP1 ISZERO PUSH2 0x24A JUMPI RETURNDATASIZE PUSH1 0x0 DUP1 RETURNDATACOPY RETURNDATASIZE PUSH1 0x0 REVERT JUMPDEST POP POP POP POP PUSH1 0x40 MLOAD RETURNDATASIZE PUSH1 0x1F NOT PUSH1 0x1F DUP3 ADD AND DUP3 ADD DUP1 PUSH1 0x40 MSTORE POP DUP2 ADD SWAP1 PUSH2 0x26E SWAP2 SWAP1 PUSH2 0x91B JUMP JUMPDEST SWAP1 POP PUSH1 0x0 PUSH8 0xDE0B6B3A7640000 PUSH1 0x1 SLOAD DUP4 PUSH2 0x289 SWAP2 SWAP1 PUSH2 0x94A JUMP JUMPDEST PUSH2 0x293 SWAP2 SWAP1 PUSH2 0x967 JUMP JUMPDEST PUSH1 0x1 PUSH1 0x1 PUSH1 0xA0 SHL SUB DUP6 AND PUSH1 0x0 SWAP1 DUP2 MSTORE PUSH1 0x2 PUSH1 0x20 MSTORE PUSH1 0x40 SWAP1 KECCAK256 SLOAD SWAP1 SWAP2 POP DUP2 GT PUSH2 0x2BF JUMPI POP PUSH1 0x0 SWAP4 SWAP3 POP POP POP JUMP JUMPDEST PUSH1 0x1 PUSH1 0x1 PUSH1 0xA0 SHL SUB DUP5 AND PUSH1 0x0 SWAP1 DUP2 MSTORE PUSH1 0x2 PUSH1 0x20 MSTORE PUSH1 0x40 SWAP1 KECCAK256 SLOAD PUSH2 0x2E2 SWAP1 DUP3 PUSH2 0x989 JUMP JUMPDEST SWAP5 SWAP4 POP POP POP POP JUMP JUMPDEST PUSH2 0x2F2 PUSH2 0x697 JUMP JUMPDEST PUSH1 0x0 PUSH2 0x2FD CALLER PUSH2 0x1DF JUMP JUMPDEST SWAP1 POP PUSH1 0x0 DUP2 GT PUSH2 0x34A JUMPI PUSH1 0x40 MLOAD PUSH3 0x461BCD PUSH1 0xE5 SHL DUP2 MSTORE PUSH1 0x20 PUSH1 0x4 DUP3 ADD MSTORE PUSH1 0x13 PUSH1 0x24 DUP3 ADD MSTORE PUSH19 0x4E6F207265776172647320746F20636C61696D PUSH1 0x68 SHL PUSH1 0x44 DUP3 ADD MSTORE PUSH1 0x64 ADD JUMPDEST PUSH1 0x40 MLOAD DUP1 SWAP2 SUB SWAP1 REVERT JUMPDEST PUSH1 0x1 SLOAD PUSH1 0x40 MLOAD PUSH4 0x5DA6A21B PUSH1 0xE1 SHL DUP2 MSTORE CALLER PUSH1 0x4 DUP3 ADD MSTORE PUSH8 0xDE0B6B3A7640000 SWAP2 SWAP1 PUSH1 0x1 PUSH1 0x1 PUSH1 0xA0 SHL SUB PUSH32 0x0 AND SWAP1 PUSH4 0xBB4D4436 SWAP1 PUSH1 0x24 ADD PUSH1 0x20 PUSH1 0x40 MLOAD DUP1 DUP4 SUB DUP2 DUP7 GAS STATICCALL ISZERO DUP1 ISZERO PUSH2 0x3BC JUMPI RETURNDATASIZE PUSH1 0x0 DUP1 RETURNDATACOPY RETURNDATASIZE PUSH1 0x0 REVERT JUMPDEST POP POP POP POP PUSH1 0x40 MLOAD RETURNDATASIZE PUSH1 0x1F NOT PUSH1 0x1F DUP3 ADD AND DUP3 ADD DUP1 PUSH1 0x40 MSTORE POP DUP2 ADD SWAP1 PUSH2 0x3E0 SWAP2 SWAP1 PUSH2 0x91B JUMP JUMPDEST PUSH2 0x3EA SWAP2 SWAP1 PUSH2 0x94A JUMP JUMPDEST PUSH2 0x3F4 SWAP2 SWAP1 PUSH2 0x967 JUMP JUMPDEST CALLER PUSH1 0x0 SWAP1 DUP2 MSTORE PUSH1 0x2 PUSH1 0x20 SWAP1 DUP2 MSTORE PUSH1 0x40 DUP1 DUP4 KECCAK256 SWAP4 SWAP1 SWAP4 SSTORE PUSH1 0x3 SWAP1 MSTORE SWAP1 DUP2 KECCAK256 DUP1 SLOAD DUP4 SWAP3 SWAP1 PUSH2 0x421 SWAP1 DUP5 SWAP1 PUSH2 0x99C JUMP JUMPDEST SWAP1 SWAP2 SSTORE POP PUSH2 0x45B SWAP1 POP PUSH1 0x1 PUSH1 0x1 PUSH1 0xA0 SHL SUB PUSH32 0x0 AND CALLER DUP4 PUSH2 0x6C5 JUMP JUMPDEST PUSH1 0x40 MLOAD DUP2 DUP2 MSTORE CALLER SWAP1 PUSH32 0xFC30CDDEA38E2BF4D6EA7D3F9ED3B6AD7F176419F4963BD81318067A4AEE73FE SWAP1 PUSH1 0x20 ADD PUSH1 0x40 MLOAD DUP1 SWAP2 SUB SWAP1 LOG2 POP PUSH2 0x4BA PUSH1 0x1 PUSH32 0x9B779B17422D0DF92223018B32B4D1FA46E071723D6817E2486D003BECC55F00 SSTORE JUMP JUMPDEST JUMP JUMPDEST PUSH2 0x4C4 PUSH2 0x6FF JUMP JUMPDEST PUSH1 0x0 PUSH32 0x0 PUSH1 0x1 PUSH1 0x1 PUSH1 0xA0 SHL SUB AND PUSH4 0x88B18045 PUSH1 0x40 MLOAD DUP2 PUSH4 0xFFFFFFFF AND PUSH1 0xE0 SHL DUP2 MSTORE PUSH1 0x4 ADD PUSH1 0x20 PUSH1 0x40 MLOAD DUP1 DUP4 SUB DUP2 DUP7 GAS STATICCALL ISZERO DUP1 ISZERO PUSH2 0x524 JUMPI RETURNDATASIZE PUSH1 0x0 DUP1 RETURNDATACOPY RETURNDATASIZE PUSH1 0x0 REVERT JUMPDEST POP POP POP POP PUSH1 0x40 MLOAD RETURNDATASIZE PUSH1 0x1F NOT PUSH1 0x1F DUP3 ADD AND DUP3 ADD DUP1 PUSH1 0x40 MSTORE POP DUP2 ADD SWAP1 PUSH2 0x548 SWAP2 SWAP1 PUSH2 0x91B JUMP JUMPDEST SWAP1 POP PUSH1 0x0 DUP2 GT PUSH2 0x58F JUMPI PUSH1 0x40 MLOAD PUSH3 0x461BCD PUSH1 0xE5 SHL DUP2 MSTORE PUSH1 0x20 PUSH1 0x4 DUP3 ADD MSTORE PUSH1 0x12 PUSH1 0x24 DUP3 ADD MSTORE PUSH18 0x4E6F207665574541564520686F6C64657273 PUSH1 0x70 SHL PUSH1 0x44 DUP3 ADD MSTORE PUSH1 0x64 ADD PUSH2 0x341 JUMP JUMPDEST PUSH2 0x5C4 PUSH1 0x1 PUSH1 0x1 PUSH1 0xA0 SHL SUB PUSH32 0x0 AND CALLER ADDRESS DUP6 PUSH2 0x72C JUMP JUMPDEST DUP1 PUSH2 0x5D7 DUP4 PUSH8 0xDE0B6B3A7640000 PUSH2 0x94A JUMP JUMPDEST PUSH2 0x5E1 SWAP2 SWAP1 PUSH2 0x967 JUMP JUMPDEST PUSH1 0x1 PUSH1 0x0 DUP3 DUP3 SLOAD PUSH2 0x5F2 SWAP2 SWAP1 PUSH2 0x99C JUMP JUMPDEST SWAP3 POP POP DUP2 SWAP1 SSTORE POP DUP2 PUSH1 0x4 PUSH1 0x0 DUP3 DUP3 SLOAD PUSH2 0x60B SWAP2 SWAP1 PUSH2 0x99C JUMP JUMPDEST SWAP1 SWAP2 SSTORE POP POP PUSH1 0x40 MLOAD DUP3 DUP2 MSTORE PUSH32 0x6D1C76D614228B523BAA4DCD9539E2C713B54FF4AB3FF2D1627E7F6CD32BE442 SWAP1 PUSH1 0x20 ADD PUSH1 0x40 MLOAD DUP1 SWAP2 SUB SWAP1 LOG1 POP POP JUMP JUMPDEST PUSH2 0x64F PUSH2 0x6FF JUMP JUMPDEST PUSH2 0x4BA PUSH1 0x0 PUSH2 0x768 JUMP JUMPDEST PUSH2 0x661 PUSH2 0x6FF JUMP JUMPDEST PUSH1 0x1 PUSH1 0x1 PUSH1 0xA0 SHL SUB DUP2 AND PUSH2 0x68B JUMPI PUSH1 0x40 MLOAD PUSH4 0x1E4FBDF7 PUSH1 0xE0 SHL DUP2 MSTORE PUSH1 0x0 PUSH1 0x4 DUP3 ADD MSTORE PUSH1 0x24 ADD PUSH2 0x341 JUMP JUMPDEST PUSH2 0x694 DUP2 PUSH2 0x768 JUMP JUMPDEST POP JUMP JUMPDEST PUSH2 0x69F PUSH2 0x7B8 JUMP JUMPDEST PUSH1 0x2 PUSH32 0x9B779B17422D0DF92223018B32B4D1FA46E071723D6817E2486D003BECC55F00 SSTORE JUMP JUMPDEST PUSH2 0x6D2 DUP4 DUP4 DUP4 PUSH1 0x1 PUSH2 0x7FA JUMP JUMPDEST PUSH2 0x6FA JUMPI PUSH1 0x40 MLOAD PUSH4 0x5274AFE7 PUSH1 0xE0 SHL DUP2 MSTORE PUSH1 0x1 PUSH1 0x1 PUSH1 0xA0 SHL SUB DUP5 AND PUSH1 0x4 DUP3 ADD MSTORE PUSH1 0x24 ADD PUSH2 0x341 JUMP JUMPDEST POP POP POP JUMP JUMPDEST PUSH1 0x0 SLOAD PUSH1 0x1 PUSH1 0x1 PUSH1 0xA0 SHL SUB AND CALLER EQ PUSH2 0x4BA JUMPI PUSH1 0x40 MLOAD PUSH4 0x118CDAA7 PUSH1 0xE0 SHL DUP2 MSTORE CALLER PUSH1 0x4 DUP3 ADD MSTORE PUSH1 0x24 ADD PUSH2 0x341 JUMP JUMPDEST PUSH2 0x73A DUP5 DUP5 DUP5 DUP5 PUSH1 0x1 PUSH2 0x860 JUMP JUMPDEST PUSH2 0x762 JUMPI PUSH1 0x40 MLOAD PUSH4 0x5274AFE7 PUSH1 0xE0 SHL DUP2 MSTORE PUSH1 0x1 PUSH1 0x1 PUSH1 0xA0 SHL SUB DUP6 AND PUSH1 0x4 DUP3 ADD MSTORE PUSH1 0x24 ADD PUSH2 0x341 JUMP JUMPDEST POP POP POP POP JUMP JUMPDEST PUSH1 0x0 DUP1 SLOAD PUSH1 0x1 PUSH1 0x1 PUSH1 0xA0 SHL SUB DUP4 DUP2 AND PUSH1 0x1 PUSH1 0x1 PUSH1 0xA0 SHL SUB NOT DUP4 AND DUP2 OR DUP5 SSTORE PUSH1 0x40 MLOAD SWAP2 SWAP1 SWAP3 AND SWAP3 DUP4 SWAP2 PUSH32 0x8BE0079C531659141344CD1FD0A4F28419497F9722A3DAAFE3B4186F6B6457E0 SWAP2 SWAP1 LOG3 POP POP JUMP JUMPDEST PUSH32 0x9B779B17422D0DF92223018B32B4D1FA46E071723D6817E2486D003BECC55F00 SLOAD PUSH1 0x2 SUB PUSH2 0x4BA JUMPI PUSH1 0x40 MLOAD PUSH4 0x3EE5AEB5 PUSH1 0xE0 SHL DUP2 MSTORE PUSH1 0x4 ADD PUSH1 0x40 MLOAD DUP1 SWAP2 SUB SWAP1 REVERT JUMPDEST PUSH1 0x40 MLOAD PUSH4 0xA9059CBB PUSH1 0xE0 SHL PUSH1 0x0 DUP2 DUP2 MSTORE PUSH1 0x1 PUSH1 0x1 PUSH1 0xA0 SHL SUB DUP7 AND PUSH1 0x4 MSTORE PUSH1 0x24 DUP6 SWAP1 MSTORE SWAP2 PUSH1 0x20 DUP4 PUSH1 0x44 DUP2 DUP1 DUP12 GAS CALL SWAP3 POP PUSH1 0x1 PUSH1 0x0 MLOAD EQ DUP4 AND PUSH2 0x854 JUMPI DUP4 DUP4 ISZERO AND ISZERO PUSH2 0x847 JUMPI RETURNDATASIZE PUSH1 0x0 DUP3 RETURNDATACOPY RETURNDATASIZE DUP2 REVERT JUMPDEST PUSH1 0x0 DUP8 EXTCODESIZE GT RETURNDATASIZE ISZERO AND DUP4 AND SWAP3 POP JUMPDEST PUSH1 0x40 MSTORE POP SWAP5 SWAP4 POP POP POP POP JUMP JUMPDEST PUSH1 0x40 MLOAD PUSH4 0x23B872DD PUSH1 0xE0 SHL PUSH1 0x0 DUP2 DUP2 MSTORE PUSH1 0x1 PUSH1 0x1 PUSH1 0xA0 SHL SUB DUP8 DUP2 AND PUSH1 0x4 MSTORE DUP7 AND PUSH1 0x24 MSTORE PUSH1 0x44 DUP6 SWAP1 MSTORE SWAP2 PUSH1 0x20 DUP4 PUSH1 0x64 DUP2 DUP1 DUP13 GAS CALL SWAP3 POP PUSH1 0x1 PUSH1 0x0 MLOAD EQ DUP4 AND PUSH2 0x8C0 JUMPI DUP4 DUP4 ISZERO AND ISZERO PUSH2 0x8B3 JUMPI RETURNDATASIZE PUSH1 0x0 DUP3 RETURNDATACOPY RETURNDATASIZE DUP2 REVERT JUMPDEST PUSH1 0x0 DUP9 EXTCODESIZE GT RETURNDATASIZE ISZERO AND DUP4 AND SWAP3 POP JUMPDEST PUSH1 0x40 MSTORE POP PUSH1 0x0 PUSH1 0x60 MSTORE SWAP6 SWAP5 POP POP POP POP POP JUMP JUMPDEST PUSH1 0x0 PUSH1 0x20 DUP3 DUP5 SUB SLT ISZERO PUSH2 0x8E4 JUMPI PUSH1 0x0 DUP1 REVERT JUMPDEST DUP2 CALLDATALOAD PUSH1 0x1 PUSH1 0x1 PUSH1 0xA0 SHL SUB DUP2 AND DUP2 EQ PUSH2 0x8FB JUMPI PUSH1 0x0 DUP1 REVERT JUMPDEST SWAP4 SWAP3 POP POP POP JUMP JUMPDEST PUSH1 0x0 PUSH1 0x20 DUP3 DUP5 SUB SLT ISZERO PUSH2 0x914 JUMPI PUSH1 0x0 DUP1 REVERT JUMPDEST POP CALLDATALOAD SWAP2 SWAP1 POP JUMP JUMPDEST PUSH1 0x0 PUSH1 0x20 DUP3 DUP5 SUB SLT ISZERO PUSH2 0x92D JUMPI PUSH1 0x0 DUP1 REVERT JUMPDEST POP MLOAD SWAP2 SWAP1 POP JUMP JUMPDEST PUSH4 0x4E487B71 PUSH1 0xE0 SHL PUSH1 0x0 MSTORE PUSH1 0x11 PUSH1 0x4 MSTORE PUSH1 0x24 PUSH1 0x0 REVERT JUMPDEST DUP1 DUP3 MUL DUP2 ISZERO DUP3 DUP3 DIV DUP5 EQ OR PUSH2 0x961 JUMPI PUSH2 0x961 PUSH2 0x934 JUMP JUMPDEST SWAP3 SWAP2 POP POP JUMP JUMPDEST PUSH1 0x0 DUP3 PUSH2 0x984 JUMPI PUSH4 0x4E487B71 PUSH1 0xE0 SHL PUSH1 0x0 MSTORE PUSH1 0x12 PUSH1 0x4 MSTORE PUSH1 0x24 PUSH1 0x0 REVERT JUMPDEST POP DIV SWAP1 JUMP JUMPDEST DUP2 DUP2 SUB DUP2 DUP2 GT ISZERO PUSH2 0x961 JUMPI PUSH2 0x961 PUSH2 0x934 JUMP JUMPDEST DUP1 DUP3 ADD DUP1 DUP3 GT ISZERO PUSH2 0x961 JUMPI PUSH2 0x961 PUSH2 0x934 JUMP INVALID LOG2 PUSH5 0x6970667358 0x22 SLT KECCAK256 0xFC SWAP6 0x2A 0xF6 JUMPI EXTCODEHASH 0x28 0xC9 SELFDESTRUCT SWAP13 0xCB 0xA8 0x2F SWAP4 PUSH2 0x4E1F SWAP7 EXP LT 0xD7 0x24 JUMPI 0xFB 0xA7 0xD1 SWAP3 0xD9 PUSH4 0xDAC9464 PUSH20 0x6F6C634300081400330000000000000000000000 "},"methodIdentifiers":{"claimRewards()":"372500ab","distributeRewards(uint256)":"59974e38","owner()":"8da5cb5b","pendingRewards(address)":"31d7a262","renounceOwnership()":"715018a6","rewardMask(address)":"db594ff4","rewardsPerVeWeave()":"005f4554","totalClaimed(address)":"ef5d9ae8","totalDistributed()":"efca2eed","transferOwnership(address)":"f2fde38b","usdc()":"3e413bee","veWeave()":"13901600"}}}}}