{"contracts/WeaveVault.sol":{"WeaveVault":{"abi":[{"inputs":[{"internalType":"address","name":"_depositToken","type":"address"}],"stateMutability":"nonpayable","type":"constructor"},{"inputs":[],"name":"EnforcedPause","type":"error"},{"inputs":[],"name":"ExpectedPause","type":"error"},{"inputs":[{"internalType":"address","name":"owner","type":"address"}],"name":"OwnableInvalidOwner","type":"error"},{"inputs":[{"internalType":"address","name":"account","type":"address"}],"name":"OwnableUnauthorizedAccount","type":"error"},{"inputs":[],"name":"ReentrancyGuardReentrantCall","type":"error"},{"inputs":[{"internalType":"address","name":"token","type":"address"}],"name":"SafeERC20FailedOperation","type":"error"},{"anonymous":false,"inputs":[{"indexed":true,"internalType":"address","name":"user","type":"address"},{"indexed":false,"internalType":"uint256","name":"amount","type":"uint256"},{"indexed":false,"internalType":"uint256","name":"shares","type":"uint256"}],"name":"Deposited","type":"event"},{"anonymous":false,"inputs":[{"indexed":false,"internalType":"uint256","name":"yieldAmount","type":"uint256"},{"indexed":false,"internalType":"uint256","name":"timestamp","type":"uint256"}],"name":"Harvested","type":"event"},{"anonymous":false,"inputs":[{"indexed":true,"internalType":"address","name":"previousOwner","type":"address"},{"indexed":true,"internalType":"address","name":"newOwner","type":"address"}],"name":"OwnershipTransferred","type":"event"},{"anonymous":false,"inputs":[{"indexed":false,"internalType":"address","name":"account","type":"address"}],"name":"Paused","type":"event"},{"anonymous":false,"inputs":[{"indexed":false,"internalType":"address","name":"account","type":"address"}],"name":"Unpaused","type":"event"},{"anonymous":false,"inputs":[{"indexed":true,"internalType":"address","name":"user","type":"address"},{"indexed":false,"internalType":"uint256","name":"amount","type":"uint256"},{"indexed":false,"internalType":"uint256","name":"shares","type":"uint256"}],"name":"Withdrawn","type":"event"},{"inputs":[{"internalType":"uint256","name":"amount","type":"uint256"}],"name":"deposit","outputs":[],"stateMutability":"nonpayable","type":"function"},{"inputs":[{"internalType":"address","name":"user","type":"address"},{"internalType":"uint256","name":"amount","type":"uint256"}],"name":"depositFor","outputs":[],"stateMutability":"nonpayable","type":"function"},{"inputs":[{"internalType":"address","name":"","type":"address"}],"name":"depositTimestamp","outputs":[{"internalType":"uint256","name":"","type":"uint256"}],"stateMutability":"view","type":"function"},{"inputs":[],"name":"depositToken","outputs":[{"internalType":"contract IERC20","name":"","type":"address"}],"stateMutability":"view","type":"function"},{"inputs":[],"name":"getPricePerShare","outputs":[{"internalType":"uint256","name":"","type":"uint256"}],"stateMutability":"view","type":"function"},{"inputs":[{"internalType":"address","name":"user","type":"address"}],"name":"getUserValue","outputs":[{"internalType":"uint256","name":"","type":"uint256"}],"stateMutability":"view","type":"function"},{"inputs":[{"internalType":"uint256","name":"yieldAmount","type":"uint256"}],"name":"harvest","outputs":[],"stateMutability":"nonpayable","type":"function"},{"inputs":[],"name":"keeper","outputs":[{"internalType":"address","name":"","type":"address"}],"stateMutability":"view","type":"function"},{"inputs":[],"name":"owner","outputs":[{"internalType":"address","name":"","type":"address"}],"stateMutability":"view","type":"function"},{"inputs":[],"name":"pause","outputs":[],"stateMutability":"nonpayable","type":"function"},{"inputs":[],"name":"paused","outputs":[{"internalType":"bool","name":"","type":"bool"}],"stateMutability":"view","type":"function"},{"inputs":[],"name":"renounceOwnership","outputs":[],"stateMutability":"nonpayable","type":"function"},{"inputs":[{"internalType":"address","name":"_keeper","type":"address"}],"name":"setKeeper","outputs":[],"stateMutability":"nonpayable","type":"function"},{"inputs":[],"name":"totalDeposited","outputs":[{"internalType":"uint256","name":"","type":"uint256"}],"stateMutability":"view","type":"function"},{"inputs":[],"name":"totalShares","outputs":[{"internalType":"uint256","name":"","type":"uint256"}],"stateMutability":"view","type":"function"},{"inputs":[{"internalType":"address","name":"newOwner","type":"address"}],"name":"transferOwnership","outputs":[],"stateMutability":"nonpayable","type":"function"},{"inputs":[],"name":"unpause","outputs":[],"stateMutability":"nonpayable","type":"function"},{"inputs":[{"internalType":"address","name":"","type":"address"}],"name":"userShares","outputs":[{"internalType":"uint256","name":"","type":"uint256"}],"stateMutability":"view","type":"function"},{"inputs":[{"internalType":"uint256","name":"shareAmount","type":"uint256"}],"name":"withdraw","outputs":[],"stateMutability":"nonpayable","type":"function"}],"evm":{"bytecode":{"linkReferences":{},"object":"60a060405234801561001057600080fd5b50604051610d7c380380610d7c83398101604081905261002f916100f6565b60017f9b779b17422d0df92223018b32b4d1fa46e071723d6817e2486d003becc55f0055338061007957604051631e4fbdf760e01b81526000600482015260240160405180910390fd5b610082816100a6565b506001600160a01b0316608052600580546001600160a01b03191633179055610126565b600080546001600160a01b038381166001600160a01b0319831681178455604051919092169283917f8be0079c531659141344cd1fd0a4f28419497f9722a3daafe3b4186f6b6457e09190a35050565b60006020828403121561010857600080fd5b81516001600160a01b038116811461011f57600080fd5b9392505050565b608051610c2d61014f6000396000818161023d015281816103e6015261073f0152610c2d6000f3fe608060405234801561001057600080fd5b50600436106101215760003560e01c80638456cb59116100ad578063c89039c511610071578063c89039c514610238578063ddc632621461025f578063de69b3aa14610272578063f2fde38b14610292578063ff50abdc146102a557600080fd5b80638456cb59146101d25780638da5cb5b146101da578063a78c849b146101ff578063aced166114610212578063b6b55f251461022557600080fd5b80633f4ba83a116100f45780633f4ba83a1461017257806346b00d041461017a5780635c975abb1461019a578063715018a6146101b7578063748747e6146101bf57600080fd5b80632e1a7d4d146101265780632f4f21e21461013b5780633a98ef391461014e5780633d68175c1461016a575b600080fd5b610139610134366004610ae1565b6102ae565b005b610139610149366004610b16565b610463565b61015760025481565b6040519081526020015b60405180910390f35b610157610471565b6101396104b1565b610157610188366004610b40565b60046020526000908152604090205481565b600054600160a01b900460ff166040519015158152602001610161565b6101396104c3565b6101396101cd366004610b40565b6104d5565b6101396104ff565b6000546001600160a01b03165b6040516001600160a01b039091168152602001610161565b61015761020d366004610b40565b61050f565b6005546101e7906001600160a01b031681565b610139610233366004610ae1565b61055c565b6101e77f000000000000000000000000000000000000000000000000000000000000000081565b61013961026d366004610ae1565b610566565b610157610280366004610b40565b60036020526000908152604090205481565b6101396102a0366004610b40565b61061c565b61015760015481565b6102b6610657565b6000811161030b5760405162461bcd60e51b815260206004820152601860248201527f536861726520616d6f756e74206d757374206265203e2030000000000000000060448201526064015b60405180910390fd5b336000908152600360205260409020548111156103605760405162461bcd60e51b8152602060048201526013602482015272496e73756666696369656e742073686172657360681b6044820152606401610302565b6000600254600154836103739190610b78565b61037d9190610b8f565b336000908152600360205260408120805492935084929091906103a1908490610bb1565b9250508190555081600260008282546103ba9190610bb1565b9250508190555080600160008282546103d39190610bb1565b9091555061040d90506001600160a01b037f0000000000000000000000000000000000000000000000000000000000000000163383610673565b604080518281526020810184905233917f92ccf450a286a957af52509bc1c9939d1a6a481783e142e41e2499f0bb66ebc6910160405180910390a2506104606001600080516020610bd883398151915255565b50565b61046d82826106ad565b5050565b600060025460000361048a5750670de0b6b3a764000090565b6002546001546104a290670de0b6b3a7640000610b78565b6104ac9190610b8f565b905090565b6104b9610833565b6104c1610860565b565b6104cb610833565b6104c160006108b5565b6104dd610833565b600580546001600160a01b0319166001600160a01b0392909216919091179055565b610507610833565b6104c1610905565b600060025460000361052357506000919050565b6002546001546001600160a01b03841660009081526003602052604090205461054c9190610b78565b6105569190610b8f565b92915050565b61046033826106ad565b6005546001600160a01b031633148061058957506000546001600160a01b031633145b6105c25760405162461bcd60e51b815260206004820152600a6024820152692737ba1035b2b2b832b960b11b6044820152606401610302565b6105ca610948565b80600160008282546105dc9190610bc4565b9091555050604080518281524260208201527ffa07446fad45314351eb89109a154880278451332bb87f1824d435fe58da5939910160405180910390a150565b610624610833565b6001600160a01b03811661064e57604051631e4fbdf760e01b815260006004820152602401610302565b610460816108b5565b61065f610973565b6002600080516020610bd883398151915255565b61068083838360016109a3565b6106a857604051635274afe760e01b81526001600160a01b0384166004820152602401610302565b505050565b6106b5610657565b6106bd610948565b600081116107025760405162461bcd60e51b81526020600482015260126024820152710416d6f756e74206d757374206265203e20360741b6044820152606401610302565b6000600254600003610715575080610732565b6001546002546107259084610b78565b61072f9190610b8f565b90505b6107676001600160a01b037f000000000000000000000000000000000000000000000000000000000000000016333085610a09565b6001600160a01b0383166000908152600360205260408120805483929061078f908490610bc4565b9250508190555080600260008282546107a89190610bc4565b9250508190555081600160008282546107c19190610bc4565b90915550506001600160a01b03831660008181526004602090815260409182902042905581518581529081018490527f73a19dd210f1a7f902193214c0ee91dd35ee5b4d920cba8d519eca65a7b488ca910160405180910390a25061046d6001600080516020610bd883398151915255565b6000546001600160a01b031633146104c15760405163118cdaa760e01b8152336004820152602401610302565b610868610a45565b6000805460ff60a01b191690557f5db9ee0a495bf2e6ff9c91a7834c1ba4fdd244a5e8aa4e537bd38aeae4b073aa335b6040516001600160a01b03909116815260200160405180910390a1565b600080546001600160a01b038381166001600160a01b0319831681178455604051919092169283917f8be0079c531659141344cd1fd0a4f28419497f9722a3daafe3b4186f6b6457e09190a35050565b61090d610948565b6000805460ff60a01b1916600160a01b1790557f62e78cea01bee320cd4e420270b5ea74000d11b0c9f74754ebdbfc544b05a2586108983390565b600054600160a01b900460ff16156104c15760405163d93c066560e01b815260040160405180910390fd5b600080516020610bd8833981519152546002036104c157604051633ee5aeb560e01b815260040160405180910390fd5b60405163a9059cbb60e01b60008181526001600160a01b038616600452602485905291602083604481808b5af1925060016000511483166109fd5783831516156109f0573d6000823e3d81fd5b6000873b113d1516831692505b60405250949350505050565b610a17848484846001610a6f565b610a3f57604051635274afe760e01b81526001600160a01b0385166004820152602401610302565b50505050565b600054600160a01b900460ff166104c157604051638dfc202b60e01b815260040160405180910390fd5b6040516323b872dd60e01b60008181526001600160a01b038781166004528616602452604485905291602083606481808c5af192506001600051148316610acf578383151615610ac2573d6000823e3d81fd5b6000883b113d1516831692505b60405250600060605295945050505050565b600060208284031215610af357600080fd5b5035919050565b80356001600160a01b0381168114610b1157600080fd5b919050565b60008060408385031215610b2957600080fd5b610b3283610afa565b946020939093013593505050565b600060208284031215610b5257600080fd5b610b5b82610afa565b9392505050565b634e487b7160e01b600052601160045260246000fd5b808202811582820484141761055657610556610b62565b600082610bac57634e487b7160e01b600052601260045260246000fd5b500490565b8181038181111561055657610556610b62565b8082018082111561055657610556610b6256fe9b779b17422d0df92223018b32b4d1fa46e071723d6817e2486d003becc55f00a2646970667358221220028221cb3d36714e308d4b3de70b96d82390a2b46a23669e724f85c028e7f93864736f6c63430008140033","opcodes":"PUSH1 0xA0 PUSH1 0x40 MSTORE CALLVALUE DUP1 ISZERO PUSH2 0x10 JUMPI PUSH1 0x0 DUP1 REVERT JUMPDEST POP PUSH1 0x40 MLOAD PUSH2 0xD7C CODESIZE SUB DUP1 PUSH2 0xD7C DUP4 CODECOPY DUP2 ADD PUSH1 0x40 DUP2 SWAP1 MSTORE PUSH2 0x2F SWAP2 PUSH2 0xF6 JUMP JUMPDEST PUSH1 0x1 PUSH32 0x9B779B17422D0DF92223018B32B4D1FA46E071723D6817E2486D003BECC55F00 SSTORE CALLER DUP1 PUSH2 0x79 JUMPI PUSH1 0x40 MLOAD PUSH4 0x1E4FBDF7 PUSH1 0xE0 SHL DUP2 MSTORE PUSH1 0x0 PUSH1 0x4 DUP3 ADD MSTORE PUSH1 0x24 ADD PUSH1 0x40 MLOAD DUP1 SWAP2 SUB SWAP1 REVERT JUMPDEST PUSH2 0x82 DUP2 PUSH2 0xA6 JUMP JUMPDEST POP PUSH1 0x1 PUSH1 0x1 PUSH1 0xA0 SHL SUB AND PUSH1 0x80 MSTORE PUSH1 0x5 DUP1 SLOAD PUSH1 0x1 PUSH1 0x1 PUSH1 0xA0 SHL SUB NOT AND CALLER OR SWAP1 SSTORE PUSH2 0x126 JUMP JUMPDEST PUSH1 0x0 DUP1 SLOAD PUSH1 0x1 PUSH1 0x1 PUSH1 0xA0 SHL SUB DUP4 DUP2 AND PUSH1 0x1 PUSH1 0x1 PUSH1 0xA0 SHL SUB NOT DUP4 AND DUP2 OR DUP5 SSTORE PUSH1 0x40 MLOAD SWAP2 SWAP1 SWAP3 AND SWAP3 DUP4 SWAP2 PUSH32 0x8BE0079C531659141344CD1FD0A4F28419497F9722A3DAAFE3B4186F6B6457E0 SWAP2 SWAP1 LOG3 POP POP JUMP JUMPDEST PUSH1 0x0 PUSH1 0x20 DUP3 DUP5 SUB SLT ISZERO PUSH2 0x108 JUMPI PUSH1 0x0 DUP1 REVERT JUMPDEST DUP2 MLOAD PUSH1 0x1 PUSH1 0x1 PUSH1 0xA0 SHL SUB DUP2 AND DUP2 EQ PUSH2 0x11F JUMPI PUSH1 0x0 DUP1 REVERT JUMPDEST SWAP4 SWAP3 POP POP POP JUMP JUMPDEST PUSH1 0x80 MLOAD PUSH2 0xC2D PUSH2 0x14F PUSH1 0x0 CODECOPY PUSH1 0x0 DUP2 DUP2 PUSH2 0x23D ADD MSTORE DUP2 DUP2 PUSH2 0x3E6 ADD MSTORE PUSH2 0x73F ADD MSTORE PUSH2 0xC2D PUSH1 0x0 RETURN INVALID PUSH1 0x80 PUSH1 0x40 MSTORE CALLVALUE DUP1 ISZERO PUSH2 0x10 JUMPI PUSH1 0x0 DUP1 REVERT JUMPDEST POP PUSH1 0x4 CALLDATASIZE LT PUSH2 0x121 JUMPI PUSH1 0x0 CALLDATALOAD PUSH1 0xE0 SHR DUP1 PUSH4 0x8456CB59 GT PUSH2 0xAD JUMPI DUP1 PUSH4 0xC89039C5 GT PUSH2 0x71 JUMPI DUP1 PUSH4 0xC89039C5 EQ PUSH2 0x238 JUMPI DUP1 PUSH4 0xDDC63262 EQ PUSH2 0x25F JUMPI DUP1 PUSH4 0xDE69B3AA EQ PUSH2 0x272 JUMPI DUP1 PUSH4 0xF2FDE38B EQ PUSH2 0x292 JUMPI DUP1 PUSH4 0xFF50ABDC EQ PUSH2 0x2A5 JUMPI PUSH1 0x0 DUP1 REVERT JUMPDEST DUP1 PUSH4 0x8456CB59 EQ PUSH2 0x1D2 JUMPI DUP1 PUSH4 0x8DA5CB5B EQ PUSH2 0x1DA JUMPI DUP1 PUSH4 0xA78C849B EQ PUSH2 0x1FF JUMPI DUP1 PUSH4 0xACED1661 EQ PUSH2 0x212 JUMPI DUP1 PUSH4 0xB6B55F25 EQ PUSH2 0x225 JUMPI PUSH1 0x0 DUP1 REVERT JUMPDEST DUP1 PUSH4 0x3F4BA83A GT PUSH2 0xF4 JUMPI DUP1 PUSH4 0x3F4BA83A EQ PUSH2 0x172 JUMPI DUP1 PUSH4 0x46B00D04 EQ PUSH2 0x17A JUMPI DUP1 PUSH4 0x5C975ABB EQ PUSH2 0x19A JUMPI DUP1 PUSH4 0x715018A6 EQ PUSH2 0x1B7 JUMPI DUP1 PUSH4 0x748747E6 EQ PUSH2 0x1BF JUMPI PUSH1 0x0 DUP1 REVERT JUMPDEST DUP1 PUSH4 0x2E1A7D4D EQ PUSH2 0x126 JUMPI DUP1 PUSH4 0x2F4F21E2 EQ PUSH2 0x13B JUMPI DUP1 PUSH4 0x3A98EF39 EQ PUSH2 0x14E JUMPI DUP1 PUSH4 0x3D68175C EQ PUSH2 0x16A JUMPI JUMPDEST PUSH1 0x0 DUP1 REVERT JUMPDEST PUSH2 0x139 PUSH2 0x134 CALLDATASIZE PUSH1 0x4 PUSH2 0xAE1 JUMP JUMPDEST PUSH2 0x2AE JUMP JUMPDEST STOP JUMPDEST PUSH2 0x139 PUSH2 0x149 CALLDATASIZE PUSH1 0x4 PUSH2 0xB16 JUMP JUMPDEST PUSH2 0x463 JUMP JUMPDEST PUSH2 0x157 PUSH1 0x2 SLOAD DUP2 JUMP JUMPDEST PUSH1 0x40 MLOAD SWAP1 DUP2 MSTORE PUSH1 0x20 ADD JUMPDEST PUSH1 0x40 MLOAD DUP1 SWAP2 SUB SWAP1 RETURN JUMPDEST PUSH2 0x157 PUSH2 0x471 JUMP JUMPDEST PUSH2 0x139 PUSH2 0x4B1 JUMP JUMPDEST PUSH2 0x157 PUSH2 0x188 CALLDATASIZE PUSH1 0x4 PUSH2 0xB40 JUMP JUMPDEST PUSH1 0x4 PUSH1 0x20 MSTORE PUSH1 0x0 SWAP1 DUP2 MSTORE PUSH1 0x40 SWAP1 KECCAK256 SLOAD DUP2 JUMP JUMPDEST PUSH1 0x0 SLOAD PUSH1 0x1 PUSH1 0xA0 SHL SWAP1 DIV PUSH1 0xFF AND PUSH1 0x40 MLOAD SWAP1 ISZERO ISZERO DUP2 MSTORE PUSH1 0x20 ADD PUSH2 0x161 JUMP JUMPDEST PUSH2 0x139 PUSH2 0x4C3 JUMP JUMPDEST PUSH2 0x139 PUSH2 0x1CD CALLDATASIZE PUSH1 0x4 PUSH2 0xB40 JUMP JUMPDEST PUSH2 0x4D5 JUMP JUMPDEST PUSH2 0x139 PUSH2 0x4FF JUMP JUMPDEST PUSH1 0x0 SLOAD PUSH1 0x1 PUSH1 0x1 PUSH1 0xA0 SHL SUB AND JUMPDEST PUSH1 0x40 MLOAD PUSH1 0x1 PUSH1 0x1 PUSH1 0xA0 SHL SUB SWAP1 SWAP2 AND DUP2 MSTORE PUSH1 0x20 ADD PUSH2 0x161 JUMP JUMPDEST PUSH2 0x157 PUSH2 0x20D CALLDATASIZE PUSH1 0x4 PUSH2 0xB40 JUMP JUMPDEST PUSH2 0x50F JUMP JUMPDEST PUSH1 0x5 SLOAD PUSH2 0x1E7 SWAP1 PUSH1 0x1 PUSH1 0x1 PUSH1 0xA0 SHL SUB AND DUP2 JUMP JUMPDEST PUSH2 0x139 PUSH2 0x233 CALLDATASIZE PUSH1 0x4 PUSH2 0xAE1 JUMP JUMPDEST PUSH2 0x55C JUMP JUMPDEST PUSH2 0x1E7 PUSH32 0x0 DUP2 JUMP JUMPDEST PUSH2 0x139 PUSH2 0x26D CALLDATASIZE PUSH1 0x4 PUSH2 0xAE1 JUMP JUMPDEST PUSH2 0x566 JUMP JUMPDEST PUSH2 0x157 PUSH2 0x280 CALLDATASIZE PUSH1 0x4 PUSH2 0xB40 JUMP JUMPDEST PUSH1 0x3 PUSH1 0x20 MSTORE PUSH1 0x0 SWAP1 DUP2 MSTORE PUSH1 0x40 SWAP1 KECCAK256 SLOAD DUP2 JUMP JUMPDEST PUSH2 0x139 PUSH2 0x2A0 CALLDATASIZE PUSH1 0x4 PUSH2 0xB40 JUMP JUMPDEST PUSH2 0x61C JUMP JUMPDEST PUSH2 0x157 PUSH1 0x1 SLOAD DUP2 JUMP JUMPDEST PUSH2 0x2B6 PUSH2 0x657 JUMP JUMPDEST PUSH1 0x0 DUP2 GT PUSH2 0x30B JUMPI PUSH1 0x40 MLOAD PUSH3 0x461BCD PUSH1 0xE5 SHL DUP2 MSTORE PUSH1 0x20 PUSH1 0x4 DUP3 ADD MSTORE PUSH1 0x18 PUSH1 0x24 DUP3 ADD MSTORE PUSH32 0x536861726520616D6F756E74206D757374206265203E20300000000000000000 PUSH1 0x44 DUP3 ADD MSTORE PUSH1 0x64 ADD JUMPDEST PUSH1 0x40 MLOAD DUP1 SWAP2 SUB SWAP1 REVERT JUMPDEST CALLER PUSH1 0x0 SWAP1 DUP2 MSTORE PUSH1 0x3 PUSH1 0x20 MSTORE PUSH1 0x40 SWAP1 KECCAK256 SLOAD DUP2 GT ISZERO PUSH2 0x360 JUMPI PUSH1 0x40 MLOAD PUSH3 0x461BCD PUSH1 0xE5 SHL DUP2 MSTORE PUSH1 0x20 PUSH1 0x4 DUP3 ADD MSTORE PUSH1 0x13 PUSH1 0x24 DUP3 ADD MSTORE PUSH19 0x496E73756666696369656E7420736861726573 PUSH1 0x68 SHL PUSH1 0x44 DUP3 ADD MSTORE PUSH1 0x64 ADD PUSH2 0x302 JUMP JUMPDEST PUSH1 0x0 PUSH1 0x2 SLOAD PUSH1 0x1 SLOAD DUP4 PUSH2 0x373 SWAP2 SWAP1 PUSH2 0xB78 JUMP JUMPDEST PUSH2 0x37D SWAP2 SWAP1 PUSH2 0xB8F JUMP JUMPDEST CALLER PUSH1 0x0 SWAP1 DUP2 MSTORE PUSH1 0x3 PUSH1 0x20 MSTORE PUSH1 0x40 DUP2 KECCAK256 DUP1 SLOAD SWAP3 SWAP4 POP DUP5 SWAP3 SWAP1 SWAP2 SWAP1 PUSH2 0x3A1 SWAP1 DUP5 SWAP1 PUSH2 0xBB1 JUMP JUMPDEST SWAP3 POP POP DUP2 SWAP1 SSTORE POP DUP2 PUSH1 0x2 PUSH1 0x0 DUP3 DUP3 SLOAD PUSH2 0x3BA SWAP2 SWAP1 PUSH2 0xBB1 JUMP JUMPDEST SWAP3 POP POP DUP2 SWAP1 SSTORE POP DUP1 PUSH1 0x1 PUSH1 0x0 DUP3 DUP3 SLOAD PUSH2 0x3D3 SWAP2 SWAP1 PUSH2 0xBB1 JUMP JUMPDEST SWAP1 SWAP2 SSTORE POP PUSH2 0x40D SWAP1 POP PUSH1 0x1 PUSH1 0x1 PUSH1 0xA0 SHL SUB PUSH32 0x0 AND CALLER DUP4 PUSH2 0x673 JUMP JUMPDEST PUSH1 0x40 DUP1 MLOAD DUP3 DUP2 MSTORE PUSH1 0x20 DUP2 ADD DUP5 SWAP1 MSTORE CALLER SWAP2 PUSH32 0x92CCF450A286A957AF52509BC1C9939D1A6A481783E142E41E2499F0BB66EBC6 SWAP2 ADD PUSH1 0x40 MLOAD DUP1 SWAP2 SUB SWAP1 LOG2 POP PUSH2 0x460 PUSH1 0x1 PUSH1 0x0 DUP1 MLOAD PUSH1 0x20 PUSH2 0xBD8 DUP4 CODECOPY DUP2 MLOAD SWAP2 MSTORE SSTORE JUMP JUMPDEST POP JUMP JUMPDEST PUSH2 0x46D DUP3 DUP3 PUSH2 0x6AD JUMP JUMPDEST POP POP JUMP JUMPDEST PUSH1 0x0 PUSH1 0x2 SLOAD PUSH1 0x0 SUB PUSH2 0x48A JUMPI POP PUSH8 0xDE0B6B3A7640000 SWAP1 JUMP JUMPDEST PUSH1 0x2 SLOAD PUSH1 0x1 SLOAD PUSH2 0x4A2 SWAP1 PUSH8 0xDE0B6B3A7640000 PUSH2 0xB78 JUMP JUMPDEST PUSH2 0x4AC SWAP2 SWAP1 PUSH2 0xB8F JUMP JUMPDEST SWAP1 POP SWAP1 JUMP JUMPDEST PUSH2 0x4B9 PUSH2 0x833 JUMP JUMPDEST PUSH2 0x4C1 PUSH2 0x860 JUMP JUMPDEST JUMP JUMPDEST PUSH2 0x4CB PUSH2 0x833 JUMP JUMPDEST PUSH2 0x4C1 PUSH1 0x0 PUSH2 0x8B5 JUMP JUMPDEST PUSH2 0x4DD PUSH2 0x833 JUMP JUMPDEST PUSH1 0x5 DUP1 SLOAD PUSH1 0x1 PUSH1 0x1 PUSH1 0xA0 SHL SUB NOT AND PUSH1 0x1 PUSH1 0x1 PUSH1 0xA0 SHL SUB SWAP3 SWAP1 SWAP3 AND SWAP2 SWAP1 SWAP2 OR SWAP1 SSTORE JUMP JUMPDEST PUSH2 0x507 PUSH2 0x833 JUMP JUMPDEST PUSH2 0x4C1 PUSH2 0x905 JUMP JUMPDEST PUSH1 0x0 PUSH1 0x2 SLOAD PUSH1 0x0 SUB PUSH2 0x523 JUMPI POP PUSH1 0x0 SWAP2 SWAP1 POP JUMP JUMPDEST PUSH1 0x2 SLOAD PUSH1 0x1 SLOAD PUSH1 0x1 PUSH1 0x1 PUSH1 0xA0 SHL SUB DUP5 AND PUSH1 0x0 SWAP1 DUP2 MSTORE PUSH1 0x3 PUSH1 0x20 MSTORE PUSH1 0x40 SWAP1 KECCAK256 SLOAD PUSH2 0x54C SWAP2 SWAP1 PUSH2 0xB78 JUMP JUMPDEST PUSH2 0x556 SWAP2 SWAP1 PUSH2 0xB8F JUMP JUMPDEST SWAP3 SWAP2 POP POP JUMP JUMPDEST PUSH2 0x460 CALLER DUP3 PUSH2 0x6AD JUMP JUMPDEST PUSH1 0x5 SLOAD PUSH1 0x1 PUSH1 0x1 PUSH1 0xA0 SHL SUB AND CALLER EQ DUP1 PUSH2 0x589 JUMPI POP PUSH1 0x0 SLOAD PUSH1 0x1 PUSH1 0x1 PUSH1 0xA0 SHL SUB AND CALLER EQ JUMPDEST PUSH2 0x5C2 JUMPI PUSH1 0x40 MLOAD PUSH3 0x461BCD PUSH1 0xE5 SHL DUP2 MSTORE PUSH1 0x20 PUSH1 0x4 DUP3 ADD MSTORE PUSH1 0xA PUSH1 0x24 DUP3 ADD MSTORE PUSH10 0x2737BA1035B2B2B832B9 PUSH1 0xB1 SHL PUSH1 0x44 DUP3 ADD MSTORE PUSH1 0x64 ADD PUSH2 0x302 JUMP JUMPDEST PUSH2 0x5CA PUSH2 0x948 JUMP JUMPDEST DUP1 PUSH1 0x1 PUSH1 0x0 DUP3 DUP3 SLOAD PUSH2 0x5DC SWAP2 SWAP1 PUSH2 0xBC4 JUMP JUMPDEST SWAP1 SWAP2 SSTORE POP POP PUSH1 0x40 DUP1 MLOAD DUP3 DUP2 MSTORE TIMESTAMP PUSH1 0x20 DUP3 ADD MSTORE PUSH32 0xFA07446FAD45314351EB89109A154880278451332BB87F1824D435FE58DA5939 SWAP2 ADD PUSH1 0x40 MLOAD DUP1 SWAP2 SUB SWAP1 LOG1 POP JUMP JUMPDEST PUSH2 0x624 PUSH2 0x833 JUMP JUMPDEST PUSH1 0x1 PUSH1 0x1 PUSH1 0xA0 SHL SUB DUP2 AND PUSH2 0x64E JUMPI PUSH1 0x40 MLOAD PUSH4 0x1E4FBDF7 PUSH1 0xE0 SHL DUP2 MSTORE PUSH1 0x0 PUSH1 0x4 DUP3 ADD MSTORE PUSH1 0x24 ADD PUSH2 0x302 JUMP JUMPDEST PUSH2 0x460 DUP2 PUSH2 0x8B5 JUMP JUMPDEST PUSH2 0x65F PUSH2 0x973 JUMP JUMPDEST PUSH1 0x2 PUSH1 0x0 DUP1 MLOAD PUSH1 0x20 PUSH2 0xBD8 DUP4 CODECOPY DUP2 MLOAD SWAP2 MSTORE SSTORE JUMP JUMPDEST PUSH2 0x680 DUP4 DUP4 DUP4 PUSH1 0x1 PUSH2 0x9A3 JUMP JUMPDEST PUSH2 0x6A8 JUMPI PUSH1 0x40 MLOAD PUSH4 0x5274AFE7 PUSH1 0xE0 SHL DUP2 MSTORE PUSH1 0x1 PUSH1 0x1 PUSH1 0xA0 SHL SUB DUP5 AND PUSH1 0x4 DUP3 ADD MSTORE PUSH1 0x24 ADD PUSH2 0x302 JUMP JUMPDEST POP POP POP JUMP JUMPDEST PUSH2 0x6B5 PUSH2 0x657 JUMP JUMPDEST PUSH2 0x6BD PUSH2 0x948 JUMP JUMPDEST PUSH1 0x0 DUP2 GT PUSH2 0x702 JUMPI PUSH1 0x40 MLOAD PUSH3 0x461BCD PUSH1 0xE5 SHL DUP2 MSTORE PUSH1 0x20 PUSH1 0x4 DUP3 ADD MSTORE PUSH1 0x12 PUSH1 0x24 DUP3 ADD MSTORE PUSH18 0x416D6F756E74206D757374206265203E203 PUSH1 0x74 SHL PUSH1 0x44 DUP3 ADD MSTORE PUSH1 0x64 ADD PUSH2 0x302 JUMP JUMPDEST PUSH1 0x0 PUSH1 0x2 SLOAD PUSH1 0x0 SUB PUSH2 0x715 JUMPI POP DUP1 PUSH2 0x732 JUMP JUMPDEST PUSH1 0x1 SLOAD PUSH1 0x2 SLOAD PUSH2 0x725 SWAP1 DUP5 PUSH2 0xB78 JUMP JUMPDEST PUSH2 0x72F SWAP2 SWAP1 PUSH2 0xB8F JUMP JUMPDEST SWAP1 POP JUMPDEST PUSH2 0x767 PUSH1 0x1 PUSH1 0x1 PUSH1 0xA0 SHL SUB PUSH32 0x0 AND CALLER ADDRESS DUP6 PUSH2 0xA09 JUMP JUMPDEST PUSH1 0x1 PUSH1 0x1 PUSH1 0xA0 SHL SUB DUP4 AND PUSH1 0x0 SWAP1 DUP2 MSTORE PUSH1 0x3 PUSH1 0x20 MSTORE PUSH1 0x40 DUP2 KECCAK256 DUP1 SLOAD DUP4 SWAP3 SWAP1 PUSH2 0x78F SWAP1 DUP5 SWAP1 PUSH2 0xBC4 JUMP JUMPDEST SWAP3 POP POP DUP2 SWAP1 SSTORE POP DUP1 PUSH1 0x2 PUSH1 0x0 DUP3 DUP3 SLOAD PUSH2 0x7A8 SWAP2 SWAP1 PUSH2 0xBC4 JUMP JUMPDEST SWAP3 POP POP DUP2 SWAP1 SSTORE POP DUP2 PUSH1 0x1 PUSH1 0x0 DUP3 DUP3 SLOAD PUSH2 0x7C1 SWAP2 SWAP1 PUSH2 0xBC4 JUMP JUMPDEST SWAP1 SWAP2 SSTORE POP POP PUSH1 0x1 PUSH1 0x1 PUSH1 0xA0 SHL SUB DUP4 AND PUSH1 0x0 DUP2 DUP2 MSTORE PUSH1 0x4 PUSH1 0x20 SWAP1 DUP2 MSTORE PUSH1 0x40 SWAP2 DUP3 SWAP1 KECCAK256 TIMESTAMP SWAP1 SSTORE DUP2 MLOAD DUP6 DUP2 MSTORE SWAP1 DUP2 ADD DUP5 SWAP1 MSTORE PUSH32 0x73A19DD210F1A7F902193214C0EE91DD35EE5B4D920CBA8D519ECA65A7B488CA SWAP2 ADD PUSH1 0x40 MLOAD DUP1 SWAP2 SUB SWAP1 LOG2 POP PUSH2 0x46D PUSH1 0x1 PUSH1 0x0 DUP1 MLOAD PUSH1 0x20 PUSH2 0xBD8 DUP4 CODECOPY DUP2 MLOAD SWAP2 MSTORE SSTORE JUMP JUMPDEST PUSH1 0x0 SLOAD PUSH1 0x1 PUSH1 0x1 PUSH1 0xA0 SHL SUB AND CALLER EQ PUSH2 0x4C1 JUMPI PUSH1 0x40 MLOAD PUSH4 0x118CDAA7 PUSH1 0xE0 SHL DUP2 MSTORE CALLER PUSH1 0x4 DUP3 ADD MSTORE PUSH1 0x24 ADD PUSH2 0x302 JUMP JUMPDEST PUSH2 0x868 PUSH2 0xA45 JUMP JUMPDEST PUSH1 0x0 DUP1 SLOAD PUSH1 0xFF PUSH1 0xA0 SHL NOT AND SWAP1 SSTORE PUSH32 0x5DB9EE0A495BF2E6FF9C91A7834C1BA4FDD244A5E8AA4E537BD38AEAE4B073AA CALLER JUMPDEST PUSH1 0x40 MLOAD PUSH1 0x1 PUSH1 0x1 PUSH1 0xA0 SHL SUB SWAP1 SWAP2 AND DUP2 MSTORE PUSH1 0x20 ADD PUSH1 0x40 MLOAD DUP1 SWAP2 SUB SWAP1 LOG1 JUMP JUMPDEST PUSH1 0x0 DUP1 SLOAD PUSH1 0x1 PUSH1 0x1 PUSH1 0xA0 SHL SUB DUP4 DUP2 AND PUSH1 0x1 PUSH1 0x1 PUSH1 0xA0 SHL SUB NOT DUP4 AND DUP2 OR DUP5 SSTORE PUSH1 0x40 MLOAD SWAP2 SWAP1 SWAP3 AND SWAP3 DUP4 SWAP2 PUSH32 0x8BE0079C531659141344CD1FD0A4F28419497F9722A3DAAFE3B4186F6B6457E0 SWAP2 SWAP1 LOG3 POP POP JUMP JUMPDEST PUSH2 0x90D PUSH2 0x948 JUMP JUMPDEST PUSH1 0x0 DUP1 SLOAD PUSH1 0xFF PUSH1 0xA0 SHL NOT AND PUSH1 0x1 PUSH1 0xA0 SHL OR SWAP1 SSTORE PUSH32 0x62E78CEA01BEE320CD4E420270B5EA74000D11B0C9F74754EBDBFC544B05A258 PUSH2 0x898 CALLER SWAP1 JUMP JUMPDEST PUSH1 0x0 SLOAD PUSH1 0x1 PUSH1 0xA0 SHL SWAP1 DIV PUSH1 0xFF AND ISZERO PUSH2 0x4C1 JUMPI PUSH1 0x40 MLOAD PUSH4 0xD93C0665 PUSH1 0xE0 SHL DUP2 MSTORE PUSH1 0x4 ADD PUSH1 0x40 MLOAD DUP1 SWAP2 SUB SWAP1 REVERT JUMPDEST PUSH1 0x0 DUP1 MLOAD PUSH1 0x20 PUSH2 0xBD8 DUP4 CODECOPY DUP2 MLOAD SWAP2 MSTORE SLOAD PUSH1 0x2 SUB PUSH2 0x4C1 JUMPI PUSH1 0x40 MLOAD PUSH4 0x3EE5AEB5 PUSH1 0xE0 SHL DUP2 MSTORE PUSH1 0x4 ADD PUSH1 0x40 MLOAD DUP1 SWAP2 SUB SWAP1 REVERT JUMPDEST PUSH1 0x40 MLOAD PUSH4 0xA9059CBB PUSH1 0xE0 SHL PUSH1 0x0 DUP2 DUP2 MSTORE PUSH1 0x1 PUSH1 0x1 PUSH1 0xA0 SHL SUB DUP7 AND PUSH1 0x4 MSTORE PUSH1 0x24 DUP6 SWAP1 MSTORE SWAP2 PUSH1 0x20 DUP4 PUSH1 0x44 DUP2 DUP1 DUP12 GAS CALL SWAP3 POP PUSH1 0x1 PUSH1 0x0 MLOAD EQ DUP4 AND PUSH2 0x9FD JUMPI DUP4 DUP4 ISZERO AND ISZERO PUSH2 0x9F0 JUMPI RETURNDATASIZE PUSH1 0x0 DUP3 RETURNDATACOPY RETURNDATASIZE DUP2 REVERT JUMPDEST PUSH1 0x0 DUP8 EXTCODESIZE GT RETURNDATASIZE ISZERO AND DUP4 AND SWAP3 POP JUMPDEST PUSH1 0x40 MSTORE POP SWAP5 SWAP4 POP POP POP POP JUMP JUMPDEST PUSH2 0xA17 DUP5 DUP5 DUP5 DUP5 PUSH1 0x1 PUSH2 0xA6F JUMP JUMPDEST PUSH2 0xA3F JUMPI PUSH1 0x40 MLOAD PUSH4 0x5274AFE7 PUSH1 0xE0 SHL DUP2 MSTORE PUSH1 0x1 PUSH1 0x1 PUSH1 0xA0 SHL SUB DUP6 AND PUSH1 0x4 DUP3 ADD MSTORE PUSH1 0x24 ADD PUSH2 0x302 JUMP JUMPDEST POP POP POP POP JUMP JUMPDEST PUSH1 0x0 SLOAD PUSH1 0x1 PUSH1 0xA0 SHL SWAP1 DIV PUSH1 0xFF AND PUSH2 0x4C1 JUMPI PUSH1 0x40 MLOAD PUSH4 0x8DFC202B PUSH1 0xE0 SHL DUP2 MSTORE PUSH1 0x4 ADD PUSH1 0x40 MLOAD DUP1 SWAP2 SUB SWAP1 REVERT JUMPDEST PUSH1 0x40 MLOAD PUSH4 0x23B872DD PUSH1 0xE0 SHL PUSH1 0x0 DUP2 DUP2 MSTORE PUSH1 0x1 PUSH1 0x1 PUSH1 0xA0 SHL SUB DUP8 DUP2 AND PUSH1 0x4 MSTORE DUP7 AND PUSH1 0x24 MSTORE PUSH1 0x44 DUP6 SWAP1 MSTORE SWAP2 PUSH1 0x20 DUP4 PUSH1 0x64 DUP2 DUP1 DUP13 GAS CALL SWAP3 POP PUSH1 0x1 PUSH1 0x0 MLOAD EQ DUP4 AND PUSH2 0xACF JUMPI DUP4 DUP4 ISZERO AND ISZERO PUSH2 0xAC2 JUMPI RETURNDATASIZE PUSH1 0x0 DUP3 RETURNDATACOPY RETURNDATASIZE DUP2 REVERT JUMPDEST PUSH1 0x0 DUP9 EXTCODESIZE GT RETURNDATASIZE ISZERO AND DUP4 AND SWAP3 POP JUMPDEST PUSH1 0x40 MSTORE POP PUSH1 0x0 PUSH1 0x60 MSTORE SWAP6 SWAP5 POP POP POP POP POP JUMP JUMPDEST PUSH1 0x0 PUSH1 0x20 DUP3 DUP5 SUB SLT ISZERO PUSH2 0xAF3 JUMPI PUSH1 0x0 DUP1 REVERT JUMPDEST POP CALLDATALOAD SWAP2 SWAP1 POP JUMP JUMPDEST DUP1 CALLDATALOAD PUSH1 0x1 PUSH1 0x1 PUSH1 0xA0 SHL SUB DUP2 AND DUP2 EQ PUSH2 0xB11 JUMPI PUSH1 0x0 DUP1 REVERT JUMPDEST SWAP2 SWAP1 POP JUMP JUMPDEST PUSH1 0x0 DUP1 PUSH1 0x40 DUP4 DUP6 SUB SLT ISZERO PUSH2 0xB29 JUMPI PUSH1 0x0 DUP1 REVERT JUMPDEST PUSH2 0xB32 DUP4 PUSH2 0xAFA JUMP JUMPDEST SWAP5 PUSH1 0x20 SWAP4 SWAP1 SWAP4 ADD CALLDATALOAD SWAP4 POP POP POP JUMP JUMPDEST PUSH1 0x0 PUSH1 0x20 DUP3 DUP5 SUB SLT ISZERO PUSH2 0xB52 JUMPI PUSH1 0x0 DUP1 REVERT JUMPDEST PUSH2 0xB5B DUP3 PUSH2 0xAFA JUMP JUMPDEST SWAP4 SWAP3 POP POP POP JUMP JUMPDEST PUSH4 0x4E487B71 PUSH1 0xE0 SHL PUSH1 0x0 MSTORE PUSH1 0x11 PUSH1 0x4 MSTORE PUSH1 0x24 PUSH1 0x0 REVERT JUMPDEST DUP1 DUP3 MUL DUP2 ISZERO DUP3 DUP3 DIV DUP5 EQ OR PUSH2 0x556 JUMPI PUSH2 0x556 PUSH2 0xB62 JUMP JUMPDEST PUSH1 0x0 DUP3 PUSH2 0xBAC JUMPI PUSH4 0x4E487B71 PUSH1 0xE0 SHL PUSH1 0x0 MSTORE PUSH1 0x12 PUSH1 0x4 MSTORE PUSH1 0x24 PUSH1 0x0 REVERT JUMPDEST POP DIV SWAP1 JUMP JUMPDEST DUP2 DUP2 SUB DUP2 DUP2 GT ISZERO PUSH2 0x556 JUMPI PUSH2 0x556 PUSH2 0xB62 JUMP JUMPDEST DUP1 DUP3 ADD DUP1 DUP3 GT ISZERO PUSH2 0x556 JUMPI PUSH2 0x556 PUSH2 0xB62 JUMP INVALID SWAP12 PUSH24 0x9B17422D0DF92223018B32B4D1FA46E071723D6817E2486D STOP EXTCODESIZE 0xEC 0xC5 PUSH0 STOP LOG2 PUSH5 0x6970667358 0x22 SLT KECCAK256 MUL DUP3 0x21 0xCB RETURNDATASIZE CALLDATASIZE PUSH18 0x4E308D4B3DE70B96D82390A2B46A23669E72 0x4F DUP6 0xC0 0x28 0xE7 0xF9 CODESIZE PUSH5 0x736F6C6343 STOP ADDMOD EQ STOP CALLER "},"methodIdentifiers":{"deposit(uint256)":"b6b55f25","depositFor(address,uint256)":"2f4f21e2","depositTimestamp(address)":"46b00d04","depositToken()":"c89039c5","getPricePerShare()":"3d68175c","getUserValue(address)":"a78c849b","harvest(uint256)":"ddc63262","keeper()":"aced1661","owner()":"8da5cb5b","pause()":"8456cb59","paused()":"5c975abb","renounceOwnership()":"715018a6","setKeeper(address)":"748747e6","totalDeposited()":"ff50abdc","totalShares()":"3a98ef39","transferOwnership(address)":"f2fde38b","unpause()":"3f4ba83a","userShares(address)":"de69b3aa","withdraw(uint256)":"2e1a7d4d"}}}}}