{
  "_format": "hh-sol-artifact-1",
  "contractName": "WeaveVault",
  "sourceName": "contracts/WeaveVault.sol",
  "abi": [
    {
      "inputs": [
        {
          "internalType": "address",
          "name": "_depositToken",
          "type": "address"
        }
      ],
      "stateMutability": "nonpayable",
      "type": "constructor"
    },
    {
      "inputs": [],
      "name": "EnforcedPause",
      "type": "error"
    },
    {
      "inputs": [],
      "name": "ExpectedPause",
      "type": "error"
    },
    {
      "inputs": [
        {
          "internalType": "address",
          "name": "owner",
          "type": "address"
        }
      ],
      "name": "OwnableInvalidOwner",
      "type": "error"
    },
    {
      "inputs": [
        {
          "internalType": "address",
          "name": "account",
          "type": "address"
        }
      ],
      "name": "OwnableUnauthorizedAccount",
      "type": "error"
    },
    {
      "inputs": [],
      "name": "ReentrancyGuardReentrantCall",
      "type": "error"
    },
    {
      "inputs": [
        {
          "internalType": "address",
          "name": "token",
          "type": "address"
        }
      ],
      "name": "SafeERC20FailedOperation",
      "type": "error"
    },
    {
      "anonymous": false,
      "inputs": [
        {
          "indexed": true,
          "internalType": "address",
          "name": "user",
          "type": "address"
        },
        {
          "indexed": false,
          "internalType": "uint256",
          "name": "amount",
          "type": "uint256"
        },
        {
          "indexed": false,
          "internalType": "uint256",
          "name": "shares",
          "type": "uint256"
        }
      ],
      "name": "Deposited",
      "type": "event"
    },
    {
      "anonymous": false,
      "inputs": [
        {
          "indexed": true,
          "internalType": "address",
          "name": "recipient",
          "type": "address"
        }
      ],
      "name": "FeeRecipientUpdated",
      "type": "event"
    },
    {
      "anonymous": false,
      "inputs": [
        {
          "indexed": false,
          "internalType": "uint256",
          "name": "netYield",
          "type": "uint256"
        },
        {
          "indexed": false,
          "internalType": "uint256",
          "name": "fee",
          "type": "uint256"
        },
        {
          "indexed": false,
          "internalType": "uint256",
          "name": "timestamp",
          "type": "uint256"
        }
      ],
      "name": "Harvested",
      "type": "event"
    },
    {
      "anonymous": false,
      "inputs": [
        {
          "indexed": true,
          "internalType": "address",
          "name": "keeper",
          "type": "address"
        }
      ],
      "name": "KeeperUpdated",
      "type": "event"
    },
    {
      "anonymous": false,
      "inputs": [
        {
          "indexed": true,
          "internalType": "address",
          "name": "previousOwner",
          "type": "address"
        },
        {
          "indexed": true,
          "internalType": "address",
          "name": "newOwner",
          "type": "address"
        }
      ],
      "name": "OwnershipTransferred",
      "type": "event"
    },
    {
      "anonymous": false,
      "inputs": [
        {
          "indexed": false,
          "internalType": "address",
          "name": "account",
          "type": "address"
        }
      ],
      "name": "Paused",
      "type": "event"
    },
    {
      "anonymous": false,
      "inputs": [
        {
          "indexed": false,
          "internalType": "address",
          "name": "account",
          "type": "address"
        }
      ],
      "name": "Unpaused",
      "type": "event"
    },
    {
      "anonymous": false,
      "inputs": [
        {
          "indexed": true,
          "internalType": "address",
          "name": "user",
          "type": "address"
        },
        {
          "indexed": false,
          "internalType": "uint256",
          "name": "amount",
          "type": "uint256"
        },
        {
          "indexed": false,
          "internalType": "uint256",
          "name": "shares",
          "type": "uint256"
        }
      ],
      "name": "Withdrawn",
      "type": "event"
    },
    {
      "inputs": [
        {
          "internalType": "uint256",
          "name": "amount",
          "type": "uint256"
        }
      ],
      "name": "deposit",
      "outputs": [],
      "stateMutability": "nonpayable",
      "type": "function"
    },
    {
      "inputs": [
        {
          "internalType": "address",
          "name": "user",
          "type": "address"
        },
        {
          "internalType": "uint256",
          "name": "amount",
          "type": "uint256"
        }
      ],
      "name": "depositFor",
      "outputs": [],
      "stateMutability": "nonpayable",
      "type": "function"
    },
    {
      "inputs": [
        {
          "internalType": "address",
          "name": "",
          "type": "address"
        }
      ],
      "name": "depositTimestamp",
      "outputs": [
        {
          "internalType": "uint256",
          "name": "",
          "type": "uint256"
        }
      ],
      "stateMutability": "view",
      "type": "function"
    },
    {
      "inputs": [],
      "name": "depositToken",
      "outputs": [
        {
          "internalType": "contract IERC20",
          "name": "",
          "type": "address"
        }
      ],
      "stateMutability": "view",
      "type": "function"
    },
    {
      "inputs": [],
      "name": "feeRecipient",
      "outputs": [
        {
          "internalType": "address",
          "name": "",
          "type": "address"
        }
      ],
      "stateMutability": "view",
      "type": "function"
    },
    {
      "inputs": [],
      "name": "getPricePerShare",
      "outputs": [
        {
          "internalType": "uint256",
          "name": "",
          "type": "uint256"
        }
      ],
      "stateMutability": "view",
      "type": "function"
    },
    {
      "inputs": [
        {
          "internalType": "address",
          "name": "user",
          "type": "address"
        }
      ],
      "name": "getUserValue",
      "outputs": [
        {
          "internalType": "uint256",
          "name": "",
          "type": "uint256"
        }
      ],
      "stateMutability": "view",
      "type": "function"
    },
    {
      "inputs": [],
      "name": "getVaultStats",
      "outputs": [
        {
          "internalType": "uint256",
          "name": "_totalDeposited",
          "type": "uint256"
        },
        {
          "internalType": "uint256",
          "name": "_totalShares",
          "type": "uint256"
        },
        {
          "internalType": "uint256",
          "name": "_totalYieldGenerated",
          "type": "uint256"
        },
        {
          "internalType": "uint256",
          "name": "_totalProtocolFeesAccrued",
          "type": "uint256"
        },
        {
          "internalType": "uint256",
          "name": "_pricePerShare",
          "type": "uint256"
        }
      ],
      "stateMutability": "view",
      "type": "function"
    },
    {
      "inputs": [
        {
          "internalType": "uint256",
          "name": "yieldAmount",
          "type": "uint256"
        }
      ],
      "name": "harvest",
      "outputs": [],
      "stateMutability": "nonpayable",
      "type": "function"
    },
    {
      "inputs": [],
      "name": "keeper",
      "outputs": [
        {
          "internalType": "address",
          "name": "",
          "type": "address"
        }
      ],
      "stateMutability": "view",
      "type": "function"
    },
    {
      "inputs": [],
      "name": "owner",
      "outputs": [
        {
          "internalType": "address",
          "name": "",
          "type": "address"
        }
      ],
      "stateMutability": "view",
      "type": "function"
    },
    {
      "inputs": [],
      "name": "paused",
      "outputs": [
        {
          "internalType": "bool",
          "name": "",
          "type": "bool"
        }
      ],
      "stateMutability": "view",
      "type": "function"
    },
    {
      "inputs": [],
      "name": "protocolFee",
      "outputs": [
        {
          "internalType": "uint256",
          "name": "",
          "type": "uint256"
        }
      ],
      "stateMutability": "view",
      "type": "function"
    },
    {
      "inputs": [],
      "name": "renounceOwnership",
      "outputs": [],
      "stateMutability": "nonpayable",
      "type": "function"
    },
    {
      "inputs": [
        {
          "internalType": "address",
          "name": "_recipient",
          "type": "address"
        }
      ],
      "name": "setFeeRecipient",
      "outputs": [],
      "stateMutability": "nonpayable",
      "type": "function"
    },
    {
      "inputs": [
        {
          "internalType": "address",
          "name": "_keeper",
          "type": "address"
        }
      ],
      "name": "setKeeper",
      "outputs": [],
      "stateMutability": "nonpayable",
      "type": "function"
    },
    {
      "inputs": [
        {
          "internalType": "bool",
          "name": "_paused",
          "type": "bool"
        }
      ],
      "name": "setPaused",
      "outputs": [],
      "stateMutability": "nonpayable",
      "type": "function"
    },
    {
      "inputs": [],
      "name": "totalDeposited",
      "outputs": [
        {
          "internalType": "uint256",
          "name": "",
          "type": "uint256"
        }
      ],
      "stateMutability": "view",
      "type": "function"
    },
    {
      "inputs": [],
      "name": "totalProtocolFeesAccrued",
      "outputs": [
        {
          "internalType": "uint256",
          "name": "",
          "type": "uint256"
        }
      ],
      "stateMutability": "view",
      "type": "function"
    },
    {
      "inputs": [],
      "name": "totalShares",
      "outputs": [
        {
          "internalType": "uint256",
          "name": "",
          "type": "uint256"
        }
      ],
      "stateMutability": "view",
      "type": "function"
    },
    {
      "inputs": [],
      "name": "totalYieldGenerated",
      "outputs": [
        {
          "internalType": "uint256",
          "name": "",
          "type": "uint256"
        }
      ],
      "stateMutability": "view",
      "type": "function"
    },
    {
      "inputs": [
        {
          "internalType": "address",
          "name": "newOwner",
          "type": "address"
        }
      ],
      "name": "transferOwnership",
      "outputs": [],
      "stateMutability": "nonpayable",
      "type": "function"
    },
    {
      "inputs": [
        {
          "internalType": "address",
          "name": "",
          "type": "address"
        }
      ],
      "name": "userShares",
      "outputs": [
        {
          "internalType": "uint256",
          "name": "",
          "type": "uint256"
        }
      ],
      "stateMutability": "view",
      "type": "function"
    },
    {
      "inputs": [
        {
          "internalType": "uint256",
          "name": "shareAmount",
          "type": "uint256"
        }
      ],
      "name": "withdraw",
      "outputs": [],
      "stateMutability": "nonpayable",
      "type": "function"
    }
  ],
  "bytecode": "0x60a06040526103e860065534801561001657600080fd5b50604051610f9d380380610f9d8339810160408190526100359161010c565b60017f9b779b17422d0df92223018b32b4d1fa46e071723d6817e2486d003becc55f0055338061007f57604051631e4fbdf760e01b81526000600482015260240160405180910390fd5b610088816100bc565b506001600160a01b031660805260058054336001600160a01b0319918216811790925560078054909116909117905561013c565b600080546001600160a01b038381166001600160a01b0319831681178455604051919092169283917f8be0079c531659141344cd1fd0a4f28419497f9722a3daafe3b4186f6b6457e09190a35050565b60006020828403121561011e57600080fd5b81516001600160a01b038116811461013557600080fd5b9392505050565b608051610e38610165600039600081816102d9015281816104be0152610a2b0152610e386000f3fe608060405234801561001057600080fd5b50600436106101585760003560e01c8063a59aa5a6116100c3578063c89039c51161007c578063c89039c5146102d4578063ddc63262146102fb578063de69b3aa1461030e578063e74b981b1461032e578063f2fde38b14610341578063ff50abdc1461035457600080fd5b8063a59aa5a614610259578063a600f6a714610289578063a78c849b14610292578063aced1661146102a5578063b0e21e8a146102b8578063b6b55f25146102c157600080fd5b806346b00d041161011557806346b00d04146101e75780635c975abb14610207578063715018a614610224578063748747e61461022c5780638c8250561461023f5780638da5cb5b1461024857600080fd5b806316c38b3c1461015d5780632e1a7d4d146101725780632f4f21e2146101855780633a98ef39146101985780633d68175c146101b457806346904840146101bc575b600080fd5b61017061016b366004610cca565b61035d565b005b610170610180366004610cf3565b61037e565b610170610193366004610d28565b610538565b6101a160025481565b6040519081526020015b60405180910390f35b6101a161056d565b6007546101cf906001600160a01b031681565b6040516001600160a01b0390911681526020016101ab565b6101a16101f5366004610d52565b60046020526000908152604090205481565b600054600160a01b900460ff1660405190151581526020016101ab565b6101706105a3565b61017061023a366004610d52565b6105b7565b6101a160095481565b6000546001600160a01b03166101cf565b610261610609565b604080519586526020860194909452928401919091526060830152608082015260a0016101ab565b6101a160085481565b6101a16102a0366004610d52565b610636565b6005546101cf906001600160a01b031681565b6101a160065481565b6101706102cf366004610cf3565b610683565b6101cf7f000000000000000000000000000000000000000000000000000000000000000081565b610170610309366004610cf3565b6106b4565b6101a161031c366004610d52565b60036020526000908152604090205481565b61017061033c366004610d52565b6107d2565b61017061034f366004610d52565b610824565b6101a160015481565b61036561085f565b80156103765761037361088c565b50565b6103736108ec565b610386610928565b61038e610944565b600081116103e35760405162461bcd60e51b815260206004820152601860248201527f536861726520616d6f756e74206d757374206265203e2030000000000000000060448201526064015b60405180910390fd5b336000908152600360205260409020548111156104385760405162461bcd60e51b8152602060048201526013602482015272496e73756666696369656e742073686172657360681b60448201526064016103da565b60006002546001548361044b9190610d83565b6104559190610d9a565b33600090815260036020526040812080549293508492909190610479908490610dbc565b9250508190555081600260008282546104929190610dbc565b9250508190555080600160008282546104ab9190610dbc565b909155506104e590506001600160a01b037f000000000000000000000000000000000000000000000000000000000000000016338361096f565b604080518281526020810184905233917f92ccf450a286a957af52509bc1c9939d1a6a481783e142e41e2499f0bb66ebc6910160405180910390a2506103736001600080516020610de383398151915255565b610540610928565b610548610944565b61055282826109a9565b6105696001600080516020610de383398151915255565b5050565b60006002546000036105815750620f424090565b60025460015461059490620f4240610d83565b61059e9190610d9a565b905090565b6105ab61085f565b6105b56000610b0c565b565b6105bf61085f565b600580546001600160a01b0319166001600160a01b0383169081179091556040517f0425bcd291db1d48816f2a98edc7ecaf6dd5c64b973d9e4b3b6b750763dc6c2e90600090a250565b600080600080600060015460025460095460085461062561056d565b945094509450945094509091929394565b600060025460000361064a57506000919050565b6002546001546001600160a01b0384166000908152600360205260409020546106739190610d83565b61067d9190610d9a565b92915050565b61068b610928565b610693610944565b61069d33826109a9565b6103736001600080516020610de383398151915255565b6005546001600160a01b03163314806106d757506000546001600160a01b031633145b6107105760405162461bcd60e51b815260206004820152600a6024820152692737ba1035b2b2b832b960b11b60448201526064016103da565b610718610944565b60006127106006548361072b9190610d83565b6107359190610d9a565b905060006107438284610dbc565b905080600160008282546107579190610dcf565b9250508190555081600860008282546107709190610dcf565b9250508190555082600960008282546107899190610dcf565b90915550506040805182815260208101849052428183015290517febdd323f18ba49318367d0c92a04d5c51a67f15a60ad50d46523db464661a3029181900360600190a1505050565b6107da61085f565b600780546001600160a01b0319166001600160a01b0383169081179091556040517f7a7b5a0a132f9e0581eb8527f66eae9ee89c2a3e79d4ac7e41a1f1f4d48a7fc290600090a250565b61082c61085f565b6001600160a01b03811661085657604051631e4fbdf760e01b8152600060048201526024016103da565b61037381610b0c565b6000546001600160a01b031633146105b55760405163118cdaa760e01b81523360048201526024016103da565b610894610944565b6000805460ff60a01b1916600160a01b1790557f62e78cea01bee320cd4e420270b5ea74000d11b0c9f74754ebdbfc544b05a2586108cf3390565b6040516001600160a01b03909116815260200160405180910390a1565b6108f4610b5c565b6000805460ff60a01b191690557f5db9ee0a495bf2e6ff9c91a7834c1ba4fdd244a5e8aa4e537bd38aeae4b073aa336108cf565b610930610b86565b6002600080516020610de383398151915255565b600054600160a01b900460ff16156105b55760405163d93c066560e01b815260040160405180910390fd5b61097c8383836001610bb6565b6109a457604051635274afe760e01b81526001600160a01b03841660048201526024016103da565b505050565b600081116109ee5760405162461bcd60e51b81526020600482015260126024820152710416d6f756e74206d757374206265203e20360741b60448201526064016103da565b6000600254600003610a01575080610a1e565b600154600254610a119084610d83565b610a1b9190610d9a565b90505b610a536001600160a01b037f000000000000000000000000000000000000000000000000000000000000000016333085610c1c565b6001600160a01b03831660009081526003602052604081208054839290610a7b908490610dcf565b925050819055508060026000828254610a949190610dcf565b925050819055508160016000828254610aad9190610dcf565b90915550506001600160a01b03831660008181526004602090815260409182902042905581518581529081018490527f73a19dd210f1a7f902193214c0ee91dd35ee5b4d920cba8d519eca65a7b488ca910160405180910390a2505050565b600080546001600160a01b038381166001600160a01b0319831681178455604051919092169283917f8be0079c531659141344cd1fd0a4f28419497f9722a3daafe3b4186f6b6457e09190a35050565b600054600160a01b900460ff166105b557604051638dfc202b60e01b815260040160405180910390fd5b600080516020610de3833981519152546002036105b557604051633ee5aeb560e01b815260040160405180910390fd5b60405163a9059cbb60e01b60008181526001600160a01b038616600452602485905291602083604481808b5af192506001600051148316610c10578383151615610c03573d6000823e3d81fd5b6000873b113d1516831692505b60405250949350505050565b610c2a848484846001610c58565b610c5257604051635274afe760e01b81526001600160a01b03851660048201526024016103da565b50505050565b6040516323b872dd60e01b60008181526001600160a01b038781166004528616602452604485905291602083606481808c5af192506001600051148316610cb8578383151615610cab573d6000823e3d81fd5b6000883b113d1516831692505b60405250600060605295945050505050565b600060208284031215610cdc57600080fd5b81358015158114610cec57600080fd5b9392505050565b600060208284031215610d0557600080fd5b5035919050565b80356001600160a01b0381168114610d2357600080fd5b919050565b60008060408385031215610d3b57600080fd5b610d4483610d0c565b946020939093013593505050565b600060208284031215610d6457600080fd5b610cec82610d0c565b634e487b7160e01b600052601160045260246000fd5b808202811582820484141761067d5761067d610d6d565b600082610db757634e487b7160e01b600052601260045260246000fd5b500490565b8181038181111561067d5761067d610d6d565b8082018082111561067d5761067d610d6d56fe9b779b17422d0df92223018b32b4d1fa46e071723d6817e2486d003becc55f00a2646970667358221220a43454ae97a2bd7a6cfd6e7cee8bc430f57828f708e3afcebbdee324621a445564736f6c63430008140033",
  "linkReferences": {},
  "deployedLinkReferences": {}
}