{
  "_format": "hh-sol-artifact-1",
  "contractName": "WeaveZapIn",
  "sourceName": "contracts/WeaveZapIn.sol",
  "abi": [
    {
      "inputs": [
        {
          "internalType": "address",
          "name": "token",
          "type": "address"
        }
      ],
      "name": "SafeERC20FailedOperation",
      "type": "error"
    },
    {
      "anonymous": false,
      "inputs": [
        {
          "indexed": true,
          "internalType": "address",
          "name": "user",
          "type": "address"
        },
        {
          "indexed": false,
          "internalType": "uint256",
          "name": "amount",
          "type": "uint256"
        }
      ],
      "name": "ZapDeposited",
      "type": "event"
    },
    {
      "inputs": [
        {
          "internalType": "uint256",
          "name": "usdcAmount",
          "type": "uint256"
        },
        {
          "internalType": "address",
          "name": "vaultAddress",
          "type": "address"
        }
      ],
      "name": "deposit",
      "outputs": [],
      "stateMutability": "nonpayable",
      "type": "function"
    }
  ],
  "bytecode": "0x608060405234801561001057600080fd5b506104bf806100206000396000f3fe608060405234801561001057600080fd5b506004361061002b5760003560e01c80636e553f6514610030575b600080fd5b61004361003e3660046103f5565b610045565b005b6000821161008f5760405162461bcd60e51b81526020600482015260126024820152710416d6f756e74206d757374206265203e20360741b60448201526064015b60405180910390fd5b60008190506000816001600160a01b031663c89039c56040518163ffffffff1660e01b8152600401602060405180830381865afa1580156100d4573d6000803e3d6000fd5b505050506040513d601f19601f820116820180604052508101906100f89190610425565b905061010f6001600160a01b0382163330876101be565b6101236001600160a01b03821684866101fa565b6040516317a790f160e11b8152336004820152602481018590526001600160a01b03831690632f4f21e290604401600060405180830381600087803b15801561016b57600080fd5b505af115801561017f573d6000803e3d6000fd5b50506040518681523392507f5dcf6102ed24e54f217ee8b6af05e2cd0aab3fbba4594255d660f5050f9003d9915060200160405180910390a250505050565b6101cc848484846001610284565b6101f457604051635274afe760e01b81526001600160a01b0385166004820152602401610086565b50505050565b604051636eb1769f60e11b81523060048201526001600160a01b0383811660248301526000919085169063dd62ed3e90604401602060405180830381865afa15801561024a573d6000803e3d6000fd5b505050506040513d601f19601f8201168201806040525081019061026e9190610449565b90506101f4848461027f8585610462565b6102f6565b6040516323b872dd60e01b60008181526001600160a01b038781166004528616602452604485905291602083606481808c5af1925060016000511483166102e45783831516156102d7573d6000823e3d81fd5b6000883b113d1516831692505b60405250600060605295945050505050565b6103038383836000610377565b61037257610315838360006001610377565b61033d57604051635274afe760e01b81526001600160a01b0384166004820152602401610086565b61034a8383836001610377565b61037257604051635274afe760e01b81526001600160a01b0384166004820152602401610086565b505050565b60405163095ea7b360e01b60008181526001600160a01b038616600452602485905291602083604481808b5af1925060016000511483166103d15783831516156103c4573d6000823e3d81fd5b6000873b113d1516831692505b60405250949350505050565b6001600160a01b03811681146103f257600080fd5b50565b6000806040838503121561040857600080fd5b82359150602083013561041a816103dd565b809150509250929050565b60006020828403121561043757600080fd5b8151610442816103dd565b9392505050565b60006020828403121561045b57600080fd5b5051919050565b8082018082111561048357634e487b7160e01b600052601160045260246000fd5b9291505056fea2646970667358221220c44f9eaf4124c0d9ff8cf4d79ffb9b8d793fdcbc80efd484de81798f625a1d3b64736f6c63430008140033",
  "linkReferences": {},
  "deployedLinkReferences": {}
}