{
  "_format": "hh-sol-artifact-1",
  "contractName": "BlackwingStrategy",
  "sourceName": "contracts/strategies/BlackwingStrategy.sol",
  "abi": [
    {
      "inputs": [
        {
          "internalType": "address",
          "name": "_depositToken",
          "type": "address"
        },
        {
          "internalType": "address",
          "name": "_blackwingVault",
          "type": "address"
        },
        {
          "internalType": "address",
          "name": "_weaveVault",
          "type": "address"
        }
      ],
      "stateMutability": "nonpayable",
      "type": "constructor"
    },
    {
      "inputs": [
        {
          "internalType": "address",
          "name": "owner",
          "type": "address"
        }
      ],
      "name": "OwnableInvalidOwner",
      "type": "error"
    },
    {
      "inputs": [
        {
          "internalType": "address",
          "name": "account",
          "type": "address"
        }
      ],
      "name": "OwnableUnauthorizedAccount",
      "type": "error"
    },
    {
      "inputs": [
        {
          "internalType": "address",
          "name": "token",
          "type": "address"
        }
      ],
      "name": "SafeERC20FailedOperation",
      "type": "error"
    },
    {
      "anonymous": false,
      "inputs": [
        {
          "indexed": true,
          "internalType": "address",
          "name": "previousOwner",
          "type": "address"
        },
        {
          "indexed": true,
          "internalType": "address",
          "name": "newOwner",
          "type": "address"
        }
      ],
      "name": "OwnershipTransferred",
      "type": "event"
    },
    {
      "anonymous": false,
      "inputs": [
        {
          "indexed": false,
          "internalType": "uint256",
          "name": "amount",
          "type": "uint256"
        }
      ],
      "name": "StrategyDeposited",
      "type": "event"
    },
    {
      "anonymous": false,
      "inputs": [
        {
          "indexed": false,
          "internalType": "uint256",
          "name": "amount",
          "type": "uint256"
        }
      ],
      "name": "StrategyHarvested",
      "type": "event"
    },
    {
      "anonymous": false,
      "inputs": [
        {
          "indexed": false,
          "internalType": "uint256",
          "name": "amount",
          "type": "uint256"
        }
      ],
      "name": "StrategyWithdrawn",
      "type": "event"
    },
    {
      "inputs": [],
      "name": "blackwingVault",
      "outputs": [
        {
          "internalType": "contract IBlackwing",
          "name": "",
          "type": "address"
        }
      ],
      "stateMutability": "view",
      "type": "function"
    },
    {
      "inputs": [
        {
          "internalType": "uint256",
          "name": "amount",
          "type": "uint256"
        }
      ],
      "name": "deposit",
      "outputs": [],
      "stateMutability": "nonpayable",
      "type": "function"
    },
    {
      "inputs": [],
      "name": "depositToken",
      "outputs": [
        {
          "internalType": "contract IERC20",
          "name": "",
          "type": "address"
        }
      ],
      "stateMutability": "view",
      "type": "function"
    },
    {
      "inputs": [],
      "name": "getPendingYield",
      "outputs": [
        {
          "internalType": "uint256",
          "name": "",
          "type": "uint256"
        }
      ],
      "stateMutability": "view",
      "type": "function"
    },
    {
      "inputs": [],
      "name": "harvest",
      "outputs": [
        {
          "internalType": "uint256",
          "name": "",
          "type": "uint256"
        }
      ],
      "stateMutability": "nonpayable",
      "type": "function"
    },
    {
      "inputs": [],
      "name": "owner",
      "outputs": [
        {
          "internalType": "address",
          "name": "",
          "type": "address"
        }
      ],
      "stateMutability": "view",
      "type": "function"
    },
    {
      "inputs": [],
      "name": "renounceOwnership",
      "outputs": [],
      "stateMutability": "nonpayable",
      "type": "function"
    },
    {
      "inputs": [
        {
          "internalType": "address",
          "name": "_weaveVault",
          "type": "address"
        }
      ],
      "name": "setWeaveVault",
      "outputs": [],
      "stateMutability": "nonpayable",
      "type": "function"
    },
    {
      "inputs": [
        {
          "internalType": "address",
          "name": "newOwner",
          "type": "address"
        }
      ],
      "name": "transferOwnership",
      "outputs": [],
      "stateMutability": "nonpayable",
      "type": "function"
    },
    {
      "inputs": [],
      "name": "weaveVault",
      "outputs": [
        {
          "internalType": "address",
          "name": "",
          "type": "address"
        }
      ],
      "stateMutability": "view",
      "type": "function"
    },
    {
      "inputs": [
        {
          "internalType": "uint256",
          "name": "amount",
          "type": "uint256"
        }
      ],
      "name": "withdraw",
      "outputs": [],
      "stateMutability": "nonpayable",
      "type": "function"
    }
  ],
  "bytecode": "0x60c060405234801561001057600080fd5b50604051610c33380380610c3383398101604081905261002f916100f9565b338061005557604051631e4fbdf760e01b81526000600482015260240160405180910390fd5b61005e8161008d565b506001600160a01b0392831660805290821660a052600180546001600160a01b0319169190921617905561013c565b600080546001600160a01b038381166001600160a01b0319831681178455604051919092169283917f8be0079c531659141344cd1fd0a4f28419497f9722a3daafe3b4186f6b6457e09190a35050565b80516001600160a01b03811681146100f457600080fd5b919050565b60008060006060848603121561010e57600080fd5b610117846100dd565b9250610125602085016100dd565b9150610133604085016100dd565b90509250925092565b60805160a051610a8d6101a66000396000818160eb015281816101c90152818161028a0152818161041b0152818161060e0152610649015260008181610169015281816102fe015281816103a4015281816104a30152818161053e01526105ec0152610a8d6000f3fe608060405234801561001057600080fd5b50600436106100a95760003560e01c80638da5cb5b116100715780638da5cb5b1461012d578063a3af62d31461013e578063b6b55f2514610151578063c89039c514610164578063f2fde38b1461018b578063f7e62ae01461019e57600080fd5b80631f2413ed146100ae5780632e1a7d4d146100c95780634641257d146100de5780634cb558e3146100e6578063715018a614610125575b600080fd5b6100b66101b1565b6040519081526020015b60405180910390f35b6100dc6100d7366004610990565b610241565b005b6100b661035f565b61010d7f000000000000000000000000000000000000000000000000000000000000000081565b6040516001600160a01b0390911681526020016100c0565b6100dc6105a1565b6000546001600160a01b031661010d565b60015461010d906001600160a01b031681565b6100dc61015f366004610990565b6105b5565b61010d7f000000000000000000000000000000000000000000000000000000000000000081565b6100dc6101993660046109a9565b6106de565b6100dc6101ac3660046109a9565b61071c565b6040516318ebd13160e11b81523060048201526000907f00000000000000000000000000000000000000000000000000000000000000006001600160a01b0316906331d7a26290602401602060405180830381865afa158015610218573d6000803e3d6000fd5b505050506040513d601f19601f8201168201806040525081019061023c91906109d9565b905090565b6001546001600160a01b031633146102745760405162461bcd60e51b815260040161026b906109f2565b60405180910390fd5b604051632e1a7d4d60e01b8152600481018290527f00000000000000000000000000000000000000000000000000000000000000006001600160a01b031690632e1a7d4d90602401600060405180830381600087803b1580156102d657600080fd5b505af11580156102ea573d6000803e3d6000fd5b505060015461032892506001600160a01b037f0000000000000000000000000000000000000000000000000000000000000000811692501683610746565b6040518181527f35c4c11317fd96ffa30da51e0a4b85219c4b0f56c1507c3afefe79de0c47ef54906020015b60405180910390a150565b6001546000906001600160a01b0316331461038c5760405162461bcd60e51b815260040161026b906109f2565b6040516370a0823160e01b81523060048201526000907f00000000000000000000000000000000000000000000000000000000000000006001600160a01b0316906370a0823190602401602060405180830381865afa1580156103f3573d6000803e3d6000fd5b505050506040513d601f19601f8201168201806040525081019061041791906109d9565b90507f00000000000000000000000000000000000000000000000000000000000000006001600160a01b031663372500ab6040518163ffffffff1660e01b8152600401600060405180830381600087803b15801561047457600080fd5b505af1158015610488573d6000803e3d6000fd5b50506040516370a0823160e01b8152306004820152600092507f00000000000000000000000000000000000000000000000000000000000000006001600160a01b031691506370a0823190602401602060405180830381865afa1580156104f3573d6000803e3d6000fd5b505050506040513d601f19601f8201168201806040525081019061051791906109d9565b905060006105258383610a2b565b9050801561056757600154610567906001600160a01b037f00000000000000000000000000000000000000000000000000000000000000008116911683610746565b6040518181527f9c6960ca980a9521fad62fa5dd8538952b668c7f826b57272b3240f5a22605b69060200160405180910390a19392505050565b6105a9610780565b6105b360006107ad565b565b6001546001600160a01b031633146105df5760405162461bcd60e51b815260040161026b906109f2565b6106336001600160a01b037f0000000000000000000000000000000000000000000000000000000000000000167f0000000000000000000000000000000000000000000000000000000000000000836107fd565b60405163b6b55f2560e01b8152600481018290527f00000000000000000000000000000000000000000000000000000000000000006001600160a01b03169063b6b55f2590602401600060405180830381600087803b15801561069557600080fd5b505af11580156106a9573d6000803e3d6000fd5b505050507f767a00809f9cc45839785933eecaa39b1c134dd5a99507ad60f2c2545c6316448160405161035491815260200190565b6106e6610780565b6001600160a01b03811661071057604051631e4fbdf760e01b81526000600482015260240161026b565b610719816107ad565b50565b610724610780565b600180546001600160a01b0319166001600160a01b0392909216919091179055565b610753838383600161088d565b61077b57604051635274afe760e01b81526001600160a01b038416600482015260240161026b565b505050565b6000546001600160a01b031633146105b35760405163118cdaa760e01b815233600482015260240161026b565b600080546001600160a01b038381166001600160a01b0319831681178455604051919092169283917f8be0079c531659141344cd1fd0a4f28419497f9722a3daafe3b4186f6b6457e09190a35050565b604051636eb1769f60e11b81523060048201526001600160a01b0383811660248301526000919085169063dd62ed3e90604401602060405180830381865afa15801561084d573d6000803e3d6000fd5b505050506040513d601f19601f8201168201806040525081019061087191906109d9565b905061088784846108828585610a44565b6108f3565b50505050565b60405163a9059cbb60e01b60008181526001600160a01b038616600452602485905291602083604481808b5af1925060016000511483166108e75783831516156108da573d6000823e3d81fd5b6000873b113d1516831692505b60405250949350505050565b6109008383836000610943565b61077b57610912838360006001610943565b61093a57604051635274afe760e01b81526001600160a01b038416600482015260240161026b565b61075383838360015b60405163095ea7b360e01b60008181526001600160a01b038616600452602485905291602083604481808b5af1925060016000511483166108e75783831516156108da573d6000823e3d81fd5b6000602082840312156109a257600080fd5b5035919050565b6000602082840312156109bb57600080fd5b81356001600160a01b03811681146109d257600080fd5b9392505050565b6000602082840312156109eb57600080fd5b5051919050565b602080825260099082015268139bdd081d985d5b1d60ba1b604082015260600190565b634e487b7160e01b600052601160045260246000fd5b81810381811115610a3e57610a3e610a15565b92915050565b80820180821115610a3e57610a3e610a1556fea2646970667358221220092dbd3bcfec20e3bb8b4f3a016d62b6e1fa11680018b77ceb8079e8898fd56d64736f6c63430008140033",
  "linkReferences": {},
  "deployedLinkReferences": {}
}